:020000040001F9
:10B00000D01B0020F5B001000FB1010011B101000B
:10B010000000000000000000000000000000000030
:10B0200000000000000000000000000013B101005B
:10B03000000000000000000015B1010017B1010080
:10B0400019B1010019B1010019B1010019B10100D4
:10B0500019B101000000000019B1010019B101008F
:10B0600019B1010019B1010019B1010019B10100B4
:10B0700019B1010019B1010019B1010019B10100A4
:10B0800019B1010019B1010019B1010019B1010094
:10B0900019B1010019B1010019B1010019B1010084
:10B0A00019B1010019B1010000000000000000000A
:10B0B0000000000000000000000000000000000090
:10B0C0000348854600F032F80048004759B20100B5
:10B0D000D01B0020401E00BF00BF00BF00BF00BF4C
:10B0E00000BF00BF00BF00BF00BF00BF00BFF1D165
:10B0F000704700000321094802680A4302600848BB
:10B1000002680A4302600748804707480047FEE795
:10B11000FEE7FEE7FEE7FEE7FEE70000240500404D
:10B120005405004051B10100C1B00100064C012599
:10B13000064E05E0E36807CC2B430C3C98471034DF
:10B14000B442F7D3FFF7C0FFCCB20100ECB201006C
:10B1500010B500F05DF8002805D01F491D48486073
:10B16000C8131E4988611E48018CC9B201290BD140
:10B17000828C120708D1028D1206120F042A03D105
:10B18000828D1206120F0AD0012921D1818C090764
:10B190001ED1018D0906090F0A2904D007E0114AC2
:10B1A00001219160F5E7828D1206120F05D00D295D
:10B1B0000ED1808D0006000F0AD10B4801680129CD
:10B1C00004D00A49016001680129FCD1C021416114
:10B1D00010BD0000DFFF07C000050040006C00400C
:10B1E000C00F00F00006004000EC06407593000020
:10B1F00002E008C8121F08C1002AFAD17047704740
:10B20000002001E001C1121F002AFBD1704700009D
:10B210001048018CC9B2012917D1818C090714D1BA
:10B22000018D09060A0F03D1828D1206120F0ED06E
:10B23000090F012903D1828D1206120F07D00329AD
:10B2400003D1808D0006000F01D00020704701203F
:10B2500070470000C00F00F000200321104A0125B4
:10B260002B468340DB011B0F02D083009B18196023
:10B27000401C2028F4D30B4E0B4F00247268395D1C
:10B280002846884001469043B0601140F160FF209D
:10B29000F53000F00BF8641C042CEFDBEDE7000048
:10B2A0000007005000050050C8B2010031B5054C40
:10B2B00004E0401E00902046FFF70CFF0098002895
:10B2C000F7D138BDE703000015161718ECB20100DE
:10B2D000C813002004000000F0B10100F0B201002A
:10B2E000CC1300200408000000B201000024F40088
:040000050001B0C185
:00000001FF
