:020000040000FA
:1000000098570020050500000D0500000F050000B1
:100010001105000013050000150500000000000098
:1000200000000000000000000000000017050000B4
:1000300019050000000000001B0500001D05000060
:100040001F0500001F050000450D00001F050000F2
:100050001F0500001F050000290600001F05000005
:100060001F0500001F0500001F0500001F05000000
:100070001F0500001F0500001F0500001F050000F0
:100080001F050000D50700001F0500001F05000028
:10009000AF0A00001F050000B50A00001F050000A0
:1000A0001F0500001F0500001F0500001F050000C0
:1000B0001F0500001F0500000000000000000000F8
:1000C0001F0500001F0500001F0500001F050000A0
:1000D0001F0500001F0500001F05000000000000B4
:1000E0000000000000000000000000000000000010
:1000F0000000000000000000000000000000000000
:1001000000000000000000000000000000000000EF
:1001100000000000000000000000000000000000DF
:10040000DFF80CD000F0E0F800480047F17C000075
:1004100098570020401E00BF00BF00BF00BF00BFB4
:1004200000BF00BF00BF00BF00BF00BF00BF00BFD4
:1004300000BF00BF00BF00BF00BF00BF00BF00BFC4
:1004400000BF00BF00BF00BF00BF00BF00BF00BFB4
:1004500000BF00BF00BF00BF00BF00BF00BF00BFA4
:1004600000BF00BF00BF00BF00BF00BF00BF00BF94
:1004700000BF00BF00BF00BF00BF00BF00BF00BF84
:1004800000BF00BF00BFC5D170470000401E00BFC5
:1004900000BF00BF00BF00BF00BF00BF00BF00BF64
:1004A00000BF00BF00BF00BF00BF00BF00BF00BF54
:1004B00000BF00BF00BF00BF00BF00BF00BF00BF44
:1004C00000BF00BF00BF00BF00BF00BF00BF00BF34
:1004D00000BF00BF00BF00BF00BF00BF00BF00BF24
:1004E00000BF00BF00BF00BF00BF00BF00BF00BF14
:1004F00000BF00BF00BF00BF00BF00BF00BFC5D12D
:10050000704700000648804706480047FEE7FEE7C0
:10051000FEE7FEE7FEE7FEE7FEE7FEE7FEE7FEE7B3
:10052000D90A00000104000010B5431A934209D211
:100530008318881803E010F8011D03F8011D521EEE
:10054000F9D210BD40EA01039B0703D009E008C9B6
:10055000121F08C0042AFAD203E011F8013B00F888
:10056000013B521EF9D210BDD2B201E000F8012BBE
:10057000491EFBD270470022F6E710B513460A4623
:1005800004461946FFF7F0FF204610BD421C10F844
:10059000011B0029FBD1801A704730B504460020AA
:1005A000034600E05B1C934203D2E05CCD5C401B41
:1005B000F8D030BD034611F8012B00F8012B002ABA
:1005C000F9D1184670470000064C074D06E0E06878
:1005D00040F0010394E8070098471034AC42F6D38A
:1005E000FFF712FFF4A9000014AA000030B58C1820
:1005F00010F8012B12F00F0301D110F8013B120982
:1006000006D110F8012B03E010F8015B01F8015B43
:100610005B1EF9D101E001F8013B521EFBD1A14262
:10062000E6D3002030BD00002DE9FC5F0025DFF897
:100630003491A8464FF4807601242F46304607F0C7
:100640008BFF38B1D9F80403204203D0304607F0BD
:1006500079FF2543361D64007F1CB6B2082FEDD309
:100660004FF4BE74204607F077FF38B1204607F0FC
:1006700069FF3D4845F00045D0F800803B4E15F03D
:10068000FF0F14D0012700242F420CD009EB840166
:10069000D1F81005D1F81015C0F3042056F8242025
:1006A000C1F3014190477F00641C082CECD3002D5E
:1006B00056DA00200190401E4CE0701910F8501FCF
:1006C00090F9000021F0C004401C38D0012000FA4D
:1006D00004FA1AEA090F32D04FEA911B204605F0BE
:1006E00059FF56F82000009010B9BBF1030F26D136
:1006F0005146BBF1030F02D1019808430190A000BD
:1007000000F1A040D0F800071AEA080FC0F301403A
:1007100002D0022802D012E0032810D1BBF1030F4F
:1007200007D102281AD00221204607F0FCFE7F1CC8
:10073000FFB2009818B1009A5946204690476D1CA8
:10074000042DBAD3002F0BD007480068404507D0CE
:1007500080460198002781463D46AEE70321E3E746
:10076000BDE8FC9F00600040100500506428002098
:1007700000F01F02012191404009800000F1E020BB
:10078000C0F88012704700F01F020121914040091B
:10079000800000F1E020C0F80011704700F01F0257
:1007A000012191404009800000F1E020C0F80012D2
:1007B00070474907090E002806DA00F00F0000F123
:1007C000E02080F8141D704700F1E02080F800144C
:1007D0007047000007480021C0F84011C0F84411DC
:1007E000C0F84811C0F84C11C0F80011C0F804114D
:1007F00009F0F0BC001001402DE9F047114F04460C
:10080000DDF8209038781D461646884608B900F075
:10081000A3FA7869A04211D90A4904EB440001EB1C
:10082000C00134B1C1F84880C1E913650020886572
:1008300048650020C1F85C90BDE8F0874FF0FF30BC
:10084000FAE70000A03100202DE9F047114F0446DF
:10085000DDF8209038781D461646884608B900F025
:100860007BFA3869A04211D90A4904EB440001EB34
:10087000C00134B1C1F81880C1E907650020886261
:1008800048620020C1F82C90BDE8F0874FF0FF309F
:10089000FAE70000A031002070B5074B0646144669
:1008A00018780D4608B900F057FA22462946304616
:1008B000BDE8704000F002B8A031002070B50E46CF
:1008C000144900EB400001EBC0051446E86A1835F6
:1008D00020B101280FD0022805D113E0284600F0EE
:1008E0006FFAA04201D2002411E022463146284688
:1008F00000F08CFB0BE0284600F062FAA042F4D234
:100900000446F2E73146284600F053FB04462046F1
:1009100070BD0000A03100202DE9F04198B00646DE
:1009200007A8029040200025CDE90305CDE9055632
:1009300090460C4614F8011B002973D0252908D0D5
:1009400002A800F017FB05980028F3DA18B0BDE8FC
:10095000F08100200122217823291ED02B2919D0D3
:100960002D2902D0302908D102E040F0010001E039
:1009700040F00200641C002AEDD100222178A1F190
:1009800030030A2B0CD202EB820201EB4202303A16
:10099000641CF3E740F00400ECE740F00800E9E7EE
:1009A0000023CFB22E2F0BD114F8011FA1F1300775
:1009B0000A2F05D203EB830301EB4303303BF3E73C
:1009C0006C290DD068290BD0702954D00BDC252957
:1009D00016D0582931D063290CD0642913D114E0E2
:1009E00014F8011BECE7732934D075291BD0782942
:1009F00009D122E0D8F80000011DC8F800100178E4
:100A000002A800F0B7FA641C9DE7D8F800100F1D8B
:100A1000C8F800700968CDE900200A2202A800F099
:100A2000DBF9F0E733E0D8F800100F1DC8F80070CC
:100A30000968CDE900200A2208E0D8F800100F1D4F
:100A4000C8F800700968CDE90020102202A800F063
:100A500027FAD8E7D8F80000011DC8F80010076889
:100A600017F8011B0029CED002A800F083FA0598E0
:100A70000028F5DAC7E7D8F80000011DC8F8001013
:100A800001680820CDE9000503461022DEE705983D
:100A900000287FF75BAF049820B1024607A93046D3
:100AA000FFF7FAFEDDE90410084405904EE709F06F
:100AB0002DBB0000074810B5406830B180470028C2
:100AC00007D0BDE8104000F0DDBCBDE8104006F0E6
:100AD0004BBF10BD2822002070B58D480023021D99
:100AE0000178101D0124062907D115782D0704D19E
:100AF0000578C5F30315032D02D0062904D00FE0B5
:100B0000854E844D75670EE015782D0708D1057860
:100B1000C5F30315032D06D0042D04D0052D02D0F6
:100B2000062909D010E04FF08055D5F844527B4E8D
:100B3000C5F34235356002E015782D0704D10578FC
:100B4000C5F30315032D02D0062906D011E0744D1C
:100B50002E6826F080762E600EE015782D0708D1DD
:100B60000578C5F30315032D06D0042D04D0052DFB
:100B700002D006290AD011E04FF08045C5F80C31AB
:100B8000C5F81031654D2D1F2B6002E015782D073B
:100B900004D10578C5F30315032D02D0062905D02D
:100BA0000CE05E4A0321643211600AE015782D07DB
:100BB00004D10578C5F30315032D02D006290DD005
:100BC0006AE0584A05211160564978310C60554950
:100BD00008310B603F21121D116002E011780907F6
:100BE0005AD10078C0F30310052855D14E4800684B
:100BF0004E4908604C48001D0068091D08604A48BD
:100C000008300068091D086047480C300068091D5D
:100C10000860454810300068091D086042481430DB
:100C20000068091D08604048183000683F492031BD
:100C300008603D481C300068091D08603A482030B3
:100C40000068091D0860384824300068091D0860E4
:100C5000354828300068091D086033482C3000688A
:100C6000091D086030483030006830494031086064
:100C70002D4834300068091D08602B483830006862
:100C8000091D086028483C300068091D0860264896
:100C900040300068091D086021487438016841F43B
:100CA00070010160BFF34F8FBFF36F8F4FF01021C2
:100CB000D1F80002002803DBD1F80402002822DA70
:100CC0001B4A14601B480468002CFCD01524C1F892
:100CD00000420568002DFCD0C1F8044201680029DB
:100CE000FCD0136001680029FCD0BFF34F8F0C4883
:100CF000F0380168104A01F4E06111430160BFF36C
:100D00004F8F00BFFDE70E490C48086070BD000022
:100D1000E00F00F00DF0ADBA00C007403C05004008
:100D2000FCED00E0105600400404001020C5004017
:100D300004E5014000E401400400FA050090D003FE
:100D40003C2200200348007F08B109F0D5BB09F020
:100D50004FBB0000BC28002010B5124C02202061BF
:100D6000606111A0A061A4F58260E0614FF4806031
:100D700020620020A06260620BA1A164E062A4F185
:100D80001001E16410212165A0656065E06509A19D
:100D9000E01DFFF70FFC08A12046FFF70BFC202009
:100DA000A07110BDA03100205465726D696E616C38
:100DB000000000005254540053454747455200007C
:100DC0000269C1688A4203D88068401A104400E072
:100DD000501A401E704700002DE9FC5F0E0081464E
:100DE000DDE90C47C6F1000098469346824600D4E0
:100DF0000846012503E000BF90FBFBF06D1C584541
:100E0000FADAA84500D9454624B1002E01DB78075F
:100E100000D5641EB80702D5B8F1000F0FD0F8074F
:100E20000DD164B1A5420AD220214846641E00F0CB
:100E3000A1F8D9F80C000028F3DABDE8FC9FD9F836
:100E40000C000028F9DB002E02DA56462D2102E0C4
:100E5000780707D52B21484600F08CF8D9F80C000C
:100E60000028EADB07F0030002280FD1B8F1000FD9
:100E70000CD15CB1A54209D230214846641E00F075
:100E800079F8D9F80C000028F3DAD6E7CDE9004765
:100E900043465A463146484600F002F8CDE7000086
:100EA0002DE9F84F8246DDE90A4B01269846914626
:100EB0000D460846374602E0B0FBF9F07F1C484576
:100EC000FAD2B84500D947465FEACB7017D1B4B122
:100ED0005FEA8B7002D5B8F1000F02D0202000909D
:100EE0000BE03020FBE75046641E009900F042F80A
:100EF000DAF80C00002838DB0CB1A742F3D3DAF89B
:100F00000C00002831DB00BFB8F1010F02D9A8F1B5
:100F1000010803E0B5FBF6F0484502D306FB09F6ED
:100F2000F2E7DFF84C8000BFB5FBF6F000FB16558A
:100F300018F80010504600F01DF8DAF80C000028F0
:100F400003DBB6FBF9F6002EEED15FEACB700CD0D6
:100F5000002C0AD0A74208D220215046641E00F07F
:100F600009F8DAF80C000028F2DABDE8F88F000082
:100F7000C0A9000010B50446D4E90130421C9342D8
:100F800005D323681954A260E068401CE060D4E9EE
:100F90000102824209D121682069FFF77DFCA16826
:100FA000884203D04FF0FF30E06010BD0020A06009
:100FB00010BD2DE9F047C4681746894606464FF034
:100FC00000083069A04201D9051B02E0B168201A6F
:100FD0000D1AB0686D1E001BA84200D80546BD4220
:100FE00000D33D4670682A4620444946FFF79CFAE4
:100FF000B0687F1B2C44A844A944A04200D100241F
:10100000F460002FDDD14046BDE8F0872DE9F041C6
:10101000C6680446174688468068851B6068BD42DE
:1010200006D93044FFF780FAF019E060BDE8F0819E
:101030002A463044FFF778FA7E1B08EB050132465A
:101040006068FFF771FAE660F0E702E008C8121F77
:1010500008C1002AFAD170477047002001E001C1A1
:10106000121F002AFBD170472DE9FC5F002516886E
:1010700007461580406B14468846AB464FF00C0976
:1010800011234FF0020A98B101784046032E47D34E
:1010900080F800A02288521C92B2228083542288B9
:1010A000521C92B2228008F802102088401C208036
:1010B0003A6BDAB12088414600F11205B5422FD8CB
:1010C0000B5420881023401C80B220800B542088B1
:1010D000401C20800F202388155C401ECD5423889F
:1010E00040B25B1C23800028F5DA5D4697F82E009D
:1010F00030B133462246414606F084FC050010D14B
:1011000097F82D0030B132462146404601F034F8C0
:10111000050006D1B87820B32088001DB04202D95E
:101120004846BDE8FC9F684607F0CAFE0028F8D193
:101130002288032008F8020020881922401C80B26F
:10114000208008F800202088401C80B2208000EB1E
:101150000801BDF8000009F047FA0146208808445C
:101160002080F878B8B1228897F90310D31C404644
:10117000B342D5D800F802A022880123521C92B2B3
:10118000228083542288521C92B2228008F80210D6
:101190002088401C20807868B8B1218890F9002010
:1011A000CB1C4046B342BBD800F801A021880A23DB
:1011B000491C89B2218043542188491C89B221806D
:1011C00008F801202088401C2080388950B1CDE9E2
:1011D000004643460622022107F1080009F010FBF1
:1011E00005009ED1388A50B1CDE90046434607221A
:1011F000032107F1100009F003FB050091D1388BA2
:1012000050B1CDE9004643461522142107F11800DC
:1012100009F0F6FA050084D1386A30B13346224627
:10122000414605F0B2FA0500DBD1786A30B13346A9
:101230002246414606F0E0FD0500D2D197F82C0089
:1012400038B1334622464146384608F063FD050072
:10125000C7D1387838B1334622464146384606F081
:10126000FDFD0500BDD128465BE710B50122022136
:10127000002004F047FF08B1072810D107220221FF
:10128000012004F03FFF08B1072808D100210A22FD
:10129000084604F037FF08B1072800D1002010BD30
:1012A000064800684FF40021044A8143121D116072
:1012B000111D00F400200860704700000405005074
:1012C00070B5044604200C4B002200BF02EBC2059F
:1012D00003EB8505AD781DB1521C022AF6D370BD13
:1012E00002EBC20003EB80060125B57023F8204015
:1012F00000200A6070BD000018320020034610B5BF
:1013000005200A4A002100BF01EBC10432F8244045
:101310009C4206D101EBC10102EB810100208870E3
:1013200010BD491C0229EFD310BD00001832002067
:1013300070B5044605200A4B002200BF02EBC2052F
:1013400033F82560A64204D103EB8505AD78012D65
:1013500003D0521C022AF1D370BD00200A6070BD78
:1013600018320020034610B505200A4A002100BFAC
:1013700001EB410432F824409C4206D101EB4101CB
:1013800002EB81010020887010BD491C0829EFD3B1
:1013900010BD00006032002070B5044605200A4BE5
:1013A000002200BF02EB420533F82560A64204D1BB
:1013B00003EB8505AD78012D03D0521C082AF1D32B
:1013C00070BD00200A6070BD6032002070B500243E
:1013D000064D06E06868012110F8340006F0BCFDF7
:1013E000641C28788442F5D3002070BD8021002041
:1013F000F8B515460C460646052A01D20720F8BD69
:1014000006F08CFE18B906F05FFE0028F7D11049EF
:1014100000204E600C70C1E902500E4D08610DE0D5
:1014200006EBC4006968009181788DF8011000789E
:10143000094A694606F0E2FD0028E0D1641EE4B2E4
:10144000EED2BDE8F840054A0021024800F0A8B8F5
:1014500080210020B8A9000051770000E168000059
:10146000BFF34F8F05480168054A01F4E06111435D
:101470000160BFF34F8F00BFFDE700000CED00E0FF
:101480000400FA050EB500210091CDE901106A466D
:1014900044F20100FFF7E4FF0EBD0000014B1B68A2
:1014A000184700004028002042680021117042685F
:1014B0005170426891704068C1700846704708B525
:1014C0006A4600F004F808BD028900F027B82DE94B
:1014D000F047D0E900740025068990F80A8091460B
:1014E0008A46284600F072F9A078A8B12078361D07
:1014F00000FB06764146204605F0E6F93088311DAE
:1015000082B2A9F800205046FFF70EF8002000F044
:101510005FF92846BDE8F0870425F7E72DE9F04795
:10152000D0E90084857A078991468A46002000F038
:101530004DF9A078A84209D1E07828B12946204683
:1015400005F0C2F9042602E0042613E000266178C3
:101550003F1D01FB0780A278491C521CC9B2A27032
:10156000A94200D10021617040F8049B4A465146CF
:10157000FEF7DAFF002000F02BF93046BDE8F087D7
:10158000F8B5064E0468154606EB0414069A24685E
:1015900000930B462946A047F8BD0000DC28002038
:1015A000074B9B6823B12AB120B10068037C1BB1B3
:1015B000082070470720704741744261002070473F
:1015C000942100202DE9F0478046994614460F46A5
:1015D00090074FF0000634D11C4D8CB307F06AFB26
:1015E0000320C5F81490287004F11800002107EBBF
:1015F0004703AC6004EBC102491C1670567097702B
:10160000506000EBC3000329F4DBEE606E70AE7037
:101610001420FFF7ADF806211420FFF7CAF81420B4
:10162000FFF7B1F80A49C1F8008006211120FFF741
:10163000C0F80748001F006828610020BDE8F08757
:1016400001E00720FAE7AE60FBE7000094210020EC
:10165000081501402DE9F843DFF870900D46174654
:10166000D9F80810044651B34CB3052D02D2072017
:10167000BDE8F883606910B3607C012821D00026A2
:1016800009F07CF8D9F80810804601EBC8006946DB
:1016900009F093F8B8B1012100F8041B0C4910C0FF
:1016A000096880E8E200D9F8081001EBC8009DF84D
:1016B000001041701420FFF771F80020D8E70820CF
:1016C000D6E72E46DCE70420D2E700009421002074
:1016D00004150140F8B5124E0446B168E1B1DCB121
:1016E0006069C8B10027277409F048F80546B0685A
:1016F000694600EBC50009F060F878B1022101707D
:101700004460B0689DF8001000EBC50041701420E3
:10171000FFF744F83846F8BD0820F8BD0420F8BDAE
:101720009421002070B588B0154604461E4620223C
:101730001A496846FEF7F8FEA0680690207900B1C5
:1017400001208DF814008DF81C60607900B10E2026
:101750008DF81500E0780290A07803902078019031
:10176000607800900E480021456081702079022841
:1017700009D00C49684606F0DBFC002804D19DF82E
:101780001D0018B104E0062008B070BD06F060FD31
:1017900003480121401C06F015FDF5E778A900007B
:1017A0006821002099A30000074910B508700121A5
:1017B000054806F0F3FD112803D0002800D00320CF
:1017C00010BD042010BD00006821002000F002B808
:1017D00000F008B872B602480168491C0160704701
:1017E000B421002003490868401E086000D162B699
:1017F00070470000B421002010B5144C00224FF4B3
:1018000080312068FFF726FF08B1FFF73BFE00227A
:101810004FF400416068FFF71DFF08B1FFF732FE8B
:10182000002242F26661A068FFF714FF08B1FFF7DB
:1018300029FE00224FF42031E068FFF70BFF00285B
:1018400003D0BDE81040FFF71DBE10BDF0A800009A
:101850002DE9F04104460078184F012606FA00F001
:101860003860206806F055FE0021606806F048FEEA
:101870001348144D007FA069C5F82405607D217DC3
:101880000843C5F86C05D4E90001C5F80C05C5F896
:101890001415207D01280FD10021A06806F030FE2C
:1018A000207B86403E60E06806F033FED4E902010A
:1018B000C5F80815C5F81005BDE8F0810805005009
:1018C000BC280020002000402DE9F0430546007DA3
:1018D00093B00E460024A0B107949DF81C0020F0A0
:1018E0000F00401C20F0F00010308DF81C00707BC1
:1018F0008DF81D009DF81E0020F00600801C8DF85C
:101900001E001C216846FEF736FE9DF8000040F0E0
:1019100002008DF80000297D11B140F0100001E0B7
:1019200020F010008DF80000019403940494287DA9
:1019300000B107A8CDE9050401278DF8427042F6F1
:101940001920ADF840000D94B07B8DF83400F07B89
:101950008DF835009DF83600142120F00600801C1B
:1019600020F019008DF83600307B8DF8440008A86F
:10197000FEF701FE0DF140080DF13409ADF82870B5
:1019800011A8CDE90889ADF82A40ADF82C700C906B
:10199000A888AB1D08AA694607F0F4FB002839D1D6
:1019A000B068A0B38DF8427042F60810ADF8400060
:1019B0000D94307C8DF834009DF8350020F0FF0048
:1019C0008DF835009DF8360020F00600801C20F0D0
:1019D00019008DF836000EA8B16804F04DF90646DE
:1019E000142108A8FEF7C7FDADF828600EA8CDE9C0
:1019F0000889ADF82A40ADF82C600C90E88805F114
:101A00000E0208A907F0EAFB002803D101E0FFE776
:101A1000EC81002013B0BDE8F083000010B50D4943
:101A20000D4807F00EFEC1B20A48683800F054FABB
:101A300000280DD008280BD0A0F54051043907D05C
:101A400043F20141884203D0BDE81040FFF71ABDC0
:101A500010BD0000382500208C200020F0B50C4679
:101A600093B01F210726ADF80010ADF80410002731
:101A700050B1C17849070DD56A4602A9FFF7F4FABB
:101A8000002808D102AD02E00025ADF800706CB16D
:101A9000E07810B1304613B0F0BD01AA0AA9204683
:101AA000FFF7E2FA0028F6D10AAA02E00022ADF818
:101AB0000470BDF80400C3B2BDF80000C1B22846EE
:101AC00007F0A0F9E7E7000070B50D460499164647
:101AD000040040D0F6B3414800224271C0E903310E
:101AE000242231463E48FEF71FFD00F0D5F83C4960
:101AF0003431A1F1100001602031816038215C385F
:101B0000FEF739FD3648217838380170A1788170A8
:101B1000E178C17061784170D4E90412C0E904121F
:101B2000D4E90212C0E90212D4E90612C0E9061291
:101B3000616AD1B100F1AC0100F1B80241628A6082
:101B4000636A1B880B80616A436A898899800021D7
:101B5000436A07E0FFE70E2070BD666AB668765CF0
:101B60005654491C9E888E42F7D8A16AD9B11C4AA6
:101B7000AC32A2F10C018A608162A36A9B888B80DF
:101B8000A16A836A098819800021836A04E0A66A31
:101B9000B668765C5654491C9E888E42F7D894F8F5
:101BA0002C1080F82C10216A49B10C4914310162C3
:101BB000226A52884A80216A026A09881180616813
:101BC00021B10649891D4160616841602946BDE82F
:101BD000704003483838FFF741BF0000D020002094
:101BE0000C26002010B502881D4C102A18D00021A8
:101BF000112A1BD01B2A18D1007A002815D1607930
:101C0000012820D0022824D0032824D004280CD175
:101C10002171E2680846002A07D0BDE8104010474D
:101C2000817D012901D18088208110BD617080886B
:101C300021898842F9D1012006E021690029F4D0E8
:101C4000BDE810400847022000F056F80028F4D103
:101C500010BD0320F8E7032020710420F4E7000002
:101C6000D020002010B5022801D0032810D1094C43
:101C7000207800280CD000202070607900F03CF81B
:101C8000002805D02169002902D0BDE8104008478E
:101C900010BD0000D0200020024800218161818316
:101CA00081777047D0200020114810B500780128B6
:101CB0001CD1104C6078C8B9607918B107F0E6F80B
:101CC000002814D10A490120607038390620C870F4
:101CD000074800213838FFF7C1FE002807D1607996
:101CE00000F00AF810B1216901B18847002010BD49
:101CF0000C260020D02000202DE9F04F744C87B036
:101D00000026607106A8069606F094FD01270828B3
:101D100001D030B903E006A805F0E0FA18B906983A
:101D200008B12770C1E0FFF7B7FF6A4DDFF8A08167
:101D30004FF0020A687808F118084FF0030B10B151
:101D40006079012806D0A87858B16079012801D0BF
:101D500002281FD1E16819B1E7700820884700E028
:101D6000E6706079012806D1687840B108F1010079
:101D700006F02FFC18B16079022802D00AE084F83E
:101D800005A0A87820B108F1010006F022FC08B9EE
:101D900084F805B0287B4FF0040920B96079032846
:101DA00001D184F80590287E20B96079042801D1FA
:101DB00066712671E16841B16079032801D0042879
:101DC00003D1287808B16078C0B1A67018216846A0
:101DD000FEF7D1FB8DF8006001968DF80860039640
:101DE000607901280ED0022816D03A4E2436A6F18A
:101DF0005C0703281DD004284CD13AE0A7700720C7
:101E00008847E3E7ADF81260CDF804808DF80070E4
:101E1000ADF8106027713FE0CDF804808DF80070B8
:101E20002889ADF81200A888ADF8100084F804A045
:101E300032E0A88AADF81200288AADF810002548D3
:101E4000243008F04EFD18B1287808B1607810B140
:101E500084F804B01EE01F488DF808A0039687F8A8
:101E6000039000213838FFF7F9FD00281ED1052026
:101E70002CE0A88BADF81000288CADF812001548A6
:101E8000243008F02EFD18B1287808B1607880B1B0
:101E900084F80490607920B1684606F0DBFF0028E2
:101EA00004D1E16809B120798847002007B0BDE876
:101EB000F08F08488DF808A0039687F8039000215A
:101EC0003838FFF7CBFD0028F0D106202071E1E77C
:101ED000D02000200C26002073B586B0040036D038
:101EE000217C9DF81C20002091422ED00025012647
:101EF0000095ADF8006007A8ADF802500190E188A8
:101F0000608A6A4607F052FA00281ED19DF81C002C
:101F10002074608AA0F57F41FF391AD0207DC0B1BE
:101F20000295039504950595E088ADF80800BDF885
:101F30000200ADF80C0001988DF80A60CDF810D0C1
:101F40000590608A02A907F06FF908B070BD0E20F5
:101F5000FBE70820F9E738B50D4604001CD0DDB1D9
:101F6000286820604FF6FF70608228792075FF2076
:101F7000207401208DF8020041F60F00ADF800003A
:101F8000221D6946012007F075F9002803D1294672
:101F90002046FFF799FC38BD0E2038BD08B5002853
:101FA00021D000291FD00A88102A17D0112A17D053
:101FB000502A18D1027D002A15D031F8062F438906
:101FC0009A4210D14A89022A0DD10268002A0AD009
:101FD000097B11F0010F07D0002106E0898801E09C
:101FE0004FF6FF71418208BD01218DF8001069464E
:101FF000904708BDF8B51D4617460E000FD075B1C5
:1020000068B1044608F013FB002807D1054800908A
:102010002B463A463146606804F09AFBF8BD0E2024
:10202000F8BD0000692000002DE9F0411D4617466B
:102030000E0016D0ADB1A0B1044608F040FB002858
:1020400010D12B463A463146601C08F038FB002878
:1020500008D12B463A463146A01CBDE8F04108F0B5
:102060002EBB0E20BDE8F0812DE9F0411D4617463C
:102070000E000ED06DB160B10446FFF7D5FF002809
:1020800008D12B463A463146E01CBDE8F041FFF747
:10209000CBBF0E20BDE8F08170B5054601461C227D
:1020A0001048FEF741FA104C00262670286838B117
:1020B000016861604068A060201D06F0DFFF03E05A
:1020C0000948001D06F0BAFF00280AD14FF6FF703C
:1020D00060806670BDE87040044A00210448FFF744
:1020E0005FBA70BDF8260020F020002019A700007C
:1020F00040A9000070B51E4C068800251B49E289E6
:10210000102E15D01B4B112E1CD0122E29D0502E64
:1021100017D130F8061F914213D14189022910D1FD
:10212000007B10F0010F11D0BDE8704004F074BBCB
:1021300083884B808369CB60C06908614D70002A39
:10214000F2D070BD4FF6FF7048804D701868FFF7F1
:10215000C1FA0028F5D0A1690029F2D0BDE870408D
:1021600008478268CA60C0680861DDE7F020002087
:10217000F826002040A900007CB5054608880C46DA
:102180000930904201D90C207CBD684606F01AFE49
:102190000028F9D121880820685420881B21401C80
:1021A00080B2208029542088401C80B2208028449E
:1021B000DDF801100160BDF8051081802088801DC8
:1021C00080B220809DF8001001B10121295420889F
:1021D000401C208000207CBD7FB5044601208DF886
:1021E000060041F60A00ADF80400464A01A90120A4
:1021F00007F040F800287CD1228804F13C0552B158
:1022000040482B46801C009042F62920616804F06B
:10221000C9F9002873D1228952B13A482B460A30B5
:10222000009042F62420E16804F0BCF9002866D151
:10223000228A52B133482B461230009042F62520B4
:10224000616904F0AFF9002859D1228B52B12D48B1
:102250002B461A30009042F62720E16904F0A2F9DB
:1022600000284CD1228C52B126482B4622300090B7
:1022700042F62620616A04F095F900283FD1228DAC
:1022800052B120482B462A30009042F62820E16ABD
:1022900004F088F9002832D1216B71B102A807F04F
:1022A00014FF18482B4632300090082202A942F64B
:1022B000232004F077F9002821D1606B58B111492F
:1022C0002B463A3100910279016842F62A2004F047
:1022D00069F9002813D1A16B81B102A806F082FA36
:1022E00008482B4642300090072202A942F65020AF
:1022F00000E004E004F056F9002800D1002004B00A
:1023000070BD0000042100202DE9F0411D46174654
:102310000E0018D0BDB1B0B10446FFF76BFE002827
:1023200012D12B463A46314604F1080000F01FFD59
:10233000002809D12B463A46314604F10C00BDE88D
:10234000F04102F047BE0E20BDE8F0811CB51446F6
:102350000022019229B124B12268022A03D2092065
:102360001CBD0E201CBD60220A7001220192054A8C
:10237000009201AB226804F0EBF90028F2D1019938
:1023800021601CBD092300001346602207F0B6B986
:102390002DE9F0411C46164660B15CB1022906D316
:1023A00030F8025B891E4EB12268042A04D209204B
:1023B000BDE8F0810E20FBE7121F22600027202DD0
:1023C00073D012DC31D2DFE805F03034393E3030E2
:1023D000303030303030303030305C614D767143E9
:1023E00086488B7B57666BE98052392D72D00ADCA8
:1023F000A5F13002092A18D2DFE802F08EAA7C8902
:10240000AF8193A5A000532D6FD008DC3A2D6DD07D
:10241000502D6CD0512D6BD0522D06D1B2E0542DE1
:1024200067D0552D70D0702D6FD00520002E6DD146
:10243000C1E02346324600F0F5F8B7E023463246C5
:1024400000F07EF9B2E02346324600F01DF9ADE01F
:102450002346324601F042F8A8E02346324600F017
:1024600084FDA3E02346324600F048FE9EE023466A
:10247000324600F08AFE99E02346324600F0CCFE58
:1024800094E02346324600F007FF8FE023463246B1
:1024900000F06AFF8AE02346324601F0B8F985E091
:1024A0002346324601F059F880E07CE0234632466C
:1024B00001F0C1F87AE02346324601F017F975E0E1
:1024C0002346324600F084FD70E02346324601F098
:1024D00045F96BE02AE02346324600F077FF65E0DD
:1024E0002346324600F0A4FF60E047E022E039E0F6
:1024F0004CE03FE02346324601F0BAFE56E0234668
:10250000324601F077FF51E030E043E050E02346EF
:10251000324602F082F849E02346324602F056F98C
:1025200044E02346324602F0D2F93FE0324602F060
:10253000EDF83BE0324602F08FFA37E023463246B0
:1025400002F0BCFA32E02346324602F00BF82DE0EE
:102550002346324602F01AFA28E02346324601F0BA
:10256000F1FD23E0324602F0DFFE1FE0324602F0CA
:10257000AAFE1BE0324602F050FE17E0324602F09F
:1025800042FD13E0324602F06DFE0FE0324602F0EB
:10259000A3FD0BE0324603F0D7FA07E023463246AC
:1025A00000F085FC02E0324601F009F81EB130B1BE
:1025B0003780002171802168091D2160F8E635808F
:1025C000218889B2F6E7000070B5044604F090FA5D
:1025D0002146124803F075FA104821461838FFF7D3
:1025E000DDFC2046FFF786FD204603F0C1FC208875
:1025F0000B4D102802D011280BD107E0072003F063
:10260000A3FD08B1FEF73EFFA08801E04FF6FF7082
:10261000A8802046BDE87040FFF7E4BAE824002017
:10262000802000202DE9F8435FEA00084FF0000009
:1026300014461D460F4600900AD04DB1032F1ED3FD
:1026400003263CB12868032806D20C20BDE8F88395
:102650000E20FBE71E6015E0012020800320608033
:10266000231D6A46404607F0B3FF04F108036A469B
:102670003946404608F00BF80098B84201D00920CE
:10268000E4E72E600020E1E72DE9FC4714465FEA0D
:1026900000081E468A463AD0BEB34FF00009102704
:1026A000CDF8009094B3032020801020608004F1C6
:1026B0000805231D6A46404607F0AAFF002822D1DC
:1026C0002B466A465146404607F0ECFF00281AD1D7
:1026D00005F108036A465146404607F099FF002875
:1026E00011D1009818F80010401C0090012913D057
:1026F000C5F80490A088FEF735FE002803D1009AA3
:10270000524518D00920BDE8FC8700E001E00E200A
:10271000F9E700201F60F6E7A08801A9FEF73CFE5C
:102720000028F0D10198054900EB400001EB800042
:1027300040686860DEE73760E5E70000603200204F
:102740002DE9F843144607001D4688461ED0EDB11A
:10275000002005260090DCB102202080052060804A
:10276000231D6A46384607F053FF00280CD104F1B8
:1027700008036A464146384607F094FF002803D113
:10278000009A424507D00920BDE8F8830E20FBE7F8
:1027900000201E60F8E72E60F6E700002DE9F0410A
:1027A00016460F460546002408E000BF57F82410DF
:1027B000284604F071FD641CA4B22D1DB442F5D36B
:1027C0000020BDE8F08110B54FF08051096989B251
:1027D000484304F049FD002010BD10B51468091BE2
:1027E000072901D2092010BD015D19701168491C2B
:1027F000084411600168C3F801108088A3F805003F
:102800001068801D1060002010BD10B51C68121BE0
:10281000072A01D2092010BD02780A551A68521CF5
:1028200011441A60D0F801200A60B0F805008880D1
:102830001868801D1860002010BD29B122B11368EE
:10284000022B03D2092070470E20704771230B70B2
:1028500000B10120487002201060002070472DE96F
:10286000FC411F46154606000C4627D037B3002012
:10287000CDE900700A46712301A9304606F051FFE8
:10288000002819D1386818B10198A04213D117E077
:10289000019BD81DA0420ED885B1F05C28705B1C4E
:1028A000F0189B1D0168C5F801108088A5F8050087
:1028B0000193A34204D00920BDE8FC810E20FBE770
:1028C0000020F9E738B581B17BB10078C0F340054D
:1028D000044665F35F04C0F3800044EA80008DF88D
:1028E0000000684607F0EBFE38BD0E2038BD2DE92C
:1028F000FE4F1F46DDE90C5490468946824625B3BB
:102900001CB30020019072208DF8080001AB29460D
:1029100002A8226807F0D3FE002814D101AE009669
:102920002A4649465046236805F0D0F800280AD1C7
:1029300000962A4639464046236805F0C7F8002825
:1029400001D101992160BDE8FE8F0E20FBE71346FF
:10295000722206F0D3BE00002DE9FC4104464FF080
:10296000000015460E00019007D035B12F680221F6
:10297000022F04D20920BDE8FC810E20FBE7732260
:10298000327001220192002C00D001E04FF00002D1
:102990007270019140D001AB3A463146204607F0B3
:1029A0008EFE0028E7D11D48009001AB3A46314623
:1029B000606803F0CDFE0028DDD101AB3A46314618
:1029C00004F1080007F07BFE0028D4D114480090E1
:1029D00001AB3A463146E06803F0BAFE0028CAD19E
:1029E00001AB3A46314604F1100007F020FE002802
:1029F000C1D101AB3A46314604F1120007F017FE8F
:102A00000028B8D101AB3A46314604F11400FFF773
:102A100059FF0028AFD101992960ACE70B280000CD
:102A2000394000001346732206F068BE1CB50C4600
:102A300080B17CB174218DF80410002122680091CE
:102A400001466B4601A807F03AFE002801D1009923
:102A500021601CBD0E201CBD1346742206F04EBE24
:102A600029B122B11368022B03D2092070470E202E
:102A7000704779230B7000B101204870022010606C
:102A8000002070472DE9FC411D46174606000C4604
:102A900011D085B10020CDE900500A46792301A963
:102AA000304606F03EFE002806D1286830B1019875
:102AB000A0420ED10FE00E20BDE8FC810198801CE1
:102AC000A04206D83B4601AA2146304607F080FDC9
:102AD000EDE70920F0E70020EEE729B122B1136805
:102AE000032B03D2092070470E20704778230B7008
:102AF0004870000A88700320106000207047134659
:102B0000782206F0FBBD2DE9F0411F4615000E4668
:102B10000ED06FB13968042919D375212970691C49
:102B200007F067FD401C002E06D04FF0010105E0C4
:102B30004FF00E00BDE8F0814FF00001295400F184
:102B400001041AD0396804F10900814201D2092038
:102B5000F0E72919308807F04CFD044429197088E2
:102B600007F047FD04442919B08807F042FD0444EA
:102B70002919F08807F03DFD044400203C60D9E7A6
:102B80001346752206F0BABD2DE9F04107461068DC
:102B90000E46801C15461C46B0421AD8384607F02F
:102BA00017FD2868801CB04213D8A31C2A46314662
:102BB000384607F00DFD2868801CB04209D8231D57
:102BC0002A463146384607F003FD2868801CB0428B
:102BD00002D90920BDE8F081A31D2A4631463846B6
:102BE00007F0F6FC0020F5E738B5047804F00F0094
:102BF00024F00F0404438DF80040684607F05FFDA1
:102C000038BD30B552B14BB11C68022C1BD37D24AA
:102C10001470002905D04FF0010404E04FF00E00BD
:102C200030BD4FF0000454704FF0020407D01C6810
:102C3000042C08D30C889470240AD47004241D68D2
:102C4000611C8D4201D2092030BD00B10120105518
:102C5000641C00201C6030BDFFB583B01E460C9D77
:102C60000C46070022D00DB30020CDE900500A46E3
:102C70007D2301A9384606F054FD002805D12868B7
:102C800028B10198A0420FD1002007B0F0BD6EB16D
:102C900005AB01AA21463846009604F0E7FE00285D
:102CA000F3D10199A142F0D00920EEE70E20ECE724
:102CB00070B5049D53B14DB12C68022C32D37C24E5
:102CC0001C70002805D04FF0010404E04FF00E0006
:102CD00070BD4FF000045C704FF0020405D02C680A
:102CE000032C1FD30078987003241F2A01D90720D2
:102CF00070BD2E68E01C864214D31819160A0270A3
:102D0000A41C4670002902D04FF0010001E04FF0F2
:102D10000000185504F101040AD0286804EB0206EB
:102D2000864201D9092070BD1819FDF7FDFB344614
:102D300000202C6070BD13467C2206F0DFBC10B56D
:102D40002AB123B11C68042C03D2092010BD0E2027
:102D500010BD762414705070000A9070D170042059
:102D60001860002010BD1346762206F0C7BC2DE97E
:102D7000F0411D4617460E0015D0A5B1044607F0D8
:102D80009EFC002810D12B463A463146601C07F0C5
:102D900096FC002808D12B463A463146A01CBDE8D7
:102DA000F04107F08CBC0E20BDE8F0812DE9F04128
:102DB000064610680F46091A14461D46102909D305
:102DC000811910221846FDF7AFFB206810302060F3
:102DD000B84202D10920BDE8F081315C287C61F362
:102DE000000028742168715C490861F3410028746F
:102DF0002168715C890861F3870028742068401C91
:102E000020600020E7E72DE9F041054618680E46EE
:102E10000027111A1C46112902D20920BDE8F081B1
:102E2000304410222946FDF77FFB216810312160D4
:102E3000287CC0F34003024663F35F0220F00300E6
:102E4000104370542068401C20603846E6E72DE9A6
:102E5000F04115460F4606000ED06DB11C46FFF737
:102E6000A5FF002809D104F112032A46394630464D
:102E7000BDE8F04100F07BBD0E20BDE8F0812DE9FA
:102E8000F0411D4617460E000ED06DB10446FFF707
:102E9000BAFF002809D12B463A46314604F1120008
:102EA000BDE8F04100F07EBD0E20BDE8F0812DE9C7
:102EB000FE435FEA00084FF0000014461D460F462F
:102EC00001900AD04DB10B2F4BD32C263CB1286872
:102ED0002C2807D20C20BDE8FE830E20FBE7002043
:102EE0001E60F8E71D2020802C206080231D01AA91
:102EF000404607F08DFB0028EDD104F1080301AA3C
:102F000039464046FFF769FC0028E4D104F10F037D
:102F100001AA3946404607F0C5FB0028DBD102ABC9
:102F200001AA3946404607F0BDFB0028D3D19DF8E1
:102F30000810207C4A0861F3000062F34200C908CF
:102F400061F3C7002074C008009004F1110301AAC6
:102F50003946404607F0C0FB0028BCD10199B94270
:102F600001D00920B7E72E60B5E72DE9F8435FEA05
:102F700000084FF0000014461D460F4600900AD08E
:102F80004DB1032F1ED303263CB12868032806D277
:102F90000C20BDE8F8830E20FBE71E6015E017202B
:102FA000208003206080231D6A46404607F010FB06
:102FB00004F108036A463946404607F068FB00986A
:102FC000B84201D00920E4E72E600020E1E70000CC
:102FD0002DE9FC415FEA00084FF0000014461D4651
:102FE0000F4600903CD0CDB3082F34D32C26B4B379
:102FF000192020802C206080231D6A46404607F05F
:1030000007FB002828D104F108036A4639464046E8
:1030100000F030F800281FD1617A49071CD5A0883C
:1030200001A9FEF785F9002816D10198104900EB97
:10303000C00001EB80036A46394640461B1D00F084
:1030400081FE002808D1A088FEF758F9002803D196
:103050000099B94209D00920BDE8FC8100E001E0F7
:103060000E20F9E700201E60F6E72E60F4E700006E
:1030700018320020F8B5074610681546081A0E46A3
:103080001C46062801D20920F8BDA4B3384607F033
:1030900009FB0028F8D16B462A463146384607F02E
:1030A00001FB0028F0D19DF800106078A31C61F3AB
:1030B0000100890861F3820060702A463146384673
:1030C00000F070FE0028DFD1E31C2A463146384666
:1030D00000F068FE0028D7D1231D2A463146384625
:1030E00000F07AFD0028CFD1631D2A4631463846CC
:1030F00000F072FDF8BDFFE70E20FBE72DE9F84375
:103100005FEA00084FF0000014461D460F4600908D
:103110000AD04DB1042F33D30C263CB128680C28BB
:1031200006D20C20BDE8F8830E20FBE71E602AE0E3
:10313000122020800C206080231D6A46404607F044
:1031400047FA04F108036A463946404607F040FA58
:1031500004F10A036A463946404607F039FA04F199
:103160000C036A463946404607F032FA04F10E0372
:103170006A463946404607F02BFA0098B84201D01B
:103180000920CFE72E600020CCE72DE9F8435FEA65
:1031900000084FF0000014461D460F4600900AD06C
:1031A0004DB1042F33D30C263CB128680C2806D22D
:1031B0000C20BDE8F8830E20FBE71E602AE01F20EC
:1031C00020800C206080231D6A46404607F000FAEC
:1031D00004F108036A463946404607F0F9F904F15C
:1031E0000A036A463946404607F0F2F904F10C0337
:1031F0006A463946404607F0EBF904F10E036A4689
:103200003946404607F0E4F90098B84201D0092059
:10321000CFE72E600020CCE72DE9F84306004FF001
:103220000000144688461D4600900BD055B1B8F1F9
:10323000040F2CD306273CB12868062806D20C20A0
:10324000BDE8F8830E20FBE71F6023E01A202080F2
:1032500006206080231D6A464146304607F0B8F9D3
:103260000098217A04F10903325C62F303012172B0
:10327000325C401C120962F30711217200906A4609
:103280004146304607F003FA0099414501D0092034
:10329000D6E72F600020D3E72DE9F84307004FF071
:1032A000000014461D468846009008D03DB11A26FD
:1032B0003CB128681A2807D20C20BDE8F8830E20FC
:1032C000FBE700201E60F8E71A206080231D6A4695
:1032D000384607F09DF90028EFD104F108036A464B
:1032E0004146384600F009F80028E6D1009A4245E8
:1032F00001D00920E1E72E60DFE7F8B5074600209E
:103300008DF8000015460E461C463846FFF765FA54
:10331000002828D1E31D2A4631463846FFF75DFADA
:10332000002820D104F10E032A463146384607F022
:10333000B9F9002817D16B462A463146384607F0BE
:10334000B1F900280FD19DF80010E07B04F11003C3
:1033500061F30000490861F34700E0732A463146F3
:103360003846FFF711FCF8BD2DE9F8435FEA000885
:103370004FF0000014461D460F4600900AD04DB194
:10338000032F1ED303263CB12868032806D20C2045
:10339000BDE8F8830E20FBE71E6015E011202080B9
:1033A00003206080231D6A46404607F011F904F1AE
:1033B00008036A463946404607F069F90098B84262
:1033C00001D00920E4E72E600020E1E72DE9F84371
:1033D00007004FF0000014461D468846009008D0B4
:1033E0003DB105263CB12868052807D20C20BDE870
:1033F000F8830E20FBE700201E60F8E705206080C0
:10340000231D6A46384607F003F90028EFD104F17E
:1034100008036A464146384607F044F90028E6D1D9
:10342000009A424501D00920E1E72E60DFE7000065
:103430002DE9FF415FEA00084FF0000014461D46E9
:103440000F4601900BD055B1042F3FD3062644B14F
:103450002868062808D20C2004B0BDE8F0810E20B0
:10346000FAE700201E60F7E706206080231D01AA0E
:10347000404607F0CDF80028EED1A08802A9FDF75C
:1034800057FF0028E8D10298124900EBC00001EB79
:10349000800004F10803006AA0600F48009001AAB0
:1034A0003946404603F026F90028D5D103AB01AADE
:1034B0003946404607F0F6F80028CDD19DF80C10AB
:1034C00001F0010121730199B94201D00920C3E73C
:1034D0002E60C1E718320020233900002DE9FC419D
:1034E00007004FF0000014461D468846009008D0A3
:1034F0003DB10B263CB128680B2806D20C20BDE854
:10350000FC810E20FBE71E6025E0152020800B20AB
:103510006080231D6A46384607F07AF80028EED10D
:10352000009801AB3918801D0A68A2608988A181C2
:1035300000906A464146384607F0B4F80028DED1CC
:103540009DF8040000F00100A0730099414501D0EE
:103550000920D4E72E600020D1E72DE9F8435FEA87
:1035600000084FF0000014461D460F4600900AD098
:103570004DB1032F1ED303263CB12868032806D281
:103580000C20BDE8F8830E20FBE71E6015E01C2030
:10359000208003206080231D6A46404607F018F80B
:1035A00004F108036A463946404604F0D2F900980F
:1035B000B84201D00920E4E72E600020E1E72DE9C0
:1035C000F84307004FF0000014461D46884600905F
:1035D00008D03DB10C263CB128680C2807D20C203D
:1035E000BDE8F8830E20FBE700201E60F8E72020EE
:1035F00020800C206080231D6A46384607F008F8BA
:103600000028EDD104F109036A4641463846FFF728
:10361000E4F80028E4D104F108036A46414638463C
:1036200007F040F80028DBD1009A424501D009207C
:10363000D6E72E60D4E72DE9F8435FEA00084FF0A3
:10364000000014461D460F4600900AD04DB1042FCD
:1036500020D318263CB12868182806D20C20BDE8D3
:10366000F8830E20FBE71E6017E01420208018204E
:103670006080231D6A46404606F0AAFF04F1080355
:103680006A463946404600F00AF80028E7D100981B
:10369000B84201D00920E2E72E600020DFE7F8B54C
:1036A00015460E4607461C46FFF797F800281CD122
:1036B00004F108032A463146384600F058F900283C
:1036C00013D16B462A463146384606F0EBFF0028F8
:1036D0000BD19DF80010A27C4B0861F3000263F34C
:1036E0004102890861F38202A274F8BD2DE9F84312
:1036F0005FEA00084FF0000014461D460F46009098
:103700000AD04DB1072F23D307263CB128680728DC
:1037100007D20C20BDE8F8830E20FBE700201E60D6
:10372000F8E71320208007206080231D6A4640466A
:1037300006F06EFF0028EDD104F108036A46394611
:10374000404600F009F80028E4D10099B94201D0C0
:103750000920DFE72E60DDE700F0B8BB2DE9F84374
:103760005FEA00084FF0000014461D460F46009027
:103770000AD04DB1032F1ED303263CB1286803287D
:1037800006D20C20BDE8F8830E20FBE71E6015E092
:1037900003206080231D6A46404606F019FF04F1AD
:1037A00008036A463946404600F00AF80028E9D185
:1037B0000098B84201D00920E4E72E600020E1E73C
:1037C00030B530B12AB1156800248D4203D10920EB
:1037D00030BD0E2030BD455D197865F300011970CC
:1037E0001568455D6D0865F3410119701568455D03
:1037F000AD0865F3820119701568405DC00860F37B
:10380000C30119701068401C1060204630BD2DE9BE
:10381000F84307004FF000001D461446009003D007
:1038200015B1032922D102E00E20BDE8F88303265A
:1038300024B12868032803D20C20F6E71E6018E0A4
:103840001B2020804FF00308A4F80280231D6A4645
:103850004146384606F0BCFE04F108036A4641467C
:10386000384606F014FF0098032801D00920DCE751
:103870002E600020D9E72DE9F04115460F460600DD
:103880000ED06DB11C4600F026F8002809D104F1D5
:1038900010032A4639463046BDE8F041FEF79DBF89
:1038A0000E20BDE8F0812DE9F0411D4617460E00BF
:1038B0000ED06DB1044600F021F8002809D12B4646
:1038C0003A46314604F11000BDE8F041FEF79DBFD5
:1038D0000E20BDE8F08110B5144602461846236854
:1038E000C91A102901D2092010BD99181022FCF71D
:1038F0001BFE206810302060002010BD10B51C4653
:103900000B4601462068121A102A01D2092010BD68
:1039100018441022FCF708FE2068103020600020B8
:1039200010BD10B5144602462068091A402901D27C
:10393000092010BD811840221846FCF7F5FD2068CB
:1039400040302060002010BD10B51C461B68D21A04
:10395000402A01D2092010BD0B44014640221846DE
:10396000FCF7E2FD206840302060002010BD2DE90A
:10397000F04114460E4607461D4606F049FE002853
:1039800004D12168721A082A02D20920BDE8F08108
:1039900039440A6845F8022F49686960216808318E
:1039A0002160F3E72DE9F0411C4616460F46054617
:1039B00006F03DFE01462068321A082A02D209208C
:1039C000BDE8F081384455F8022F02606A68426011
:1039D0002068083020600846F2E729B122B1136858
:1039E000022B03D2092070470E2070477B230B70F7
:1039F00000B10120487002201060002070472DE9BE
:103A0000FC411F4680460020CDE9007014460D465B
:103A10000A467B2301A9404605F083FE060002D139
:103A2000386810B10020BDE8FC8104B3019808306B
:103A3000A8421AD8234601AA2946404606F0C8FDE6
:103A4000A31C01AA2946404606F0C2FD231D01AA77
:103A50002946404606F0BCFDA31D01AA2946404662
:103A600006F0B6FD0198A84203D00920DBE70E203E
:103A7000D9E73046D7E72DE9F04116460C00054658
:103A80000AD04EB13068022813D37A202070002D5E
:103A900006D04FF0010005E04FF00E00BDE8F081C8
:103AA0004FF0000060704FF0020018D030680A2814
:103AB00001D20920F2E7A11C288806F09FFD871C8F
:103AC000E119688806F09AFD0744E119A88806F014
:103AD00095FD0744E119E88806F090FD3844306010
:103AE0000020DBE713467A2205F008BE2DE9FF43EC
:103AF00083B09846DDE90E4691460F4604B3FEB109
:103B000086208DF8080035680020019001AB2A4618
:103B1000214602A806F0D3FD002813D101AB2A46A6
:103B2000214603A806F083FD00280BD10198014629
:103B3000401CA8423DD8002F07D04FF0010206E0FC
:103B40004FF00E0007B0BDE8F0834FF00002625462
:103B5000019013D000F11101A9422AD8204410226B
:103B60003946FCF7E1FC397C0198C1F34002890831
:103B7000103042EA41012154401C0190134800904A
:103B800001AB2A462146484602F0E2FD0700D9D1A2
:103B900001980146401CA8420BD8B8F1000201D0A0
:103BA0004FF00102625401900DD000F11001A942C2
:103BB00001D90920C6E7204410224146FCF7B4FC95
:103BC00001981030019030603846BBE7FD380000A6
:103BD0001346862205F092BD30B530B12AB1156882
:103BE00000248D4203D1092030BD0E2030BD455D3B
:103BF000197865F3000119701568455D6D0865F366
:103C0000410119701568455DAD0865F382011970B1
:103C10001568405DC00860F3C30119701068401C4E
:103C20001060204630BD70B539B133B104461D680F
:103C30000020954203D1092070BD0E2070BD22786E
:103C400002F001024A5526781D68C6F3400642EA92
:103C500046024A5525781E68C5F3800542EA850567
:103C60008D5524781A68C4F3C00445EAC4048C5402
:103C70001968491C196070BDF8B5074614480090D2
:103C800015460E461C46384602F034FD00281DD16C
:103C900010480090231D2A463146384602F02AFD7E
:103CA000002813D10C48009004F108032A4631463D
:103CB000384602F01FFD002808D10848009004F1A2
:103CC0000C032A463146384602F014FDF8BD0000C8
:103CD0004F2E000077380000EB3F00002339000032
:103CE000F8B50446134800901D4616460F46206856
:103CF00002F02EFD00281BD10F4800902B463246C3
:103D00003946606802F024FD002811D10B4800906C
:103D10002B4632463946A06802F01AFD002807D12A
:103D2000074800902B4632463946E06802F010FD05
:103D3000F8BD00007F2E0000A738000011400000F1
:103D4000493900002DE9F04115460F4606000ED016
:103D50006DB11C46FFF790FF002809D104F1100354
:103D60002A4639463046BDE8F041FFF785BF0E20B0
:103D7000BDE8F0812DE9F0411D4617460E000ED03A
:103D80006DB10446FFF7ACFF002809D12B463A4637
:103D9000314604F11000BDE8F041FFF7A1BF0E204D
:103DA000BDE8F08138B51C4613688B4201D109206B
:103DB00038BD6B4606F076FC0028F9D100992078D2
:103DC0004A0861F3000062F341008A0862F382004E
:103DD000C90861F3C3002070002038BD2DE9FF4100
:103DE00084B09846DDE90E641746BEB3B4B37F20B5
:103DF0008DF8080025680020019001AB2A46314665
:103E000002A806F05CFC002825D101AB2A46314609
:103E100004A806F00CFC00281DD101AB2A4631464F
:103E200005A806F04CFC002815D10E48009001AB07
:103E30002A463146384602F08BFC00280BD10A484E
:103E4000009001AB2A463146404602F081FC002832
:103E500001D10199216008B0BDE8F081FFE70E2093
:103E6000F9E70000673F0000753D00007FB582B0B4
:103E70001C460D46060024D01CB30020CDE90040AE
:103E80000A467F2301A9304605F04BFC002805D1E6
:103E9000206828B10198A84211D1002006B070BD59
:103EA000049870B10848009004AB01AA2946304636
:103EB00002F020FC0028F1D10199A942EED009209E
:103EC000ECE70E20EAE70000453D0000F8B51C468F
:103ED00015460E4607466B4606F0E4FB002841D126
:103EE0009DF800102078631C61F3000020709DF89D
:103EF00000102A46490861F3410020709DF8001027
:103F0000890861F3820020709DF80010C90861F3F0
:103F1000C30020709DF80010090961F3061020709D
:103F20009DF80010C90961F3C7102070314638466A
:103F300006F0B8FB002815D1A31C2A4631463846A6
:103F400006F0B0FB00280DD1E31C2A463146384666
:103F5000FFF742FE002805D1231D2A463146384688
:103F6000FFF73AFEF8BDF8B50446007816460F464E
:103F7000C0F34002014662F35F01C0F3800241EAF0
:103F80008201C0F3C00241EAC201C0F3021241EA59
:103F9000021120F07F0001438DF800101D463246CB
:103FA0003946684606F08BFB00281DD12B46324669
:103FB0003946601C06F083FB002815D12B4632469B
:103FC0003946A01C06F07BFB00280DD12B4632465B
:103FD0003946E01CFFF727FE002805D12B46324664
:103FE0003946201DFFF71FFEF8BD10B514460246E6
:103FF0002068091A102901D2092010BD8118102249
:104000001846FCF791FA206810302060002010BD9F
:1040100010B51C461B68D21A102A01D2092010BD07
:104020000B44014610221846FCF77EFA2068103037
:104030002060002010BD00002DE9F84F9846924600
:104040005FEA01090DD0B8F1000F0AD004460079EB
:104050000025082802D8207B082804D90720BDE8BD
:10406000F88F0E20FBE743464946201D06F027FB4C
:1040700000260096434652464946206802F068FBF7
:10408000164F09E0009720684346524650F8250035
:10409000494602F05DFB6D1C2079A842F2D84346E8
:1040A0005246494604F10C0006F009FB00964346CF
:1040B00052464946A06802F04BFB0025084E09E035
:1040C0000096A0684346524650F82500494602F043
:1040D0003FFB6D1C217BA942F2D8C0E70B280000F2
:1040E000FD3800002DE9F04115460F4606000ED0C0
:1040F0006DB163B11C4606F08BFA002808D1A31CF1
:104100002A4639463046BDE8F04101F0F7BD0E20A1
:10411000BDE8F0812DE9F04115460F4606000ED0AE
:104120006DB163B11C4606F073FA002808D1A31CD8
:104130002A4639463046BDE8F04101F05FBE0E2008
:10414000BDE8F0812DE9F04186B007004FF0000096
:104150001E461446884600902BD056B302AB6A46E2
:10416000384606F055FA002820D103AB6A4641468E
:10417000384606F04DFA002818D104AB6A4641468D
:10418000384606F045FA002810D100980190002327
:1041900001AA4146384600F027F8002806D1019DC3
:1041A0000835FCB13068A84205D20C2006B0BDE845
:1041B000F0810E20FAE7BDF80800A080BDF80C00E1
:1041C000E080BDF81000208104F10C036A464146EE
:1041D000384600F009F80028E8D1009A424501D09D
:1041E0000920E3E73560E1E72DE9F8431646894603
:1041F0005FEA000818D0BEB11C466B4606F008FA0C
:10420000002812D134B3BDF800002080A31C324630
:104210004946404606F046FA002806D1A178012911
:1042200005D0114F002511E00E20BDE8F8830F4F97
:10423000F8E700BF05EBC50004EB400332464946F2
:1042400040461B1DB8470028EFD16D1C2188A942AC
:10425000F0D8EAE7BDF80010042201EBC10102EB3F
:1042600041013160E1E70000E54000001541000038
:104270002DE9F0478AB05FEA000A4FF00000984647
:104280001546894602902ED0B8F1000F2BD0B9F117
:10429000080F7DD306AB02AA4946504606F098F9AE
:1042A00007AB02AA4946504606F092F908AB02AAAB
:1042B0004946504606F08CF901AB02AA49465046E1
:1042C00006F086F9BDF804000E2100EB800001EB3A
:1042D0004007002D7ED0D8F80000B84205D20C204F
:1042E0000AB0BDE8F0870E20FAE7322028806F8000
:1042F000BDF81800A880BDF81C00E880BDF82000BB
:104300002881BDF80400A881029900EBC000014497
:10431000494569D8002660E006EB860005EB4004BD
:1043200004F10E0302AA4946504606F051F904F181
:10433000100302AA4946504606F0A9F904AB02AAA6
:104340004946504606F0A3F99DF81010A07C61F391
:104350000000A0749DF81010490861F34100A0749A
:104360009DF81010890861F38200A0749DF8101068
:10437000C90861F3C300A0749DF81010090961F326
:104380000410A0749DF81010490961F3451000E075
:104390002AE0A0749DF8101009AB890961F386101A
:1043A000A07402AA4946504606F071F99DF824000F
:1043B00004F1140300F00100E07402AA49465046DB
:1043C00006F006F904F1160302AA4946504606F023
:1043D000FFF800E00AE0761CB6B2BDF804008642A1
:1043E0009AD30299494501D0092079E70020C8F8FD
:1043F000007075E72DE9F04186B01D4614465FEA6E
:1044000000080E4645D0EDB300200190062E3CD3A7
:1044100008202F68286003AB01AA404606F0D8F8B0
:1044200004AB01AA3146404606F0D2F805AB01AA1A
:104430003146404606F0CCF800207CB12868B842EE
:1044400023D835202080BDF80C00A080BDF81000D6
:10445000E080BDF81400208104F10C002968009070
:10446000791A029102AB01AA3146404600F014F8D5
:1044700000280BD12968029A1144296004B1618097
:10448000019900E005E0B14200D0092006B0BDE886
:10449000F0810E20FAE700002DE9FC5F88461168E4
:1044A00083460C9CA8EB01001E4615464FF0000AFF
:1044B000042839D36B464146584606F089F801ABCB
:1044C0002A464146584606F083F8BDF8000004210C
:1044D00001EBC003BDF80410326801FB0033336008
:1044E000C4B361802080306890421DD8BDF80000C0
:1044F000002604EBC0073F1D27E000BF04EBC60009
:1045000000F1040987602968A8EB010002280BD399
:104510004B462A464146584606F05AF828686288B3
:10452000A8EB00018A4202D90920BDE8FC9F00EBFC
:104530000B01D9F80400FBF7F7FF61882868761CA7
:1045400008442860BDF804000744BDF80000864216
:10455000D4D305E0FFE72A68891C00FB012028600E
:104560005046E2E7F8B505004FF0000014460E464D
:1045700000900AD04BB10A2E2CD3E8880A3034B10F
:104580001968814206D20C20F8BD0E20F8BD1860D3
:104590000020F8BD186037202080231D6A46314670
:1045A000284606F015F8A31D6A463146284606F04F
:1045B0000FF804F108036A463146284606F008F869
:1045C00004F10C036A463146284600F005F80099CC
:1045D000B142DED00920F8BD2DE9F0410746106850
:1045E0001546081A0E461C464FF00008022807D34D
:1045F000384605F0EDFF28682288311A8A4202D930
:104600000920BDE8F081C119A01CFBF78DFF2188AE
:104610002868084428604046F3E72DE9F04786B053
:104620005FEA000A4FF000001F46144689460090DA
:104630002AD04FB3B9F1080F63D302AB6A4649469B
:10464000504605F0C5FF03AB6A464946504605F0A3
:10465000BFFF04AB6A464946504605F0B9FF01ABBF
:104660006A464946504605F0B3FFBDF804000E21E6
:1046700000EB400001EB4006ECB33868B04205D2D5
:104680000C2006B0BDE8F0870E20FAE7332020802A
:104690006680BDF80800A080BDF80C00E080BDF881
:1046A00010002081BDF80400A081009900EB80007B
:1046B0000144494525D800251AE005EB450004EBE7
:1046C000400808F10E036A464946504605F080FF4F
:1046D00008F110036A464946504605F079FF08F193
:1046E00012036A464946504605F0D1FF6D1CADB233
:1046F000BDF8040000E006E08542DED3009949459C
:1047000001D00920BDE700203E60BAE72DE9F8435B
:104710005FEA00084FF00000144689461F460090EB
:104720000ED06FB1B9F10B0F4AD3B8F8096006F19A
:104730000E053CB13868A84206D20C20BDE8F883CB
:104740000E20FBE71D603EE0392020806580231DA0
:104750006A464946404605F03BFFA31D6A46494666
:10476000404605F035FF04F108036A4649464046D5
:1047700005F02EFF04F10C036A464946404605F059
:1047800027FF04F10E036A464946404605F07FFFC5
:1047900004F110036A464946404605F019FF0098A7
:1047A00082194A450CD84EB108EB0001324604F19B
:1047B0001200FBF7B9FE009830440090484501D044
:1047C0000920BBE73D600020B8E700002DE9F04775
:1047D00086B05FEA000A4FF000009846144689460A
:1047E00000902BD0B8F1000F28D0B9F1080F68D392
:1047F00002AB6A464946504605F0EAFE03AB6A46FC
:104800004946504605F0E4FE04AB6A464946504628
:1048100005F0DEFE01AB6A464946504605F0D8FE7B
:10482000BDF804000E2101EBC006ECB3D8F800007F
:10483000B04205D20C2006B0BDE8F0870E20FAE7A2
:10484000302020806680BDF80800A080BDF80C00F4
:10485000E080BDF810002081BDF80400A08100991F
:10486000C0EBC000014449452BD8002522E000BF21
:1048700004EBC50707F10E036A464946504605F0AA
:10488000A7FE07F110036A464946504605F0FFFEB1
:1048900007F112036A464946504605F099FE07F1B2
:1048A00014036A46494600E00DE0504605F090FECC
:1048B0006D1CADB2BDF804008542D9D300994945BD
:1048C00001D00920B7E70020C8F80060B3E72DE960
:1048D000F8435FEA00084FF00000144689461F467F
:1048E00000900ED06FB1B9F10C0F4AD3B8F80A603E
:1048F00006F10E053CB13868A84206D20C20BDE88E
:10490000F8830E20FBE71D603EE0362020806580A6
:10491000231D6A464946404605F05AFEA31D6A46D5
:104920004946404605F054FE04F108036A464946EC
:10493000404605F04DFE04F10C036A4649464046E8
:1049400005F046FE04F10E036A464946404605F06E
:104950003FFE04F110036A464946404605F038FE22
:10496000009882194A450CD84EB108EB0001324636
:1049700004F11200FBF7D8FD009830440090484540
:1049800001D00920BBE73D600020B8E7F8B506007C
:104990004FF0000014460D4600900ED06BB1082D6C
:1049A00037D3F0880A2100EB800001EB400034B1DE
:1049B0001968814206D20C20F8BD0E20F8BD18609F
:1049C0000020F8BD31202080231D6A46294630464C
:1049D00005F01EFE0028F4D1A31D6A462946304684
:1049E00005F016FE0028ECD104F108036A462946BA
:1049F000304605F00DFE0028E3D104F10C036A46B1
:104A00002946304600F007F80028DAD10099A9427B
:104A1000D7D00920F8BD2DE9F8431C4615460E46AF
:104A200080466B4605F0F4FD002813D1BDF8001058
:104A300024F8021B002709E023462A463146404657
:104A400000F0BBF8002805D10A347F1CBDF8001027
:104A50008F42F1D3BDE8F8832DE9F8435FEA0008FF
:104A60004FF0000014461D460F4600900AD04DB18D
:104A7000032F1ED30D263CB128680D2806D20C202A
:104A8000BDE8F8830E20FBE71E6015E03A20208089
:104A90000D206080231D6A46404605F099FD04F113
:104AA0000C036A463946404605F0F1FD0098B842CD
:104AB00001D00920E4E72E600020E1E72DE9F8436A
:104AC0005FEA00084FF00000144689461F46009038
:104AD0000ED06FB1B9F10D0F51D3B8F80B6006F1DC
:104AE00010053CB13868A84206D20C20BDE8F88316
:104AF0000E20FBE71D6045E0382020806580231DE7
:104B00006A464946404605F063FDA31D6A4649468C
:104B1000404605F05DFD04F108036A4649464046FB
:104B200005F056FD04F10C036A464946404605F07F
:104B30004FFD04F10E036A464946404605F0A7FDC5
:104B400004F110036A464946404605F041FD04F170
:104B500012036A464946404605F03AFD009882191C
:104B60004A450CD84EB108EB0001324604F114005E
:104B7000FBF7DAFC009830440090484501D009204A
:104B8000B4E73D600020B1E72DE9F04180461068B0
:104B90000027081A15460E461C46042802D2092092
:104BA000BDE8F081404605F013FDA31C2A463146BE
:104BB000404605F00DFD3846F2E72DE9F041154677
:104BC0000E4607461C4605F023FD002807D1A31C0E
:104BD0002A4631463846BDE8F04100F002B8BDE84B
:104BE000F0812DE9F04115460E4607461C4601F0BE
:104BF00005F9002807D1231D2A4631463846BDE86D
:104C0000F041FFF7C1BFBDE8F0810000F8B50446F0
:104C1000194800901D4616460F46206801F098FD81
:104C2000002820D1154800902B463246394660684E
:104C300001F08EFD002816D12B463246394604F18C
:104C40000A0005F0F4FC00280DD12B463246394607
:104C500004F10C0005F0EBFC002804D12189B1F52A
:104C6000007F01D90720F8BD009533463A462069F8
:104C700002F014FFF8BD00002D5E0000814C000022
:104C80002DE9F0411D4616460F460446FDF7ACFFE0
:104C900000281CD12B4632463946601CFDF7A4FF84
:104CA000010014D1A078C0F34102012A00D00721ED
:104CB000034662F35F03C0F3C00243EAC202C0F3DB
:104CC000001042EA00122868B04202D10920BDE873
:104CD000F0813A542868401C28600846F7E72DE91F
:104CE000F041074610681546081A0E461C4608286B
:104CF00002D20920BDE8F081384605F069FCA31C0A
:104D00002A463146384605F063FC231D2A463146C3
:104D1000384605F05DFCA31D2A463146384605F0AD
:104D200057FC0020E6E700002DE9FC41044600782E
:104D300016468846C0F34002014662F35F01C0F3A5
:104D4000800241EA8201C0F3C00241EAC201C0F31D
:104D5000001241EA0211C0F3401241EA4211C0F3CD
:104D6000801041EA80108DF804001D46324641460D
:104D700001A805F0A4FC00281CD160782B46C0F3E4
:104D8000400161F35F008DF804003246414601A8FE
:104D900005F095FC00280DD12B463246414604F122
:104DA000080005F044FC002804D16189B1F5007FBA
:104DB00002D90720BDE8FC81009533464246606871
:104DC00002F06CFE0028F5D1124800902B463246C6
:104DD0004146E06801F0BCFC0028EBD10E4F009783
:104DE0002B4632464146206901F0B2FC0028E1D151
:104DF00000972B4632464146606901F0A9FC002825
:104E0000D8D100972B4632464146A06901F0A0FC5C
:104E1000D0E700005D970000814C00002DE9FF47BE
:104E200084B09A46DDE9107490468946C7B3BCB396
:104E30000025A22001958DF80800266801AB3246B6
:104E4000394602A805F03BFC002826D101AB3246CA
:104E5000394604A805F0EBFB00281ED1124800904B
:104E600001AB32463946484601F072FC002814D1A5
:104E70000E48009001AB32463946404601F068FCCE
:104E800000280AD101AB324639465046009501F060
:104E90005FFC002801D10199216008B0BDE8F087CE
:104EA000FFE70E20F9E70000294D00000D4C00003F
:104EB0002DE9FC411C46174606000D4613D094B15F
:104EC0000020CDE900400A46A22301A9304604F0A3
:104ED00028FC002805D1206838B10198A84211D1DA
:104EE0000020BDE8FC810E20FBE7074800903B4610
:104EF00001AA2946304601F0FDFB0028F1D10199B5
:104F0000A942EED00920ECE7DF4C0000FFB583B0EA
:104F10004FF000000C9C1D0016460F46019021D05A
:104F200004B32068D8B1A32028700120019001AB00
:104F3000294603A8226805F07AFB002810D10E4804
:104F4000009001AB29463846226801F001FC002898
:104F500006D1019923680A46491C8B4204D20920D4
:104F600007B0F0BD0E20FBE70EB1012300E00023E7
:104F7000AB5401912160F3E70D4C00002DE9FC4199
:104F80001D46164607000C461DD0E5B10020CDE9B0
:104F900000500A46A32301A9384604F0C2FB0028AA
:104FA00012D1286818B10198A0420FD110E00198E1
:104FB000801CA0420AD836B1334601AA21463846A1
:104FC00005F006FBEFE70E20BDE8FC810920FBE7BA
:104FD0000020F9E7F8B5044600208DF8000020789D
:104FE0001D4600F001008DF8000016460F46684689
:104FF00005F065FB002805D12B4632463946201DB9
:1050000005F02FFBF8BD2DE9F8435FEA00084FF0EB
:10501000000014461D460F4600900AD04DB1032FE4
:105020001DD304263CB12868042806D20C20BDE814
:10503000F8830E20FBE71E6014E05320208004203C
:105040006080231D6A46404605F0C2FAA31D6A46E9
:105050003946404605F0BCFA0098B84201D0092014
:10506000E5E72E600020E2E72DE9FE431D460A9C9D
:10507000174689465FEA000821D007B308202E684A
:1050800028606B46404605F0C3FA002815D101ABF5
:105090003A464946404600F0B1FE00280DD102AB29
:1050A0003A464946404605F0B3FA002805D1002C9F
:1050B00003D02968B14204D90920BDE8FE830E203F
:1050C000FBE7BDF8001021800199C4F80210BDF87B
:1050D0000810E180F1E700002DE9F04186B01D469F
:1050E0001446060088462BD055B3002001900220BC
:1050F0002F68286003AB01AA304605F089FA002822
:105100001FD144B12868B8423BD851202080BDF857
:105110000C00A080A01D29680090791A029102ABB2
:1051200001AA4146304600F033F8070009D128684B
:105130000299084428600CB3A079022804D01DE02D
:105140000E2006B0BDE8F081A07B062816D1A0880D
:1051500004A9FCF721F9052810D0049801AA00EB56
:1051600040010A4800EB810303F10800009041462A
:1051700030461B1D02F07AFC0700E2D1019941453F
:1051800001D00920DDE73846DBE70000603200206F
:105190002DE9FE431D460A9C16468846070015D099
:1051A000A5B19EB101AB05F07DFA00280CD12968AC
:1051B00002200291286000208CB19DF8040020702C
:1051C0002868884204D90920BDE8FE830E20FBE749
:1051D0009DF80400012801D0022806D1A01C9DF8EA
:1051E0000410012903D0022909D00B20ECE700901C
:1051F00002AB324641463846FFF736FF06E00090E4
:1052000002AB32464146384600F0E4F80028DBD1D4
:105210002968029A11442960D6E7F8B50E460021A4
:105220001C46009148B144B1022E16D3022532B17A
:105230002168022905D20C20F8BD0E20F8BD1D60A2
:105240000EE05421118002215180131D6A4631461F
:1052500005F0BEF90098B04201D00920F8BD2560E4
:105260000020F8BD2DE9F8435FEA00084FF0000088
:1052700014461D460F4600900AD04DB1032F1DD392
:1052800003263CB12868032806D20C20BDE8F88329
:105290000E20FBE71E6014E0522020800320608077
:1052A000231D6A46404605F093F9A31D6A46394618
:1052B000404605F0ECF90098B84201D00920E5E736
:1052C0002E600020E2E72DE9F8435FEA00084FF086
:1052D000000014461D460F4600900AD04DB1032F22
:1052E0001DD303263CB12868032806D20C20BDE854
:1052F000F8830E20FBE71E6014E055202080032079
:105300006080231D6A46404605F062F9A31D6A4687
:105310003946404605F0BBF90098B84201D0092053
:10532000E5E72E600020E2E72DE9F04186B01D465A
:1053300014460600884629D045B30020019002207B
:105340002F68286003AB01AA304605F061F90028F8
:105350001DD134B12868B84236D8BDF80C00A08001
:10536000A01D29680090791A029102AB01AA41465A
:10537000304600F02FF8070009D128680299084448
:105380002860F4B1207B062804D01AE00E2006B075
:10539000BDE8F081A08804A9FBF7FEFF052810D026
:1053A000049801AA00EB4001094800EB810303F1D6
:1053B00008000090414630461B1D02F057FB0700D5
:1053C000E5D10199414501D00920E0E73846DEE703
:1053D000603200202DE9F0478AB01C46129F154626
:1053E0008A465FEA000859D0002D57D0002C55D0CE
:1053F0000C20D4F80090206004AB404605F008F97A
:10540000002848D107AB2A465146404600F0F6FC3A
:10541000002840D106AB2A465146404605F042F9E5
:10542000002838D105AB2A465146404605F03AF9E6
:10543000002830D103AB2A465146404605F0E8F833
:10544000002828D102AB2A465146404605F0E0F834
:10545000060020D1BDF808102068014421601FB368
:105460003846494516D8BDF8101001800799C0F894
:1054700002109DF8181081719DF81410C171BDF8CB
:105480000C100181BDF8082042812968AAEB0103B4
:105490009A4205D909200AB0BDE8F0870E20FAE744
:1054A00041440C30FBF740F8BDF808102868084468
:1054B00028603046EFE72DE9F0471F4615000E46FD
:1054C00005D027B136B1B16821B9F16811B10E200C
:1054D000BDE8F0873968052944D3A6212970691CE5
:1054E00005F091F8401C002E02D04FF0010101E0C0
:1054F0004FF00001295400F1010445D0396804F14E
:10550000070081422ED32919308805F07CF8044425
:10551000B0782855641C2919B08805F074F8044443
:10552000B0684FF0000990B33A68211D8A4219D340
:105530000088B0F5007F01D90720C9E74FF00108C6
:1055400005F80480B068641C2919008805F05BF830
:105550000444F068A8B1B0680188601C0844396848
:10556000884201D90920B3E705F80480B068641CBB
:10557000F16802882819FAF7D7FFB0680088044458
:1055800002E005F80490641C00203C60A0E7FFE7FF
:1055900005F80490641C05F80490F4E72DE9FC413B
:1055A0001F46144606000D4613D094B10020CDE9E5
:1055B00000400A46A62301A9304604F0B2F80028AC
:1055C00005D1206838B10198A8420FD00920BDE864
:1055D000FC810E20FBE7064800903B4601AA2946C5
:1055E000304601F087F80028F1D1ECE70020EEE723
:1055F00011A6000030B5039C5BB154B12568042DA1
:105600001ED3A0251D705870002905D04FF0010051
:1056100004E04FF00E0030BD4FF0000098704FF0E6
:10562000030009D0206806280AD30D88DD702D0AF2
:105630001D718878587106202568411C8D4201D261
:10564000092030BD0AB1012100E000211954401C9D
:105650002060002030BD2DE9FC411E468046002020
:10566000CDE9006017460C460A46A02301A9404632
:1056700004F057F8050005D1306828B10198A04220
:1056800010D10020BDE8FC8177B10198801CA042B8
:1056900008D83B4601AA2146404604F099FF0198EC
:1056A000A04203D00920EDE70E20EBE72846E9E70A
:1056B0003FB583B04FF000000A9C00904FF0A70068
:1056C0001D008DF8040024D01CB36B46294601A8A8
:1056D000226804F0F4FF002819D16B46294603A87C
:1056E000226804F0A4FF002811D16B46294604A8C3
:1056F000226804F09CFF002809D16B46294605A8C2
:10570000226804F094FF002801D10099216007B0BD
:1057100030BD0E20FBE71346A72203F0EFBF3FB5D5
:1057200081B00D46DDE908140023009379B174B10E
:105730002368082B25D3AA230B704870000A8870B1
:1057400003200090002A06D04FF0010005E04FF042
:105750000E0005B030BD4FF00000C8704FF00400DF
:10576000009009D020684FF00603062809D312885C
:105770000A71120A4A71009300982368421C9342EE
:1057800001D20920E5E70DB1012300E000230B540D
:1057900000926B4604A8226804F063FF0028D8D169
:1057A000009820600020D4E72DE9FE431C460A9FA4
:1057B00090460D46060034D097B30020CDE9007026
:1057C0000A46AA2301A9304603F0ABFF002825D1E1
:1057D000386818B10198A84235D136E00198C01C4C
:1057E000A84230D802AB01AA2946304604F0F0FEA8
:1057F0000199705C491C0191012805D0002CE9D069
:10580000BDF808002080E5E7B8F1000F09D03CB1F1
:105810002088BDF80820904205D20C20BDE8FE8308
:10582000FFE70E20FAE78818A8420CD8314440461A
:10583000FAF77AFEBDF808002080BDF8081001983C
:1058400008440190C6E70920E8E70020E6E77FB5B5
:1058500082B00B46DDE90A460021154600917CB175
:1058600076B13168082920D3A92121706070000A1F
:10587000A07003200090002B06D04FF0010005E03F
:105880004FF00E0006B070BD4FF00000E0704FF01A
:105890000400009018D0B5F5007F01D90720F1E78A
:1058A000316805F10A00884201D90920EAE725712B
:1058B000290A617106200090A01D2A461946FAF7B0
:1058C00033FE0098284400906B46214605A83268B4
:1058D00004F0C7FE0028D5D1009830600020D1E741
:1058E0001346A92203F00ABF7CB516464FF000020A
:1058F000069D1C00019205D025B12A68052A03D215
:1059000009207CBD0E207CBDA42222706070000A9C
:10591000A070E170090A2171052001902EB1308834
:10592000B0F5007F01D907207CBD0748009001AB8E
:10593000214630462A6800F00BFF0028F4D1019878
:10594000286000207CBD0000D95900002DE9FC41F1
:105950001C46174606000D4613D094B10020CDE931
:1059600000400A46A42301A9304603F0DAFE0028CD
:1059700005D1206838B10198A8420DD00920BDE8B2
:10598000FC810E20FBE73B4601AA2946304600F089
:1059900005F80028F3D1EEE70020F0E72DE9FC41FF
:1059A00015460E4680461C461F8804F031FE00282E
:1059B00010D1A31C2A463146404604F029FE002897
:1059C00008D12088231DCDE900702A463146404683
:1059D00000F048FDBDE8FC81F8B51D4616460F46AF
:1059E000044604F024FE00280ED12B4632463946E8
:1059F000A01C04F01CFE002806D100952188334627
:105A00003A46606800F060FDF8BD30B50446008C91
:105A10008BB0A0F57F42FF3A24D005AA204601F0C2
:105A20004FFF0546ADF80000002001900290039062
:105A300004902189ADF804100121ADF808008DF81B
:105A4000061005A8CDF80CD00490208C01A903F015
:105A5000EBFB002804D1BDF80010A94200D00C20B7
:105A60000BB030BD0820FBE738B50446086820605D
:105A7000087960714FF6FF702084002084F82200BE
:105A8000A4F84C0001208DF8020041F60D000D46EF
:105A9000ADF80000A21D6946012003F0EBFB0028D1
:105AA0000ED12946204601F0A9FE002808D1A86899
:105AB00028B12946204600F0CDF9002800D1002069
:105AC00038BD08B50A88102A14D0112A14D0502ADB
:105AD00015D131F8062F83899A4210D14A89022ABA
:105AE0000DD10268002A0AD0097B11F0010F07D0FE
:105AF000002106E0898801E04FF6FF71018408BDAE
:105B000001218DF800106946904708BD70B5044624
:105B1000B0F84C000D4614280AD104F126012622C3
:105B2000881EFAF701FDB4F84C00401EA4F84C00A2
:105B3000B4F84C0004EB4001401CA4F84C008D84E8
:105B400070BD80F8221070472DE9FF411D461446B4
:105B5000070088462DD064B35DB300200190022079
:105B60002E68286003AB01AA384604F051FD0028D6
:105B70001CD1231D01AA4146384604F049FD0028E6
:105B800014D12868A41D301A029002AB01AA414624
:105B90000094384600F00FF8002807D12968029ACF
:105BA00011442960019A424500D0092004B0BDE8A3
:105BB000F0810E20FAE72DE9FC471F460A9C1546A6
:105BC0008A465FEA000829D045B33FB3D7F8009072
:105BD000286801900020ADF800006B4601AA4046FD
:105BE00004F016FD060017D1BDF800102144081B73
:105BF000001D3860ECB148450DD823462A46514671
:105C0000404600F018F8060006D128682288AAEB62
:105C100000018A4204D90920BDE8FC870E20FBE779
:105C200000EB0801201DFAF77FFC21882868084452
:105C300028603046F0E72DE9F04115460F46060092
:105C40000ED06DB163B11C4604F0E2FC002808D10F
:105C5000A31C2A4639463046BDE8F04104F0D8BCC2
:105C60000E20BDE8F08170B504460D460846FAF7EF
:105C70008DFC2080656070BD0A78027049784170A3
:105C80000220704700B5184887B0002300690590CE
:105C90004822164905A804F0D9F908B1FBF7F2FB30
:105CA0006A460121002004F0BBF908B1FBF7EAFBCA
:105CB0000F4803F0C5FB08B1FBF7E4FB684604F0AE
:105CC0002FF908B1FBF7DEFB0A4804F01FF908B111
:105CD000FBF7D8FB084804F0E3F9002801D0FBF7F4
:105CE000D1FB07B000BD0000F0A800008824002010
:105CF000E81F0020C9250000B9A0000070B51446B7
:105D00000246184623680025C91A102901D2092025
:105D100070BD99181022FAF707FC20681030206037
:105D2000284670BD70B5049D53B14DB12C68022C4E
:105D30001DD365241C70002805D04FF0010404E039
:105D40004FF00E0070BD4FF000045C704FF0020485
:105D500009D02C68052C0AD306889E70360ADE709E
:105D60008078187105242E68A01C864201D2092073
:105D700070BD09B1012000E000201855641C0AB173
:105D8000012000E000201855641C00202C6070BD2C
:105D90002DE9FC4107460020089DCDE9005016463C
:105DA00098460C460A46652301A9384603F0B9FC1B
:105DB00000281FD1286818B10198A04219D11BE012
