:020000040001F9
:10B0000038330020F5B001000FB1010011B101008B
:10B010000000000000000000000000000000000030
:10B0200000000000000000000000000013B101005B
:10B03000000000000000000015B1010017B1010080
:10B0400019B1010019B101009DB9010019B1010048
:10B0500019B10100000000001DB7010019B1010085
:10B0600019B1010019B1010019B1010019B10100B4
:10B0700019B1010019B1010019B1010019B10100A4
:10B0800019B10100B5B8010019B1010019B10100F1
:10B09000D5B8010019B10100DDB8010019B10100F6
:10B0A00019B1010019B1010000000000000000000A
:10B0B0000000000000000000000000000000000090
:10B0C0000348854600F084FA00480047DDE80100A7
:10B0D00038330020401E00BF00BF00BF00BF00BFCC
:10B0E00000BF00BF00BF00BF00BF00BF00BFF1D165
:10B0F000704700000321094802680A4302600848BB
:10B1000002680A4302600748804707480047FEE795
:10B11000FEE7FEE7FEE7FEE7FEE70000240500404D
:10B1200054050040FDB80100C1B0010030B50B4628
:10B13000014600202022012409E00D46D5409D4211
:10B1400005D31D469540491B254695404019154697
:10B15000521E002DF1DC30BD70B5002425460028BC
:10B1600001DA01244042002901DA01254942FFF7B2
:10B17000DDFFAC4200D04042002C00D0494270BDFF
:10B1800003460B439B0703D009E008C9121F08C000
:10B19000042AFAD203E00B780370401C491C521EAB
:10B1A000F9D27047D2B201E00270401C491EFBD2B6
:10B1B00070470022F6E710B513460A4604461946C2
:10B1C000FFF7F0FF204610BD30B5044600200346CF
:10B1D00000E05B1C934203D2E05CCD5C401BF8D0E6
:10B1E00030BDF0B51FB40646002082B005464024AD
:10B1F000019100901BE0019922460F46304600F075
:10B2000009FA049A059B801A994110D310461946F1
:10B21000224600F0EFF9361A8F41019722460120AD
:10B220000021009F00F0E6F938184D4100902046BB
:10B23000641E0028DFDC019B00982946324607B0D7
:10B24000F0BD0000F0B507460846584087B0C00F73
:10B25000049048000E46590040084908BC1A88412D
:10B2600005D2384631461E4617460B460246580060
:10B27000400810434CD0300D039040055900400D5C
:10B28000490D0590401A0290402872DA18030121F6
:10B29000000B09050843019004980092002805D08E
:10B2A0000199524200208841009201900298402169
:10B2B0000A1A0199009800F09DF905460C466B4664
:10B2C00007CB00F0B8F9C0197141039A0E0D0023A5
:10B2D000D71756401A467A40164344D0049A002A9B
:10B2E0002DD0029A012A039A15DC1205C01A914149
:10B2F00001263605001C7141D20F059ED20700932E
:10B30000019202962A46234600F0B5F907B0F0BD37
:10B3100038463146FAE71605224A0F46B218C01AD7
:10B32000B74101210905001C4F4100187F4111461A
:10B3300018187941E20F10436D19644113E0E207D8
:10B340006D0815436408C2071443039A01261205C9
:10B35000C01A91413605001C7141CE0740083043A8
:10B360004908C01851412A46234600F077F9CDE735
:10B37000FFE7049801224000C117121A00238B41F5
:10B3800004983146C417381AA141EEE730B40124BD
:10B39000E407634030BC55E730B40124E407614062
:10B3A00030BC4FE70000E0FFF0B51FB488B00B9948
:10B3B0000998002448400999C00F4900490809919B
:10B3C000C0070B990090490049080B91099908980A
:10B3D000A64608431CD00B990A98084318D0099830
:10B3E00001244000420D4800410D09982405000346
:10B3F000000B204309900B980003000B20430B9097
:10B4000050181C494018002201901446104605E0CF
:10B41000002001460DB0F0BD032801DA034600E02C
:10B4200003239C46C11A0AAE0AE05F0008ADED5B3B
:10B430004F00F75B7D430027AA187C41491C5B1E27
:10B440006145F2DD410004AB5A522104120C0A435B
:10B45000240C401C0828DFDB0198029000997046FC
:10B4600001910090059B049A0799069800F003F952
:10B47000D0E700000DFCFFFFF0B50C465C4085B046
:10B48000E40FE40703944C00002664085900944636
:10B49000490802460296224321D062460A431ED042
:10B4A0006200570D4A000E032303550D0124024686
:10B4B0002C492405781B1B0B360B401823432643CD
:10B4C000614600901C46501AB44103D30098401CBA
:10B4D000009002E0921800985B41002803DA0020F7
:10B4E000014605B0F0BD002001210905074686464A
:10B4F00011E064461D46141BB54106D36546521B38
:10B50000B341744607430C43A646CD07400849089B
:10B51000284392185B4105460D43EAD11046184373
:10B5200013D06046194650407140084306D060462B
:10B53000101AB34106D20122002306E000220123A3
:10B54000DB0702E00122D243531000987446010544
:10B55000381C6141029C039D0019694100F07EF88E
:10B56000BFE70000FD0300004A0009030123090BA7
:10B570001B0519430A4B10B5520D9A4202DA0020FE
:10B58000014610BD064B34339A4203DC9A1A00F090
:10B5900041F810BD034BD21800F02CF810BD00008C
:10B5A000FF030000CDFBFFFF10B5002904DB0124E1
:10B5B000E40740428C412146002B04DB1C4601235A
:10B5C000DB075242A341994200D1904210BD0000D6
:10B5D000064C0125064E05E0E36807CC2B430C3CE6
:10B5E00098471034B442F7D3FFF76EFD68020200AB
:10B5F0008802020010B5202A04DB0146203A91405F
:10B60000002010BD914020239C1A0346E3401943BB
:10B61000904010BD10B5202A04DB0846203AD040E7
:10B62000002110BD0B46D340D0402024A21A9140E7
:10B630000843194610BD10B5202A06DBCB17084673
:10B64000203A1041C1170B4306E00B461341D0408E
:10B650002024A21A91400843194610BD10B5002BB2
:10B6600008DA0024401C614192185B411A4301D161
:10B670004008400010BDF0B51FB482B005460C0074
:10B6800003D0084600F098F902E000F095F9203068
:10B690000246009021462846FFF7ACFF049B059A1E
:10B6A00004460F4618431143084314D0184610436C
:10B6B0001BD0009840210A1A18460599FFF7AAFFE7
:10B6C00005460E46009A05990498FFF793FF084334
:10B6D00005D0012004E02046394607B0F0BD002027
:10B6E000C11705430E432C43374300990E98630559
:10B6F000401A7905E40A00220C43FD0A0A3002D5FB
:10B7000000200146E9E70105101969410C9C0D9DD7
:10B7100000196941FFF7A2FFDFE70000F0B500253F
:10B72000FF248BB0013401262F460195204603F0FB
:10B73000EBFB002808D047484068304204D0464818
:10B740000021201835430160241D76007F1CA4B21F
:10B75000042FEBD3FF207D3003F0D6FB002807D069
:10B760003E4800210160400705433D4800690190C3
:10B770003C4C280712D0012700262F420AD03A4815
:10B78000B200111808690969C004C00E8903A258E3
:10B79000890F90477F00761C042EEED3002D57DAD8
:10B7A00000200590401E4DE0A11940310878850623
:10B7B000AD0E42B2521C39D00121A940089A009125
:10B7C000114233D080090390284601F057FD8000D4
:10B7D00020580490002802D10398032826D103980A
:10B7E0000099032802D10598084305901F4AA80034
:10B7F00080180068019A8003800F114202D002284D
:10B8000002D013E0032811D10399032907D102289C
:10B810001CD00221284603F067FB7F1CFFB204986E
:10B82000002803D0049A284603999047761C042EDA
:10B83000BAD3002F0CD00A4800690199884207D07A
:10B840000190059800273E460890ADE70321E1E707
:10B850000BB0F0BD00630040006000407C61004020
:10B8600000050050CC270020006500400007005074
:10B870008307FF22DB0E9A408907090E99400028B2
:10B880000BDA0007000F0838830808489B001818D7
:10B89000C36993430B43C3617047830804489B000B
:10B8A0001B181868904308431860704700ED00E0CB
:10B8B00000E400E010B50649002008604860886098
:10B8C000C860034940390860486004F069FA10BD57
:10B8D0004011014010B504F0F9F910BD10B506484B
:10B8E0004068002805D08047002801D000F07CFD8A
:10B8F00010BD02F045FE10BD781F002010B502F00B
:10B900009DFE002805D01F491D484860C8131E49E8
:10B9100088611E48018CC9B201290BD1828C1207A3
:10B9200008D1028D1206120F042A03D1828D12064D
:10B93000120F0AD0012921D1818C09071ED1018D56
:10B940000906090F0A2904D007E0114A0121916074
:10B95000F5E7828D1206120F05D00D290ED1808DCC
:10B960000006000F0AD10B480168012904D00A49DA
:10B97000016001680129FCD1C021416110BD0000B6
:10B98000DFFF07C000050040006C0040C00F00F062
:10B990000006004000EC06407593000010B504F06E
:10B9A0000BFB10BD10B5024B024A00F0E5F810BDCC
:10B9B000E9E20100741F00202021020C01D01021B7
:10B9C0001046020A01D010460839020901D010467B
:10B9D000091F820801D01046891E420801D0881E26
:10B9E0007047081A704730B47446641E2578641C8A
:10B9F000AB4200D21D46635D5B00E31830BC1847C4
:10BA000002E008C8121F08C1002AFAD17047704727
:10BA1000002001E001C1121F002AFBD17047000085
:10BA2000F0B51FB484B007980699020D014314D0F5
:10BA30004A484B491018484305140F9801280E989E
:10BA40001CD0281A401C0024464E474900940191FE
:10BA50000290002814DA474227E00F98012443A3FC
:10BA6000012808D0002104980F9A84600360C26006
:10BA7000416009B0F0BD0E98C143F4E74042E2E7EF
:10BA8000074612E0F80707D022463346019900988E
:10BA9000FFF78AFC01910090224633461046194672
:10BAA000FFF782FC04460E467F10002FEAD1029871
:10BAB000019B0028009A0799069802DAFFF774FCA8
:10BAC00001E0FFF7D9FC04460E460022284BFFF7A1
:10BAD0006BFD03D80020C043014607E00022254B40
:10BAE00020463146FFF7AEFBFFF73EFD102409E08C
:10BAF000002C0ADB0A220023FFF773FB059B303280
:10BB00001A55641E02460A43F2D11122641C059B99
:10BB1000121B1C190F9B012B03D0012308430ED1CC
:10BB20000AE0084304D011200E9000200F9084E713
:10BB30000E98151A6D1E0BE00E98824202DD00234E
:10BB40006D1C03E0824201DA00236D1E002BEED053
:10BB500004980F998260C16030C08AE701FCFFFF42
:10BB6000104D0000000024400000F03F30000000B5
:10BB70000000F0430000E03FFFB597B00646002507
:10BB800018E2252877D100242746FD49049400E0D7
:10BB90000443761C32780120203A90400842F7D1C5
:10BBA00030782A280ED0022230780146303909290F
:10BBB00016D804990A235943303940181443761C87
:10BBC0000490F1E7189802C804911890002904DA4B
:10BBD0000120400304434842049002200443761CA1
:10BBE00030782E2814D1042004437078761C2A283B
:10BBF00009D11898761C80C8189009E00A214F4393
:10BC0000303FC719761C3078014630390929F5D9FB
:10BC100030786C2810D006DC4C281AD068280ED05A
:10BC20006A2817D104E0742813D07A2812D110E0C2
:10BC30000120400504430CE00121090501E0032136
:10BC400009050C437178814203D1012000052418B5
:10BC5000761C761C3078119066280BD013DC58289F
:10BC60007DD009DC00287BD04528F6D04628F4D0CA
:10BC700047281AD1A5E118E0632835D0642870D090
:10BC8000652812D19DE170286CD008DC6728F1D0BE
:10BC900069287BD06E280DD06F2806D1BAE07328B2
:10BCA0002ED0752871D0782859D01A9A19999047B2
:10BCB0006D1C7EE16002400F022809D003280DD0E0
:10BCC0000428189801680DD00D60001D189070E1CF
:10BCD0001898EA1701680D604A60F6E7189801683D
:10BCE0000D80F2E70D70F0E718986A46017811723E
:10BCF000001D18900020507202A80090012005E05D
:10BD0000189802C8189000200091C04361070DD513
:10BD1000002101E00199491C0191B94212DA8142E6
:10BD2000F8DB009A515C0029F4D10BE0002101E01E
:10BD30000199491C01918142FADB019A0099895CC1
:10BD40000029F5D1019904981A9B471A21463846D3
:10BD5000199A00F097FA0199401945180BE04FE045
:10BD60002CE113E04EE0009800990078491C009106
:10BD70001A9A199990470198401E0190401CF2D1DF
:10BD8000214638461A9B199A10E137E00A20002113
:10BD9000009001916002410F022907D0189A01CA50
:10BDA0001892C2179446032908D00AE01898C01DBB
:10BDB000C108C90005C91891944607E000B2C2172E
:10BDC0009446042902D140B2C1178C460022614634
:10BDD000944506DA0A460021404291418C462D21C5
:10BDE00002E0210504D52B216A461173012103E0ED
:10BDF000E10701D02021F7E7029155E00A200AE08F
:10BE0000102008E01020009000210420044301913C
:10BE1000082703E008200021019100906002410FF3
:10BE2000022907D0189A01CA1892002294460329C1
:10BE300008D008E01898C01DC108C90005C91891AC
:10BE4000944603E080B2042900D1C0B200210291DF
:10BE5000210729D51199702906D0009A1021019B3C
:10BE60004A401A4305D00EE040216A461173012171
:10BE700008E06146014306D030216A4611731199EA
:10BE8000517302210291009A0821019B4A401A43F2
:10BE90000AD16146014301D1610705D530216A46C7
:10BEA000117301217F1E02911199582904D035A1E7
:10BEB0000E910DA90D910DE037A1F9E76146019BA7
:10BEC000009AFFF78EF90E9B8C469B5C0D9A521ED2
:10BED0000D92137061460143F0D10D9805A9081A1F
:10BEE00020300190600703D501200004844300E066
:10BEF00001270198874201DD381A00E000200199EE
:10BF000000904118029809180498401A0490E00320
:10BF100006D421461A9B199A049800F0B3F94519E2
:10BF2000002706E003A81A9AC05D199990476D1C76
:10BF30007F1C02988742F5DBE0030CD521461A9B53
:10BF4000199A049800F09EF9451904E01A9A3020D5
:10BF5000199990476D1C0099481E00900029F5DC46
:10BF600008E00D980D990078491C0D911A9A1999BD
:10BF700090476D1C0199481E01900029F1DC63E196
:10BF800009280100303132333435363738396162AF
:10BF90006364656600000000303132333435363773
:10BFA00038394142434445460000000000F05AF948
:10BFB0004519761C3078002800D0E2E528461BB0F1
:10BFC000F0BD600700D406271898C01DC108C9003D
:10BFD00048680A680831C30FDB071891190001D0BF
:10BFE0009CA108E0210501D59BA104E0E10701D057
:10BFF0009AA100E09AA1430011985B08109165286E
:10C000000CD006DC452809D046281DD0472841D150
:10C0100041E0662818D067283CD13CE00021112F70
:10C0200001DB112000E0781C0191009008A911A803
:10C03000FFF7F6FC139905910021119A15927F1CC8
:10C0400012980197009150E00120C0070390012051
:10C05000019008A9009711A8FFF7E2FC139A149920
:10C0600005920022119B009212981593059A019255
:10C07000002901D0104602E0791C40180190381ABE
:10C0800001D5019804E04042401E0090781C0190C8
:10C09000C01B029043E0012F00DA01270021112F7D
:10C0A00001DD112000E038460191009008A911A897
:10C0B000FFF7B6FC13990591119A00211298159279
:10C0C0000091019721070CD40599B94201DB019930
:10C0D00000E00191012904DD159A491E515C3029C7
:10C0E00006D0B84201DA011D05DA0121029115E0FE
:10C0F0000199491EEDE7002805DC009941180091DF
:10C100000199091A03E0019A411C914200DD019155
:10C110000099401A401C02900120C007039020079C
:10C1200006D402990198814202DB0020C0430290AC
:10C1300000206946C87707AF012103980337C90774
:10C14000884224D0022011902B20129003980028BE
:10C150000CDA404203902D20129007E00A21039848
:10C16000FEF7E4FF30317F1E039039701199481EAD
:10C1700011900029F2DC03980028EFD1791E129863
:10C1800008703078202108404530BF1E387006A85E
:10C19000C01BC01D039010980078002800D001201B
:10C1A000019941180298C0170918039809180498B2
:10C1B000401A401E0490E00306D421461A9B199AA7
:10C1C000049800F05FF8451910980078002803D013
:10C1D0001A9A199990476D1CE00324D521461A9BA1
:10C1E000199A049800F04EF845191CE000980028B0
:10C1F00007DB00990598884203DD1598405C199982
:10C2000001E0199930201A9A904700986D1C401C43
:10C2100000900298401E0290002804D11A9A2E2005
:10C22000199990476D1C0199481E01900029DDDC89
:10C2300005E038781A9A7F1C199990476D1C03996C
:10C24000481E03900029F4DC21461A9B199A049891
:10C25000ACE600002D0000002B00000020000000D4
:10C2600000000000F8B5044600251E461746880465
:10C2700004D405E039462020B0476D1C641EF9D572
:10C280002846F8BDFFB50446002581B01E46C80308
:10C2900001D5302700E02027880404D505E0384682
:10C2A0000399B0476D1C641EF9D5284605B0F0BD52
:10C2B00070B500238D880C680DE0E6187678E15C97
:10C2C000864206D1E018801C491E10609180002033
:10C2D00070BD5B185B1C9D42EFD8052070BD10B58A
:10C2E00001220221002000F0F5FD002801D00728DE
:10C2F00012D107220221012000F0ECFD002801D01C
:10C30000072809D100210A22084600F0E3FD002891
:10C3100001D0072800D1002010BD00000448426869
:10C320000121C9050B46934383600A40C2607047F0
:10C330000005005070B50024064D06E06968E00075
:10C34000085C012102F082FB641C28788442F5D34A
:10C35000002070BD381F0020F8B515460C46064673
:10C36000052A01D20720F8BD02F046FC002803D1BF
:10C3700002F018FC0028F6D1104900204E600C7025
:10C38000C8608D6008610E4D0DE0E000696880199D
:10C39000009181786A46517000780A4A694602F035
:10C3A000A5FB0028DFD12046641EE4B20028ECD1B2
:10C3B000054A0021024800F079F8F8BD381F002036
:10C3C0005402020029E40100EDD60100BFF34F8FB3
:10C3D00004490348C860BFF34F8F00BFFDE700006A
:10C3E0000400FA0500ED00E00EB500210290009176
:10C3F0006A4601910148FFF7E9FF0EBD01400000C8
:10C40000014B1B68184700008827002010B5826880
:10C41000C368934203D001F0F9FE002010BD05204F
:10C4200010BD002906D0002A02D0531E134203D0AB
:10C43000092070470E2070470160838000218160D1
:10C44000C1600846704710B58268C3689A1A83882D
:10C450009A4203D801F0E4FE002010BD042010BD74
:10C4600038B50C46A2680C235A43064B09789D58F0
:10C47000054A126A00920246204608302369A847FE
:10C4800038BD0000FC280020141F002010B506490C
:10C4900014230A785A435118091DFFF7E1FF0420BD
:10C4A00003F08EFA10BD000030280020094B9B6875
:10C4B000002B07D0002A07D0002805D00068037C95
:10C4C000002B03D008207047072070474174426159
:10C4D000002070474C1F0020FFB59007002581B059
:10C4E00014460E46002832D11B4F002C31D003F0E9
:10C4F00061F9049878610320387033461821224688
:10C5000000204B43BC601834C10089180D704D7079
:10C510008E704C601C19401C0328F5DBFD607D709B
:10C5200001240E48BD702405046003211420FFF788
:10C530009FF90B4804600B4C0198A0600321112067
:10C54000FFF796F960683861002005B0F0BD07205C
:10C55000FBE7BD60FBE700004C1F002080E200E02D
:10C5600000E100E000150140FEB50D461B491746ED
:10C570008968044600292AD0002C28D0052D01D234
:10C580000720FEBD6069002821D0607C012820D0F2
:10C59000002603F0AFFDC0001049019089684018E3
:10C5A000694603F0D1FD002815D0012101700C4926
:10C5B000446049680830E2C0084901988968411818
:10C5C00068460078487003F0C3FB0020FEBD0820D9
:10C5D000FEBD2E46DDE70420FEBD00004C1F0020FE
:10C5E00000150140F8B5134D0446A96800291CD078
:10C5F000002C1AD06069002817D00026267403F09A
:10C6000079FDC700A8686946381803F09DFD002829
:10C610000DD0022101704460A8683918684600787E
:10C62000487003F095FB3046F8BD0820F8BD0420A3
:10C63000F8BD00004C1F002070B50446224888B0A9
:10C640001E460D0042601CD0A888296882B21F488F
:10C65000FFF7E7FE002815D1A889A96882B21B4818
:10C660001030FFF7DEFE00280CD120221849684662
:10C67000FEF786FDA06806902079002804D00121ED
:10C6800003E0072008B070BD0021684601750677F9
:10C690006079002800D00E2069464875E078029045
:10C6A000A07803902078019060780090094968464E
:10C6B00002F0AAFA0028E5D102F030FB024801217D
:10C6C000401C02F005FBDDE70C1F0020AC2700201A
:10C6D000EC01020009FF010010B501460A48FFF70E
:10C6E000B2FE04000ED102F0BFFB00280AD10749B8
:10C6F0000548FFF78BFE002804D10121034802F012
:10C7000067FB0446204610BDBC2700200C1F0020FC
:10C7100010B50446087800280DD1204600F03AF8FC
:10C72000002801D0FFF760FE204600F005F8002841
:10C7300001D0FFF759FE10BD70B5002805D0028862
:10C7400011498A4203D1082070BD0E2070BD0F4BE5
:10C750004488186814214143401C40070C4D400F89
:10C76000186049194C810220C881081D0861002405
:10C770008C810120087208714C710A80887003F066
:10C780004FFB204670BD0000FFFF0000DC1E0020B4
:10C790005823002010B5002805D001880D4A914289
:10C7A00003D1082010BD0E2010BD0B4B14221968B8
:10C7B0000A4C4A43491C4907490F196012198188DC
:10C7C0009180008810800020907003F029FB0020E9
:10C7D00010BD0000FFFF0000DC1E002058230020D9
:10C7E000002808D00180002A03D011884180518898
:10C7F0008180002070470E207047000008B5002897
:10C8000012D0002910D001236A469370074B138081
:10C810000022D24302800022428082800968816027
:10C82000684600F08FF808BD0E2008BD0F18000004
:10C830001CB500281ED000291CD00A88112A34D02B
:10C84000362A1FD0382A16D0392A13D102888B886D
:10C850009A420FD18A898488A2420BD10A8A012A7E
:10C8600008D16A46538001231370897C1171826854
:10C87000694690471CBD008889888842FAD103F038
:10C88000CFFA1CBD03888A889342FAD18B898488A9
:10C890000C31A342F3D16B465A8002221A70897977
:10C8A0001971826869469047E9E7028889888A4257
:10C8B000E7D10021C94301800021418081801CBD56
:10C8C0007CB50A78002A35D18A881B4B9A4231D12F
:10C8D0008A79012A2ED100236A4613704B8853802F
:10C8E0000022164C0B7A10E00C2555436D18ED898B
:10C8F000A54208D10C235A4351180B8B6A469380EA
:10C90000C98AD18003E0521CD2B29342ECD801888C
:10C910000B4A91420BD04188002908D18188002917
:10C9200005D16946898841806946C98881808268C5
:10C93000694690477CBD00000F180000192A0000CE
:10C94000FFFF000070B500280AD00F4D297800299C
:10C9500008D0044602F012FF002805D0002070BD68
:10C960000E2070BD082070BDE868062809D2074A6D
:10C970008100891822880A8062884A80401CE86009
:10C98000ECE7042070BD0000E41E0020F823002026
:10C99000002808D0002205490123CA600B708A6074
:10C9A0004860104670470E2070470000E41E0020CB
:10C9B00010B5002811D000290FD0124A1278002A91
:10C9C0000BD00A88112A11D0302A07D0322A09D078
:10C9D000332A02D1091D02F097FB10BD091D02F098
:10C9E000F3FB10BD091D02F017FB10BD8A88FF2163
:10C9F000AB31095A8A42F8D10021FF30A130C17110
:10CA000010BD0000E41E002010B50B4600280ED01B
:10CA1000144A117800290CD0D168002909D00446A5
:10CA2000FF34A134E179002905D0112010BD0E207A
:10CA300010BD082010BDFF21AB310B5200219160C9
:10CA4000024621720848A1710188118040885080F7
:10CA50000121184690DF0028ECD10120E071002070
:10CA600010BD0000E41E0020F823002010B504468D
:10CA700000F0E6FF21460948FFF79AFF21460848E3
:10CA800000F05EF8064821460C30FFF7D1FE204644
:10CA900000F03CF9204602F04FFA10BD18210020AA
:10CAA000C4220020002808D00180002A03D0118869
:10CAB000418051888180002070470E20704700001F
:10CAC00070B500281CD00F4B0288448818681421C8
:10CAD0004143401C40070C4D400F186049194C81E0
:10CAE0000220C881081D086100248C810120087281
:10CAF00008714C710A80887003F0B4F9204670BD4B
:10CB00000E2070BDF41E0020F025002008B500287E
:10CB100012D0002910D001236A469370074B13806E
:10CB2000096881600021C943018000214180818022
:10CB30006846FFF707FF08BD0E2008BD0D1800006E
:10CB40001CB5002823D0002921D00A88112A28D01A
:10CB5000382A1FD0392A1AD102888B889A4216D1D6
:10CB60008A8983889A4212D102236A461370038805
:10CB700053808A7CD3074A1C002B09D0D17C927C3D
:10CB8000090211436A4691808268694690471CBD3C
:10CB9000C97CF7E7008889888842F8D103F062F9F8
:10CBA0001CBD028889888A42FAD10021C9430180CC
:10CBB0000021418081801CBD7CB50A78002A34D1D7
:10CBC0008A881A4B9A4230D18A79012A2DD10123C1
:10CBD0006A4613704B8853800022154C0B7A0FE085
:10CBE0000C2555436D18ED89A54208D10C235A43F5
:10CBF00051180B8B6A469380C98AD18002E0521C7F
:10CC00009342EDD801880B4A91420BD0418800290C
:10CC100008D18188002905D1694689884180694603
:10CC2000C98881808268694690477CBD0D180000E4
:10CC3000372A0000FFFF000000B51A4887B00068DF
:10CC4000059000234822184905A802F009FF002892
:10CC500001D0FFF7C9FB6A460021012002F0E8FE7F
:10CC6000002801D0FFF7C0FB104802F05BFE00284F
:10CC700001D0FFF7B9FB684602F0D0FE002801D0D2
:10CC8000FFF7B2FB0A4802F0BFFE002801D0FFF711
:10CC9000ABFB084802F0FEFE002801D0FFF7A4FB22
:10CCA00007B000BD70010200981F0020E01C0020AA
:10CCB0006DCA010089FC01007CB5134E00250C46AD
:10CCC0003060002918D06946002000F0B5F800282F
:10CCD00019D101A9012000F0AFF8002813D168464E
:10CCE00001790020002901D0022004E0694609787A
:10CCF000002900D00B2020707068002802D1FFF7B7
:10CD0000EEFA054628467CBDD41E002010B51C4C0A
:10CD10000188606810290DD011290AD1401E606079
:10CD200007D1FFF7DCFA002803D02168002900D0E2
:10CD3000884710BD00281ED100210122084600F0BE
:10CD4000C9F8002801D0072811D1072202210120AB
:10CD500000F0C0F8002801D0072808D104220221E1
:10CD6000002000F0B7F8002805D0072803D021687C
:10CD7000002900D088476068401C606010BD00003A
:10CD8000D41E002010B5032000F022FA002801D0A4
:10CD9000062800D1002010BDF8B50746002423481E
:10CDA00002E0641C042C1AD2A2008258BA42F8D1C4
:10CDB000042C14D21D481E4E0C38002929D00129FC
:10CDC0000ED002290BD16000201880194578002D63
:10CDD00005D018480169002901D028468847F8BDC8
:10CDE00061006118755C8E19717800290CD01149A9
:10CDF0000A224968806851430E4A521CFFF7B4FB6F
:10CE0000002801D10B4847700A48B1781430015509
:10CE1000DDE78068FFF7E6FB064861006118143023
:10CE20008919005D8D78A842D1D0F8BD8801020033
:10CE30002C230020BC1E002004280CD2074A1269B3
:10CE4000074B80001B5C01209840904300D00120DC
:10CE50000870002070470020FAE70000000500502D
:10CE60008801020070B51A4C042815D007281BD081
:10CE70000A2810D1002000F051F8002801D0FFF757
:10CE8000B3FAFFF77FFF002801D0FFF7ADFA3CDFD0
:10CE900007E0FFF7A9FA70BD1321E08876DF0828C4
:10CEA000F9D00028F5D170BD6078012501280AD19C
:10CEB000A078002807D1A5708BDF002805D00828AE
:10CEC00001D0FFF791FAA57070BD02F0CDFCFAE732
:10CED000B01E002070B50023042811D244000419AC
:10CEE0000D4D012A02D101290DD0002246008019E2
:10CEF000094E801900290CD0012906D0022906D03C
:10CF00000723184670BD0D30C2B22A55F9E74270AA
:10CF1000F7E78270F5E700002C23002010B5054AE2
:10CF20000146127A0020D20702D0084600F054F8D9
:10CF300010BD0000BC1E002070B50E4620490546FD
:10CF40004E608D6000200A61A9071ED500240122D1
:10CF500011462046FFF7BEFF641C042C02D20028B5
:10CF6000F5D012E0002810D1720804211548FFF70F
:10CF7000F3F9002809D1FFF7DDF9002805D11148A0
:10CF8000114A00211438FFF791FAE90706D00F2261
:10CF90000E4952058A600023CB608A6100280DD1BA
:10CFA00008480B4A00211C38FFF780FA002805D1F9
:10CFB0000448084A01211838FFF778FA70BD0000CC
:10CFC000BC1E0020980102000DD201000005005097
:10CFD000D5E601001DC30100FEB57A4D0722EB68BE
:10CFE00092059A4302936B6800939C0006461B19B6
:10CFF00000200121019349050746734C3300FEF7D9
:10D00000F2FC180D1515374755677C887F8891DE2F
:10D010009E9E9E9E9EC8CED1D8DEDE140F21029A1F
:10D0200049059143A160E7602F70FEBDA260E760F3
:10D0300060680F2252055040800209D5A160E76068
:10D04000022E02D1E120C0000AE07D20400107E06D
:10D05000E160A760022E01D1C82001E0FF209130DD
:10D060002E706421FEF762F80099414300223FE0F0
:10D07000A260E76060680F2252055040800204D52C
:10D08000A160E76019204001EAE7E160A760E3E7FB
:10D09000A260E76060680F2252055040800202D50E
:10D0A000A160E760D1E7E160A760D7E7A260E76031
:10D0B00060680F2252055040800202D5A160E760EF
:10D0C00001E0E160A7602E700098410000220FE0AF
:10D0D000A260E76060680F2252055040800202D5CE
:10D0E000A160E76001E0E160A7602E700099002276
:10D0F00036480068FFF738FAFEBDA260E7601BE023
:10D1000061680120800502468A43A2600140E16017
:10D1100010E06068012189050A468243A260084048
:10D12000E060E3E76068012189050A468243A26066
:10D130000840E0600199C9E7E160A7602DE023485D
:10D140004068FFF74FFA11218A1B01D0002807D051
:10D150000F22E96852051140A160E760EF60FEBD53
:10D160000121C905E960012A0CD91046C8214843AC
:10D170006421FDF7DBFF69680022414313484068E2
:10D18000FFF7F2F90F22E96852051140E160A7604C
:10D19000FEBD0F214905A160E7602E70FEBD07228C
:10D1A0009205AAE70D214905A160E76001218905E3
:10D1B000C2E70321C905A160E7608910BCE70F2120
:10D1C0004905B9E7BC1E0020000500507C010200A3
:10D1D000F0B500210B4C0C4D03273F048A00A258E8
:10D1E00092005619326801238B40034000D003237C
:10D1F000BA431B0413433360491C0429EED30020B7
:10D20000F0BD0000880102000007005010B5007852
:10D210000221FFF7C1FD10BD0022D2438300044963
:10D220000428CA5002D30818203002777047000043
:10D23000CC270020F0B50025ED43002A02D00023C2
:10D24000042601E0042308260B4C04E09F00E75964
:10D250007F1C04D05B1CB342F8D32846F0BD2618CF
:10D260005DB2203635709E00A151002AF5D1E1183B
:10D2700020310877F1E70000CC2700200249091887
:10D280002020085670470000CC27002038B50B46F8
:10D290000146FF310246A131887946246043801857
:10D2A0004A79002A08D0521ED2B20C214A431118E2
:10D2B000498A6A46491C01E0C1886A461180008992
:10D2C00050801146184692DF38BD0000F8B53E4840
:10D2D0001422017851430C18E0680C2148433A4964
:10D2E0002769CC314018058941890091241D466881
:10D2F00002F0B0F801463846FDF718FF002932D099
:10D3000000200099A2884D436188AE198918CD1973
:10D3100000222E4900280A6109D002F09BF861889A
:10D32000884222D0B54202D1A08800281DD0A06832
:10D3300002281AD002F08EF8A188CA1901461046B8
:10D34000FDF7F4FE214C8808E06002F083F8014606
:10D350002846FDF7EBFE002911D00020B5422FD062
:10D3600000280ED02CE00120CBE702F073F8014634
:10D370003846FDF7DBFE15494861032021E0012016
:10D38000ECE7ADB2B7B202F065F801463846FDF7FA
:10D39000CDFE064602F05EF801462846FDF7C6FEC1
:10D3A000864201D1781B09E002F054F8064602F0EB
:10D3B00051F801462846FDF7B9FE701A8008206131
:10D3C000022002F0FDFAF8BD30280020141F0020D2
:10D3D00010B5074814220178514308180079042831
:10D3E00002D000F059F810BD012002F0E9FA10BD9A
:10D3F0003028002010B50B4814220178514308183A
:10D40000094AC18811620079012806D0032801D099
:10D41000042801D1FFF75AFF10BD012002F0D0FA15
:10D4200010BD000030280020141F0020142250439B
:10D43000054A002180180171C18001220161C2608A
:10D44000416101817047000030280020F8B5104C80
:10D45000069E65780A2D19D027787D190A2D00D3EC
:10D460000A3D14277D432D1928716A6103C929617A
:10D47000E860EB802E816078401C60700548007881
:10D48000002801D1FFF7B6FF0020F8BD0420F8BD49
:10D4900030280020141F002010B50D4C14212078D6
:10D4A000484301190020091DFEF7DAFF2078FFF735
:10D4B000BDFF6078401E60702078401CC0B22070B4
:10D4C0000A2801D100202070002002F079FA10BD56
:10D4D00030280020F8B52348C16800293ED00E68E6
:10D4E00021494C680769C078E11B0D022D0AED1C2B
:10D4F000002814D101201D4A000450601B4A403A04
:10D5000050601B49400008601A4908601A49012010
:10D5100008602F20FDF7DEFD12490120C870B542DA
:10D5200000D23546E81900020F4B000A403318605C
:10D530000D4A5168001B091B0902090A0002000A72
:10D54000C91C814209D9506818602F20FDF7C2FD1F
:10D5500001200749400480390860F8BD02F02AF92B
:10D56000F8BD00004C1F0020001501404013014091
:10D5700080E200E000E100E00010014070B5094BDE
:10D5800004469E7A082000250E4207D006488442B1
:10D5900002D01889A04202D10020156070BD05207C
:10D5A00070BD00007C270020FFFF00000C214843D5
:10D5B000064910B5012240188272911E0181FF2197
:10D5C000C1720721FDF7F5FD10BD00007C2700208A
:10D5D00010B5134C207900071FD46069401C6061AE
:10D5E000E068002801D0042004E001F04BF8002896
:10D5F00003D0022002F03EFB10BD2069002809D0B4
:10D600006068C10701D00320F4E70121084360608E
:10D610000020EFE7FFF7DCFE10BD02F01FFB10BD9E
:10D62000141F002010B5084841680A0708D48A076B
:10D6300002D5012211434160022002F01BFB10BD04
:10D6400002F00CFB10BD0000141F002010B50446B2
:10D6500001460448FFF7B0FA024821460C30FFF7B4
:10D660002FF910BDC4220020F7B50546FF35064648
:10D67000A135A8794621484387196C790C2060436D
:10D68000C1193A79601C0A3182B0904226D101ABAF
:10D690000022304600F0B0FF002822D010E0401EEB
:10D6A000A04201D1002003E00C206043C0191630D5
:10D6B0000246009001AB304600F09EFF002807D0E4
:10D6C00003980021017001A9049893DF05B0F0BD13
:10D6D00068790099401C641C6871E4B23879A042F2
:10D6E000DDD80398012101700020EFE7F8B500268E
:10D6F0000124154D23E06968F00047183878214669
:10D700002A698140114218D08A432A6101F040FA07
:10D710003A782146EB68914019400346934099427C
:10D720000BD17978012901D0012100E000217B682B
:10D730004140002B01D010469847761CF6B228785D
:10D740008642D8D3F8BD0000381F0020FEB50E4633
:10D75000044681786A46234801F0EEFD002827D16F
:10D7600060780C21204F4843C019807A400620D4AD
:10D77000022E1ED0012E1ED01C4DA0781821484329
:10D7800019490023D039411818226846A8470028B3
:10D7900013D0022E0CD020780C21484312490C31B2
:10D7A0004018807A124980000A58214668469047FE
:10D7B000FEBD104DE1E7104DDFE7022EF8D0607896
:10D7C0000C214843C019817ABF22114081726078D0
:10D7D0001C21484304491823283941181C22684653
:10D7E000A847D8E7041F00207C270020E1FB0100A8
:10D7F000BC010200EDF6010011F6010070B505460E
:10D80000114A12480024182363431B18DB7DFF2BA9
:10D8100004D0641C072CF6D3104670BD0A78022A87
:10D8200009D0182262431018FD22C2750722103059
:10D83000FDF7A6FC04E0182161430818FE21C1751C
:10D840002C700022E8E7000043800000AC26002096
:10D8500070B5064608780D4615284AD007DC2B4CD3
:10D8600011280BD012282AD013284DD13CE02128B2
:10D8700045D0222843D0232846D140E00720FFF797
:10D880004DFB002801D0FEF7AFFD68680422008838
:10D89000E0801E4831460830FDF772FC1B48083016
:10D8A00000F0DCFB002801D0FEF79EFD2078401C34
:10D8B0000006000E207027D101F0D6FF24E0FF21E2
:10D8C000AD311348FDF775FC0020FFF727FB00285A
:10D8D00001D0FEF789FD2078012801D101F0C4FFB5
:10D8E0002078401E20700FE00848083000F0B6FB9A
:10D8F00006E0486801880648FFF786F800E0104611
:10D90000002801D0FEF770FD002070BDB01E002081
:10D91000182100201FB56946087301F0A1FD0028F9
:10D9200001D0FEF761FD03A800F04EFA002801D0F7
:10D93000FEF75AFD01A805210130FDF73AFC104819
:10D94000009002216846017140790122104308438A
:10D9500083231840303043065B0E6846437107232B
:10D9600083711023C371437A13430B434372694697
:10D97000044800F047FB002801D0FEF735FD1FBD2D
:10D9800051D80100B41E0020F7B5FF21A73114467D
:10D99000095C462251430F18384601F0EFFE06009D
:10D9A00033D01A4A906806282FD2214614465022B6
:10D9B0005043174D4622401941803946001DFDF75E
:10D9C000DFFB01980027002804D0A06850214843BD
:10D9D0002F5404E0A0680221502250432954A0682B
:10D9E000502141434919401CCE64A060E16888423F
:10D9F0000BD1002605E0502070434019C16C8847C8
:10DA0000761CE0688642F6D3A760FEBDE41E0020C7
:10DA10001024002030B50D46FF21A7311446095CC3
:10DA20004622514393B0081801F0A8FE030005D028
:10DA300068464480012101700195984713B030BDBC
:10DA4000F0B50646D5480027007895B000285BD091
:10DA5000D34D2868002857D0684600F0A7F9002861
:10DA600001D0FEF7C1FC00201090301D02902C2048
:10DA700069468881FF208870002008700D90C84C8E
:10DA800030880C3C10280ED0B0880DAA0221FFF778
:10DA900075FD002807D10D980C2141430919CA7A58
:10DAA00069468A704870308819287DD02EDC10288D
:10DAB00039D0112879D0132826D1002008900D994B
:10DAC000B74B1C224A43343BD21809920C225143D3
:10DAD0000590069007900919C97A182251431A46F1
:10DAE000A83A89180A910B900C900022B08805ABD7
:10DAF00011467FDF002807D10D980C2148430019FB
:10DB0000817A04221143817215B0F0BDA5491A280B
:10DB10006FD01E286ED05228F6D1A87A80000958FE
:10DB200068468847F0E70DAA01219F48FFF726FDC8
:10DB30000028E9D10D990C20484302220019827275
:10DB400011236A4613715170B18801813146083141
:10DB500007220E46FDF714FB0F9600269049182069
:10DB60007043DC394018072210300F99FDF72CFB69
:10DB7000002803D0761C072EF0D3C6E00D980C21A8
:10DB800048430019C672817A08221143817268469F
:10DB900086708248B1B20EAA083001F0CDFB002891
:10DBA000EBD11C210D9801E03FE011E048437C4996
:10DBB0001823343940181C220EA901F077FCA87AEA
:10DBC0007849800010390A5869460EA890479CE0B1
:10DBD0000D980C2148430119887AFD221040887263
:10DBE000010708D5C0090FD000216846FFF7AEFD38
:10DBF0000AE064E0A5E068468078FF2804D001F0E0
:10DC000051FBFF20694688700D980C21484300198C
:10DC1000817A490703D5697A0127B94369721021CE
:10DC200081721220694608716FE0687A0C21400801
:10DC3000400068720D986B464843011984468A7A01
:10DC4000FB2002408A7214201871307A01270028C4
:10DC500001D0109059E0707A400756D59878FF2887
:10DC600053D008231A438A72727B920709D518236E
:10DC700002465A434A4BDC3BD218D37D5B085B001B
:10DC8000D375CA7AFF2A40D06246A25C022A11D01C
:10DC90001822434E5043DC3E801907221030FDF716
:10DCA0006FFA68468078182148438019C27DFD21AB
:10DCB0000A40C27501216846FFF748FD25E0307A29
:10DCC0000209012A2BD10007000F012827D10D9846
:10DCD0000C2250430219927A120720D53049183984
:10DCE00040180621001DFDF764FA162069460871E8
:10DCF0000D980C2148430119887A602210438872DC
:10DD0000687A012702210843687201A96846109ABF
:10DD1000FEF776FB68460079122814D01CE00D98B7
:10DD20000C2250430019827A80231A4382721520F4
:10DD30006A461071A87A8000095868468847002012
:10DD400087E713206EE70D980C2141430919897A62
:10DD5000012901D0FFF72AFC002F00D1D4E6687A10
:10DD60008007FBD506AA20210F48FFF707FC0028F3
:10DD700004D0687AFD2108406872C5E60020694633
:10DD80000875069848750C2148430019C07A694601
:10DD9000887505A800F0C8FBB6E60000FC1E002050
:10DDA00088270020DC010200FFFF0000002806D0C9
:10DDB000FF21017041708170C170002070470148DF
:10DDC000704700000E800000F0B585B0050031D02E
:10DDD000264800240460447284722046FFF7E6FB64
:10DDE000224878380466446600268466304601F08E
:10DDF00059FA761C072EF9D35C21684681800721E9
:10DE0000C1801B4800901B49684601F0A3FB002815
:10DE10000ED1184E0120083E3070287800280BD013
:10DE200069468888C988484381B2124801F0AEFA31
:10DE300005B0F0BD1048FBE70C4F0025DC3FA9B250
:10DE400002AA0C4801F078FA002809D1182068438A
:10DE5000C0190023182202A901F028FB002801D0D4
:10DE60003470E5E76D1C072DE9D3E1E78827002032
:10DE70007DDE0100041F00200E800000FFB55D481C
:10DE800091B000681A9F1E46002874D05C2F72D88B
:10DE90006846FFF78BFF002801D0FEF7A5FA0024A3
:10DEA000684604700471254605970696A9B20FAA24
:10DEB000514801F041FA002806D108220FA9119813
:10DEC000FDF782F9002818D06D1C072DEED36846A7
:10DED0008578FF2D4FD01298032811D0454818217E
:10DEE000DC38301AFDF722F9012707281ED204A8D2
:10DEF0000290139800280BD011E068468570E6E781
:10DF00005C2F03D04020694608716CE02020FAE7BE
:10DF100038463949A84008394968084261D028463E
:10DF200002F0DEF82020694608714AE031481C21E1
:10DF30003438301AFDF7FAF800281DD02D480C218E
:10DF40001838301AFDF7F2F801002C482CD0402187
:10DF50006A4611712A498E4245D00246A900EC3A20
:10DF60005158B1423DD104A90291C07A854228D1CD
:10DF70006846447025E034E004A8029020206946F9
:10DF800008714C701B4907940C31089140390B9172
:10DF90006946897818225143184A0590D03A891861
:10DFA0000C9107A906910CE0302269460A714C7069
:10DFB000CF70807A800704D410480C380460446025
:10DFC0008460129869460228087910D0022108431B
:10DFD0006946087104A8029001A96846139AFEF7E1
:10DFE0000FFA15B0F0BD694608790321EFE7384311
:10DFF000EFE7000088270020041F00207C27002076
:10E00000B801020070B5064611480D460078002898
:10E010000ED01049002E0ED0002D0CD028680028FC
:10E0200009D00D4C2168002907D00A480A3870BD74
:10E030000848801F70BD084670BD20600522691D1C
:10E04000201DFDF79DF82879A0720020307070BD6A
:10E05000FC1E00200E80000088270020F8B5044632
:10E060002B4801782B4800290ED0002C0AD02178AB
:10E07000002909D1284E3168002905D0617800298E
:10E0800010D102E02348801DF8BD234D0C3DA97A34
:10E09000012907D08907F7D5A1782846C07AFF293A
:10E0A00005D102E01B480830F8BDFF2807D01A4A06
:10E0B000A070343A11461231288985DFF8BD29460F
:10E0C0006846FFF79BFB0028F8D162780C2369466D
:10E0D0005A4309785219D172A1702178594389198C
:10E0E000497AC90710D061780C22514349198A7ABC
:10E0F00020231A438A7221780C22514389194A7AC3
:10E1000002231A434A72F8BD204600F00DFAF8BD0A
:10E11000FC1E00200880000088270020F0B5284A57
:10E120001378284A002B2CD0931D00280BD00029EF
:10E1300009D00C68002C06D08C68002C03D0007825
:10E1400000281ED101E01846F0BD1F4800680028D5
:10E1500017D000231C4C1A4618460C3CE57A854221
:10E1600002D1A57AAD0723D40D7B95420FD918258E
:10E1700006466E43144DDC3D7519EE7DF60702D060
:10E1800005E01046F0BD97008E68521CF5510D79E0
:10E190009D420DD9182506466E430B4DDC3D751981
:10E1A000EE7DB60704D49F0010350E685B1CF55158
:10E1B000401C0728D2D30B710A730020F0BD000069
:10E1C000FC1E0020088000008827002010B50E49A2
:10E1D00000234A788C78A24212D0521CD2B24A70E4
:10E1E000022A00D14B704A78074B920018339A5894
:10E1F0000260086910180002000A0861012010BDC1
:10E200000360002010BD00004C1F0020826883883E
:10E210001A4003689A5C0A708168491C81607047E3
:10E22000C26883881A4003689954C168491CC16058
:10E230007047000010B5002803D0112802D0FEF767
:10E2400025F910BD0248082241681143416010BD04
:10E25000141F002010B51C4C21782046406801296D
:10E2600006D0022929D0032912D1000717D513E0BF
:10E27000000711D415481422017851430818C188A9
:10E28000A28B891A0904090CC18002D001F0AAFCF2
:10E2900010BDFFF701F910BD00F096FB10BD6069DD
:10E2A000401C606100F0EEF9002803D0207801F0F6
:10E2B00087FB10BDFFF78CF810BD60780449800023
:10E2C0000858804710BD0000141F0020302800208F
:10E2D0004002020010B528DFFFF7ACFF10BD10B5FB
:10E2E00029DFFFF7A7FF10BD10B50446C0B2FEF747
:10E2F000F3F9204610BD0020704700207047002031
:10E3000070470000F8B544780C2044430B480021C6
:10E31000034605590C33E3180A46002D07D09E7AB0
:10E32000F70904D0760602D42118AAB2091D18896B
:10E330000323A9DF002800D00148F8BD7027002082
:10E340004180000070B50D46014668780C22084CEB
:10E3500050430019342301F0A9F8002806D1697848
:10E360000C2251436258521C00D1625070BD000013
:10E3700070270020FEB50D46074606206946088135
:10E3800068780C2148431F4E02AA80190089032394
:10E390006946AADF002833D168780C214843741AF3
:10E3A000001969460A89001DFCF70EFF00286878ED
:10E3B00006D00C214843215800290DD0124E0CE004
:10E3C0000C2148438119897A890719D40019002141
:10E3D00001604160816013E00C4E69460A89225059
:10E3E00068780C21484300196946001DFCF7C8FEF7
:10E3F00068780C214843011934230C223846B04771
:10E400000020FEBD7C270020EDF6010011F6010082
:10E4100010B5FFF777FF10BD10B5FFF793FF10BDE4
:10E4200010B5FFF7A7FF10BDF8B50746104E012540
:10E43000BD403068FEF7D6F800280DD10D4C20699C
:10E44000284207D1384600F0A3FB0028E06804D03A
:10E45000284303E0A8432061F8BDA843E060206999
:10E46000002228432061A1683068FEF77DF8F8BDDE
:10E4700054020200381F002070B51B4C20790007A1
:10E480002ED41A481422017851430D182E6900F039
:10E49000E1FF0146E8882A89761E80188019FCF77A
:10E4A00045FE21690025002909D06169814206D114
:10E4B000E560606801210843606000200AE000F028
:10E4C000E1F8002802D00220E56003E0206900287E
:10E4D00003D0032001F0CEFB70BDFEF779FF70BDC5
:10E4E00001F0BCFB70BD0000141F0020302800208C
:10E4F00010B50A78012A06D0022A03D1898805A01E
:10E5000000F0E2F910BDFEF7DBFA0028FAD0FDF7C3
:10E510006BFF10BD48656172742052617465203DC7
:10E520002025640D0A00000070B5044600780C2117
:10E53000124E4843811960780C225043B51A401995
:10E540000089091D7EDF010016D120780C2250437E
:10E550008019427A01231A43427260780C22504398
:10E560004219907A04231843907262780C235A431C
:10E570005219DF2318409072084670BD882700208A
:10E58000F8B51C4C2078002833D02069002807D02B
:10E590000026E068002805D00025002E04D011E0F8
:10E5A0000126F6E70125F8E7684652DF052804D082
:10E5B000002804D0FDF718FF04E0012602E02169DD
:10E5C00000988847002D10D1608869460880A068AF
:10E5D00061DF052804D0002804D0FDF705FF04E022
:10E5E000012502E0E168A0688847002EDCD0002DFC
:10E5F000D3D0F8BD781F002030B50989002A05D096
:10E60000D088491C814213D1002030BD0246FF3220
:10E61000A132947946256C4324182489A142F3D071
:10E62000491C19809179462251430818008902E05B
:10E630001980D088401E5880012030BD1048018CC0
:10E64000C9B2012917D1818C090714D1018D09069E
:10E650000A0F03D1828D1206120F0ED0090F012965
:10E6600003D1828D1206120F07D0032903D1808DAA
:10E670000006000F01D00020704701207047000005
:10E68000C00F00F070B50E481422017851430C18E9
:10E69000256900F0DFFE0146E08822896D1E8018A2
:10E6A0004019FCF743FD07494A69824206D382427A
:10E6B00002D10869002801D0002070BD012070BD82
:10E6C00030280020141F0020800701D00020704750
:10E6D0000120704710B50448017AC90702D00078BC
:10E6E000FEF77AFC10BD0000BC1E0020F8B52C49D6
:10E6F000C8680A690C780F79896886469446009143
:10E700003EE00099E20055182A7836E0182353437A
:10E710006968521CC918AB78D2B2934200D100226A
:10E720000B78022B02D0032B27D123E04E6803463F
:10E73000014603E0B14204D00B46C96900291CD050
:10E74000F8E7002919D08B4208D1C069002805D10B
:10E75000144F0126BE600026B44601270E68C96921
:10E76000D961002909D00B689B190B6005E0017481
:10E77000C06900E000210028F9D169789142C5D133
:10E780002146641EE4B20029BBD1054962460A61F4
:10E79000C8600F71704501D00120F8BD0020F8BDA0
:10E7A0004C1F002000100140F8B5044631480026F7
:10E7B000C168009107784EE02E48F90080680D1876
:10E7C00043E0002C02D02046E4691FE0287818219D
:10E7D00041436A68401CC0B251182870AA78904220
:10E7E00000D12E700A784868012A30D1027C002AB4
:10E7F0002DD18A684260CA6882600A69C26049692C
:10E8000081611C490979002900D046601949436893
:10E810000A699C46991A0902174B090A994202D2C1
:10E820008268891807E06146511A09028268090A5C
:10E830008A4202D9511A016000E006604660012157
:10E8400086600174C66101F08BFA002CB9D128787A
:10E8500069788842BAD138467F1EFFB20028ABD112
:10E860000448C1680098814201D00120F8BD002011
:10E87000F8BD00004C1F0020FFFF7F0030B50E4C9C
:10E8800087B02078002802D0002007B030BD0B4AA6
:10E8900004AB07CA07C308480125401C009008487C
:10E8A00002906802039001950323064A694604A872
:10E8B000FDF7C2FE2570E8E76C1F00205C02020035
:10E8C00028290020F5FE01000FB410B503A9029815
:10E8D000FDF768F810BC08BC04B018471CB500234D
:10E8E0002A4A03211846FDF7F7FD002801D0FDF75D
:10E8F0007BFD274A27490320FEF71EFB002801D095
:10E90000FDF772FD01A90020FEF7D6F9002801D01D
:10E91000FDF76AFD68460079022835D00020694677
:10E920000870FFF7ABFF002801D0FDF75DFD1AA0CE
:10E93000FFF7CAFFFEF780F968460078FEF7EAFFA6
:10E940001D48FEF725F8002801D0FDF74DFD1B48B6
:10E95000009069461A48FEF7D9F8002801D0FDF763
:10E9600043FD18480090164869460C30FDF746FFF5
:10E97000002801D0FDF738FD00F076FF48DF0028C1
:10E98000FCD0FDF731FDF9E70120C8E7E01F0020CA
:10E9900065CE0100CD0C0000486561727420726183
:10E9A000746520636F6C6C6563746F722065786149
:10E9B0006D706C650D0A00004DD60100F1E4010098
:10E9C000C422002011C7010010B504480822416884
:10E9D00091434160007800F0F3FF10BD141F002048
:10E9E0000020704700207047002070478207D30E38
:10E9F000FF229A408907090E10B5994000280BDACA
:10EA000003071B0F083B9C080C4BA400E318DC69B0
:10EA100094430C43DC6107E08408094BA400E4182C
:10EA2000236893430B432360C106C90E012088402D
:10EA3000044908600449086010BD000000ED00E0D2
:10EA400000E400E080E200E000E100E0F3B581B026
:10EA50000F46019800F044FC012400281E4E019846
:10EA600017D0FEF70BFC80192030007F80090328A7
:10EA700002D0012806D007E01848006901998C40AF
:10EA8000204201D1022100E00321019800F02CFA7C
:10EA9000FEBD00F031FC0028FAD00198FEF7EEFB35
:10EAA00005468100C81D0E4AF93089180A6980B2EE
:10EAB00022430A610B49401800210160002FE7D072
:10EAC0000198FEF7DBFB800030580028E0D00648B4
:10EAD000AC404460FEBD0000CC2700200005005083
:10EAE000006500400060004000630040FEB5044641
:10EAF00023480E460019202141560027C817134607
:10EB0000401C01D0082738E0F27819462046FEF76D
:10EB100091FB0546401C2FD0B078002807D019483B
:10EB2000A1000918086802229043086007E000214C
:10EB30007378204600910A46019100F09DF9F07823
:10EB4000002810D01048AA001018317802690F4B25
:10EB50001A400261E206D20C8907890B0A43016957
:10EB60000A43026109E00648327840192030017FEB
:10EB700092011143017700E004273846FEBD0000F2
:10EB8000CC2700200007005000650040FFE0FCFF9C
:10EB900003490969C140C807C00F00D00120704770
:10EBA0000005005070B5124D2879002801D00820CA
:10EBB00070BD0F4900204039421E0B182033401C05
:10EBC000C0B21A702028F8D300242046FEF724FB98
:10EBD000641CE4B2082CF8D303210620FFF706FFDB
:10EBE00001200449C007486001202871002070BD41
:10EBF0000C2800200063004002480079002800D063
:10EC0000012070470C280020F3B52A4C0746E07E0F
:10EC100081B0002801D00820FEBD002F00D1264F72
:10EC2000012638783146814024488160386800F0F8
:10EC300050F90021786800F043F9214DB869686205
:10EC4000787D397D0843E86603CFE8606961387BE9
:10EC5000083F01280FD10021B86800F031F9387B56
:10EC60003146814015488160F86800F032F9F96852
:10EC7000B868A9602861029860603969216000283D
:10EC80000ED0FF230F481D33397F0022C250FF23CF
:10EC90004533C2500D4A0C4850600220FFF7A6FED3
:10ECA000042028600020E0752076A075E676A07626
:10ECB000FEBD0000142800200C02020000050050D8
:10ECC000002500400020004080000200002300409A
:10ECD000F8B5104B81245E680022A4000E4D002E72
:10ECE00000D0AC60DF7D002F0BD01A7E002A04D04C
:10ECF000002E00D06C601120F8BD18610122197639
:10ED000004E0D9750024D8605C761C7600F012F817
:10ED1000F8BD0000142800200023004010B5044C6A
:10ED2000A07E002803D100F091FD0120A07610BD47
:10ED300014280020F8B5234DA87E104301D100F01F
:10ED400085FD6868204C002805D081201F4980007F
:10ED500048600020F8BDFF20453000212150FF21F0
:10ED60002531204600F0DAF80546FF21093120461A
:10ED700000F0D4F80746FF214531204600F0CEF8D8
:10ED80000646394631432943E9D02846304306D167
:10ED900000F032FD0B48C17D407E8142DFD800216A
:10EDA0000848002DC17501D00320F8BD002E01D008
:10EDB0000F20F8BD817E0120002901D02060C8E726
:10EDC0006060C6E7142800200020004000230040B7
:10EDD00010B5034600F048F8002801D0112010BDFE
:10EDE000034A002091759360908200F003F810BDF3
:10EDF00014280020F8B50026194FFF251D357E5137
:10EE00000120B86001F050F8164C6168002910D05C
:10EE100022E0FF2701372946114800F07FF800283B
:10EE200002D1A08AB842F6D1A08AB84201D001F03E
:10EE30003BF8A08AA17D8842EBD3A18AC81FF9388C
:10EE40000CD0074F2946384600F068F80028F9D062
:10EE50000120F8600020A0753046F8BD0F26F9E7C4
:10EE600000200040142800200248807D002800D0A7
:10EE7000012070471428002030B552000A43990041
:10EE8000039C0A432102049D0A4329040A430249C0
:10EE900080004018026030BD0007005030B55200BD
:10EEA0000A439900039C0A432102049D0A43290452
:10EEB0000A43024980004018026030BD000700503C
:10EEC0001CB500220B46009211460192FFF7E6FFA7
:10EED0001CBD1CB5002100910B4601220191114679
:10EEE000FFF7DCFF1CBD0000820006481018026816
:10EEF00003231B049A430260026809040A43026068
:10EF000070470000000700500349401800680128BE
:10EF100000D00020704700000060004040580028EA
:10EF200000D0012070470322120280184068084078
:10EF300000D00120704700007FB5041D0088102814
:10EF40004DD01B2845D01D2805D01F283CD1208836
:10EF5000211D75DF53E020460D300290207B69466D
:10EF6000C00888816A4602A90220FDF7A1F900289D
:10EF700006D06A4602A90320FDF79AF9002823D19A
:10EF8000694689880020204D4B081FE04200009E02
:10EF9000511C715CB25C09020A43AA4215D18BDF95
:10EFA0000020FDF7BBFF002801D0FDF71DFA174830
:10EFB000FD22017800251140017001464560144A88
:10EFC000201D8CDF134885707FBD401C8342DDD837
:10EFD0007FBD20790228FBD100F046FC7FBD0B48A5
:10EFE000218800221838FDF75DFD002801D0FDF7CB
:10EFF000FBF90648218800220C38FDF7F1FB0028B8
:10F00000ECD0FDF7F1F97FBD0D180000DC220020E7
:10F0100074010200B01E0020F3B583B003980C46C3
:10F02000FF3081300988408D81425BD1039F4621AA
:10F03000FF37A137B87948430399461860880028FC
:10F040003DD12046083001903579207A28180528CE
:10F0500000D9052030710020009014E000980A21AA
:10F06000484301990A2241180C20684380190290F4
:10F070000A30891CFCF784F80298002181820098EC
:10F08000401C6D1C00903079A842E7D80C20454305
:10F09000A819C288B87946230399584340180089B3
:10F0A00082420CD23079052809D0787121880398E2
:10F0B000FEF7ECF8010015D00020F87109E00025FA
:10F0C0007D71228869460398FEF7CEFA01000BD0C5
:10F0D000FD7122880398FEF79DFC0A480321017008
:10F0E0002188418005B0F0BD684600780028F9D03D
:10F0F000228801210398FEF747FC2188039800F03D
:10F100009BF8EFE710240020F8B50546FF300C46C9
:10F1100081300988408D814243D12E46FF36A13689
:10F12000B07946214843421970790C23584380181E
:10F130000A308646214660880831002813D10F889E
:10F140001F4BBC460DE0062747437F18BF889F42F0
:10F1500006D106235843401841887046418102E099
:10F16000401C8445EFD800276846077070791179F4
:10F17000401C884203D101206946087016E0707176
:10F18000228869462846FEF76FFA01000AD0F77117
:10F1900022882846FEF73EFC0A4803210170218898
:10F1A0004180F8BD684600780028FAD02288012105
:10F1B0002846FEF7E9FB2188284600F03DF8F8BD17
:10F1C000022900001024002070B50646FF360C46C8
:10F1D0000546A136B079462148434119FF20AB309E
:10F1E0002288405B82420AD16088002808D0002132
:10F1F0002846FEF7C9FB2188284600F01DF870BD9F
:10F2000062890A80A2894A80E289CA80208A0881AC
:10F2100021882846FEF73AF80100F0D00020F0716E
:10F2200022882846FEF7F6FB024803210170218858
:10F23000418070BD10240020F8B50446FF34064616
:10F24000A134207A0F46401CC0B214492072C9680C
:10F25000002588421FD26571A0794621401CC0B2AA
:10F2600041438A19A0710E4980004018018811801D
:10F270004088508015710121384690DF010009D087
:10F28000E5713A463046FEF7C5FB054803211830C4
:10F2900001704780F8BDE571F7E70000E41E00202B
:10F2A000F823002070B5044618200C496043451827
:10F2B000284611300621FBF77CFF00262E606E6089
:10F2C000AE60FF21EE602974E975204600F008FF6A
:10F2D0000249A0001C390E5070BD0000AC26002071
:10F2E0000449081820214156042901DB01207047F8
:10F2F00000207047CC2700200449081820214156DF
:10F30000042901D20120704700207047CC2700203B
:10F3100007490979490701D408207047002804D01B
:10F32000044949780160002070470E2070470000B2
:10F33000141F00203028002030B5124B1B795B07CA
:10F3400001D4082030BD002805D0002A03D004686D
:10F35000002C10D101E00E2030BD0B4B1D68002D9C
:10F3600009D045681889414369185D894543586843
:10F370002818884201D8072030BD14600020516051
:10F3800030BD0000141F0020FC280020FEB50546FB
:10F3900025480E460079400701D40820FEBD002D07
:10F3A00003D02868002834D101E00E20FEBD1F4C98
:10F3B000216800292DD0608921894843616841185E
:10F3C0006868814225D9FFF77FF900280FD0686867
:10F3D000019029680C2251430F1979680091401A55
:10F3E00039890C46FBF7A2FE002912D101E010205A
:10F3F000FEBD21463046FBF799FE002909D1002EBB
:10F4000007D07889444301988119009800198142F6
:10F4100001D90720FEBD0020024600903346294650
:10F420000320FEF713F8FEBD141F0020FC28002067
:10F4300010B507484469601C06D000F00BF801467F
:10F440002046FBF773FE10BD01200007406910BD88
:10F450000010001001200007006980B27047000012
:10F4600070B500240F482546047044702846FDF707
:10F47000DDFF6D1C0A2DF9D30B4D6C80FFF7D8FF13
:10F48000861EFFF7E7FF46430648AE60CC306C614E
:10F490000460048144812C70AC610420EC616860DC
:10F4A000002070BD30280020141F0020FFB5274821
:10F4B00081B000791F4616460D46400702D4082049
:10F4C00005B0F0BD002D06D00198002803D02868B3
:10F4D000002815D101E00E20F2E71D4C206800281D
:10F4E0000ED0618920896268414389186A68914217
:10F4F00006D9002E04D0B04202D3F119814201D9BD
:10F500000720DDE70198FFF7DFF800281BD0384619
:10F51000FFF7DAF8002816D06868FFF7D5F800285A
:10F5200011D068683246C1190198FBF729FE009690
:10F5300028680C2148432458002202212846019BB8
:10F54000A0470020BCE71020BAE70000141F0020ED
:10F55000FC280020F8B52C4D044628790E464007BB
:10F5600001D40820F8BD002C20D0002E1ED0206829
:10F5700000281BD0FFF76EFF0146A088814213D3FD
:10F58000102811D3E08800280ED0FFF751FF471E46
:10F59000FFF760FF4743E288A188A8684A43121832
:10F5A000974201D3890703D00720F8BD0E20F8BD8C
:10F5B0006988012926D031600C22144B51437060B8
:10F5C000CA18506020685850A0881081E088508187
:10F5D000FFF740FF0646FFF73DFFA188E288401E87
:10F5E000514340183146FBF7B7FD0446FFF732FFA1
:10F5F0000146A86861430818A8606888401C6880B4
:10F600000020F8BD0420F8BD141F0020FC280020B5
:10F61000F8B5044620481E46007915460F464007B7
:10F6200001D40820F8BD002F05D0002C03D020689D
:10F63000002815D101E00E20F8BD18480168002906
:10F640000ED04289018940684A431018626890428E
:10F6500006D9002D04D0A94202D3A819884201D9A5
:10F660000720F8BD3846FFF72FF8002811D03046A4
:10F67000FFF72AF800280CD06068FFF725F800286B
:10F6800007D02B463A46214601200096FDF7DEFEC4
:10F69000F8BD1020F8BD0000141F0020FC28002039
:10F6A00010B5114902460878002811D004280FD05F
:10F6B000022A16D0032A0BD10A79120711D48A69BB
:10F6C000521C8A61032A08D0022802D000F078F97F
:10F6D00010BD487800F0CEFA10BD0D20FCF7D6FE24
:10F6E00010BDFEF7B7FD10BD141F0020F8B504468D
:10F6F00020481E46007915460F46400701D40820D1
:10F70000F8BD002F05D0002C03D02068002815D1AB
:10F7100001E00E20F8BD1848016800290ED042898A
:10F72000018940684A4310186268904206D9002D4A
:10F7300004D0A94202D3A819884201D90720F8BDF4
:10F740003846FEF7C1FF002811D03046FEF7BCFF57
:10F7500000280CD06068FEF7B7FF002807D02B46C2
:10F760003A46214604200096FDF770FEF8BD1020B1
:10F77000F8BD0000141F0020FC280020F0B50C4B41
:10F7800000210A4ADC680CE08D00AE18B678877854
:10F79000BE4205D1555B0688B54201D15868F0BD1F
:10F7A000491CA142F0D30020F0BD0000F823002046
:10F7B000E41E002070B501240B49600408600B4969
:10F7C00040108860094940398860094D6C602F20DD
:10F7D000FBF780FCAC60074D00242F202C61FBF769
:10F7E00079FCEC7070BD000080E100E04013014046
:10F7F000001001404C1F002030B50A48FF21C57D94
:10F800000022094C0931094B002D625007D099693B
:10F81000437EC268D154417E491C417630BD98690F
:10F8200030BD0000142800200020004000250040CA
:10F830001FB501236A46137010720348019106C870
:10F84000684690471FBD000014280020FF2205488D
:10F85000253200218150FF220932815001210160AF
:10F86000704700000020004030B595B004A8FFF7B5
:10F870004FFD002801D0FCF7B7FD0498274D002864
:10F8800003D00120E87015B030BD08216846017131
:10F890000024047305A800900DA802901F48694633
:10F8A000001DFEF73BFC002801D0FCF79DFD6846DB
:10F8B00001791B48A0225023002903D16946097B06
:10F8C000002905D06978012902D1A97800290AD038
:10F8D0000178FD25490849002940017002814381D2
:10F8E000446084810BE001780224490849002143E7
:10F8F000017002814381694641601E21818108486F
:10F900008ADF002801D0FCF76FFD0120FDF706FB20
:10F910000028B8D0FCF768FDB5E70000B01E002055
:10F92000DC22002008B502490020009108BD00003B
:10F93000B01E002010B50121202805DA1A4A8140A6
:10F94000114201D1194810BD8107C90E002808DAFB
:10F950000207120F083A9208154B9200D218D2698A
:10F9600004E08208134B9200D2181268CA401106B4
:10F97000890F042911D200290FD002290DD00E4978
:10F980004C68C306DB0E01229A40002C08D04009C7
:10F9900080000B5813430B5004E00448401C10BD7A
:10F9A00006480260002010BDFC06FFBC01200000DC
:10F9B00000ED00E000E400E08C1F002000E100E02A
:10F9C00010B50F490028087009D0012811D002286D
:10F9D00012D0032802D14869FEF77CFC10BD00203C
:10F9E0008861C861074840780028F7D0FDF702FD1C
:10F9F00010BD00F0F7F810BD00F056F810BD000083
:10FA0000141F002030280020002803D00249C860BD
:10FA1000002070470E207047781F00201CB5034956
:10FA200001910091694660DF1CBD0000B01E0020FE
:10FA300070B50E460546144614211046FBF7B9FB77
:10FA40000120002120802161217326726572002D22
:10FA500000D0A072002070BD10B5FCF7B7FC10BD3F
:10FA600070B5002901D08C0701D0072070BD074C6C
:10FA70000125A16062800649636010DF0028F5D18E
:10FA800025701620FFF756FF70BD0000781F00207C
:10FA900059FA0100002803D002490861002070478C
:10FAA0000E207047781F0020F8B5164C14226068AD
:10FAB0004008400060601448017851430E183769CF
:10FAC000FFF7C8FC01463846FBF730FB054660618E
:10FAD000FFF7C0FC0146F0887F1EC019FBF726FB2C
:10FAE00002228542606801D1104300E090436060CB
:10FAF000E1681040084303D0002000F0BBF8F8BDD7
:10FB00000220FAE7141F00203028002010B5024818
:10FB10004069FEF7DFFB10BD141F002010B5FFF792
:10FB200087FC441EFFF796FC4443FFF793FC04490F
:10FB30004A69521E5043CA682146FEF7D0FB10BDE9
:10FB4000141F0020F8B510481422017851430C18F6
:10FB50002569FFF77FFC0146E0882289801840195B
:10FB6000FBF7E4FA0F46FFF763FC461EFFF772FC53
:10FB70004643E0882289F1198018044A4019126925
:10FB8000FEF7ADFBF8BD000030280020141F002058
:10FB900070B5FFF75FFC0546FFF74AFC441EFFF710
:10FBA00059FC60432946FBF7C1FAFEF793FB70BD91
:10FBB00070B5FFF74FFC8608FFF74CFC0749496911
:10FBC00048430446FFF734FC451EFFF743FC6843F7
:10FBD00032462146FEF783FB70BD0000141F002053
:10FBE0000020704770B514481422017851430C1856
:10FBF000241DFFF72FFC6188104E884211D2FFF7B9
:10FC000029FC61880D1AFFF725FC8208A188E068AD
:10FC10004018216940194919FEF761FBFFF71AFCEA
:10FC200007E0A288E06880188A082169FEF757FB80
:10FC30006088F06170BD000030280020141F002093
:10FC400010B505480079000703D4012000F012F830
:10FC500010BD00F003F810BD141F002010B50448BB
:10FC60000822416891434160407800F003F810BDDC
:10FC7000141F0020024948700249800008580047BC
:10FC8000141F00202C02020010B50446FFF708FDE7
:10FC9000022C01D0032C07D10448C178002903D0DD
:10FCA0000021C170FFF7E0FD10BD0000B01E002074
:10FCB00010B505480079000702D4FDF789FB10BD97
:10FCC000FFF7CCFF10BD0000141F0020FEB51F4C35
:10FCD00000252769E06802906846FEF777FA0190F0
:10FCE000FEF704FD06460198002822D00023009864
:10FCF000E16817E00E680A46864202D9301A0860A9
:10FD000012E0801BF31800261660D668D169B4464D
:10FD1000002E07D0FE183602360A566066469660F8
:10FD2000D56115460029E5D12846E160FEF73CFD86
:10FD300006E02846FEF738FD002801D1002E02D04B
:10FD40000298FDF7C7FB00202071FEBD4C1F00206C
:10FD500001200249000508607047000000E200E051
:10FD600010B50E4BD968002906D002680C68A24273
:10FD700004D8A21A0A60C161D86010BD0B4604E025
:10FD80000B46C969121B002904D00C689442F7D3B2
:10FD9000A41A0C600260C161D86110BD4C1F002024
:10FDA000F8B51D4DEC68002C34D01C480027406885
:10FDB0002969401A0602360A2068B04218D8361A55
:10FDC000C7192246107CE46900280FD00020107467
:10FDD0006B69002B07D0916950699847002805D0BE
:10FDE000FCF702FB02E0516990698847002CE3D1DF
:10FDF0006978A878814206D1401CC0B2A870022858
:10FE000001D10020A87004490006800D18310F5060
:10FE1000FFF79EFFF8BD00004C1F002000150140B9
:10FE200010B50E4C21686068884210D014210C4A2D
:10FE3000484381188B78002B0AD0105A083198DF7C
:10FE4000002804D12079401C4007400F606010BD9D
:10FE5000105A8988002296DFF2E70000DC1E00209D
:10FE60005823002010B50E4C21686068884210D0DD
:10FE700014210C4A484381188B78002B0AD0105A61
:10FE8000083198DF002804D12079401C4007400F3A
:10FE9000606010BD105A8988002296DFF2E70000EA
:10FEA000F41E0020F0250020FF2107481D3100220C
:10FEB00042500648828A8168895C828A521C82820A
:10FEC0000348C16170470000002000401428002052
:10FED000002500401FB500216A46117010720448C9
:10FEE00082680192817506C8684690471FBD000070
:10FEF0001428002010B50178022901D0012902D16F
:10FF00004068FCF771FA10BD7CB50178284D0129D5
:10FF10000AD002292FD000292CD129462548FCF7E8
:10FF200075FA002833D036E040680178214810384F
:10FF3000FCF789FA1F4C103C002805D001216A46C5
:10FF400011700190684608E0A068E168081A01286D
:10FF500005D1002069460870684669688847A0682E
:10FF6000E168081AA188884204D811480121401C80
:10FF7000FEF7AEFE7CBD02216A461170C06801909A
:10FF80000B480121401CFEF7A3FE68460CE001214E
:10FF90000748FEF71DFF07488168C0688842E9D11D
:10FFA0000320694608706846696888477CBD000080
:10FFB0000C1F0020BC270020F0B5454D012185B065
:10FFC00049022846FEF7AFFF01270026414C0028D2
:10FFD00024D0FF2125312846FEF7A0FF00281DD0A0
:10FFE000FF2025302E5081203B4980008860A07E74
:10FFF000002800D16F600221684601703749086807
:020000040002F8
:1000000008600390E17D68460172E0680190E67542
:10001000267606CC6846083C90472BE0042128460B
:10002000FEF781FF002825D0FF2109312846FEF781
:1000300075FF00281ED0FFF7DFFBE07D617E884260
:1000400018D1207E002808D0627EE168E075206922
:10005000E0602676667610460AE0A07E002800D191
:100060006F6081201C4980008860E675607EE168D1
:10007000FFF7DEFBFF211D312846FEF74FFF00286A
:100080000DD0A18AA07D814202D2FFF70DFF06E0CC
:10009000FF211D316E50002801D0FFF71BFFFF210B
:1000A00045312846FEF73AFF00280ED0FF204530A4
:1000B0002E50A07E002800D02F60E07D002804D0C4
:1000C000E675607EE168FFF7B3FB05B0F0BD0000A8
:1000D000002000401428002000230040802400401D
:1000E00001218140024842688A4342607047000013
:1000F000FC1E0020EFF30580C005C00D1AD010389B
:1001000040B2002808DA0107090F083989080C4AAB
:1001100089008918C96904E081080A4A8900891898
:1001200009688007C00EC1400806800F012803D06F
:10013000032803D002207047002070470120704739
:1001400000ED00E000E400E042788378521CD2B277
:10015000934200D100220378934201D100207047DE
:100160000A70416840781822504308187047000010
:10017000010000070600180000009001EC2200209A
:100180000C23002038230020110000001200000082
:1001900013000000140000001100030099CD0100BD
:1001A0001200030099CD01001300030099CD010056
:1001B0001400030099CD0100FFFFFFFFE9E90100F2
:1001C00075E30100FFE2010021E40100E5E901001F
:1001D00045E30100FBE2010019E40100E1E901004F
:1001E00005E30100F7E2010011E40100090000004D
:1001F0000B0000000A0000000800000000000000E2
:100200000000000000E0D70103000000090000002A
:100210000B0000000A0000000800000000000000C1
:100220000000000000E0D7010300000091FB010086
:10023000B1FB01000DFB010045FB01001DFB0100AE
:1002400041FC010025D60100D1D50100B1FC01001F
:1002500079E4010008290020030000000B09080AC6
:100260000100000000E0D70188020200B01E00205B
:10027000E800000000BA010070030200981F00208F
:10028000A013000010BA01000002000000000000EE
:10029000000000000000000000000000000000005E
:1002A000000000000000000000000000000000004E
:1002B000000000000000000000000000000000003E
:1002C000000000000000000000000000000000002E
:1002D000000000000000000000000000000000001E
:1002E000000000000000000000000000000000000E
:1002F00000000000000000000000000000000000FE
:1003000000000000000000000000000000000000ED
:1003100000000000000000000000000000000000DD
:1003200000000000000000000000000000000000CD
:1003300000000000000000000000000000000000BD
:1003400000000000000000000000000000000000AD
:10035000000000000000000000000000000000009D
:100360000000000000000000000000000024F40075
:040000050001B0C185
:00000001FF
