:020000040001F9
:10C00000504B00208DC4010095C4010097C401006D
:10C0100099C401009BC401009DC401000000000000
:10C020000000000000000000000000009FC40100AC
:10C03000A1C4010000000000A3C40100A5C40100C8
:10C04000A7C40100A7C40100B5CE0100A7C4010028
:10C05000A7C40100A7C4010051CA0100A7C4010080
:10C06000A7C40100A7C40100A7C40100A7C4010020
:10C07000A7C40100A7C40100A7C40100A7C4010010
:10C08000A7C40100FDCB0100A7C40100A7C40100A3
:10C0900021CC0100A7C4010025CC0100A7C40100E8
:10C0A000A7C40100A7C40100A7C40100A7C40100E0
:10C0B000A7C40100A7C401000000000000000000A8
:10C0C000A7C40100A7C40100A7C40100A7C40100C0
:10C0D000A7C40100A7C40100A7C40100000000001C
:10C0E0000000000000000000000000000000000050
:10C0F0000000000000000000000000000000000040
:10C10000000000000000000000000000000000002F
:10C11000000000000000000000000000000000001F
:10C40000DFF80CD000F084FA00480047D9FD0100A5
:10C41000504B0020401E00BF00BF00BF00BF00BF48
:10C4200000BF00BF00BF00BF00BF00BF00BF00BF14
:10C4300000BF00BF00BF00BF00BF00BF00BF00BF04
:10C4400000BF00BF00BF00BF00BF00BF00BF00BFF4
:10C4500000BF00BF00BF00BF00BF00BF00BF00BFE4
:10C4600000BF00BF00BF00BF00BF00BF00BF00BFD4
:10C4700000BF00BF00BF00BF00BF00BF00BF00BFC4
:10C4800000BF00BF00BFC5D170470000064880470D
:10C4900006480047FEE7FEE7FEE7FEE7FEE7FEE7A9
:10C4A000FEE7FEE7FEE7FEE749CC010001C401001C
:10C4B00040EA01039B0703D009E008C9121F08C026
:10C4C000042AFAD203E011F8013B00F8013B521EA6
:10C4D000F9D27047D2B201E000F8012B491EFBD21D
:10C4E00070470022F6E710B513460A46044619467F
:10C4F000FFF7F0FF204610BD30B50446002003468C
:10C5000000E05B1C934203D2E05CCD5C401BF8D0A2
:10C5100030BD30B50B46014600202022012409E041
:10C5200021FA02F59D4205D303FA02F5491B04FAEC
:10C5300002F52844151EA2F10102F1DC30BD2DE9FF
:10C54000F05F0546002092469B4688460646814697
:10C5500040241BE0284641464746224600F0F9F9B0
:10C5600053465A46C01A914110D3114618462246E6
:10C5700000F0E0F92D1A67EB01084F462246012032
:10C58000002100F0D7F917EB00094E41201EA4F15D
:10C590000104DFDC484631462A464346BDE8F09FA9
:10C5A0002DE9FE4F804681EA0300C00F0C46009043
:10C5B00021F0004123F00045B8EB0200A94105D26B
:10C5C0004046214690461C460B46024623F000405A
:10C5D000104347D0270DC7F30A00C3F30A51029056
:10C5E000401A019040286BDAC3F3130040F4801B1B
:10C5F0000098924620B10023D2EB030A63EB0B0BA9
:10C6000001985946C0F14002504600F093F90646A1
:10C610000D4650465946019A00F0ABF910EB080060
:10C620006141002487EA115284EAE7731A4340D03B
:10C63000009A62B3019A012A4FEA075215DC001BE7
:10C6400061EB02014FF0004202EA0752CDE90042DD
:10C65000001C41F5801132462B4600F0ABF903B0C7
:10C66000BDE8F08F40462146F9E7001B61EB02016F
:10C67000001C41F5801300185B412018A2F500173B
:10C6800047EB030140EAD570B6196D4111E06D0822
:10C690004FEA360645EAC0754FEA0752001B61EBC8
:10C6A0000201001C41F5801149084FEA30000019D1
:10C6B000514132462B4603B0BDE8F04F00F06BB954
:10C6C0000098012240000023D0EB020263EBE073EC
:10C6D000009821464FEAE074B8EB000061EB0401DA
:10C6E000E9E783F000435BE781F0004158E72DE97B
:10C6F000FE4F81EA030404F0004421F0004100945D
:10C700004FF0000B23F0004350EA01045ED052EAE0
:10C7100003045BD0C3F30A54C1F30A552C44A4F2BA
:10C72000F3340194A0FB0254C1F3130141F48011CE
:10C73000C3F3130343F4801301FB024400FB034ED5
:10C74000840A970A44EA815447EA8357A4FB07689E
:10C7500002958D0A05FB07854FEA932C04FB0C54C8
:10C760002705029D4FEA065847EA1637B5EB08053C
:10C770006EEB070C870E920E47EA811742EA83128E
:10C78000A7FB0201B6EB0B0164EB00042B0D43EA9F
:10C790000C335E1844EB1C50DA465146E7FB0201AD
:10C7A000C5F313044FEA0B3343EA14534FEA043240
:10C7B000019C43EA0603A4F10C040294009CCDE919
:10C7C00000B400F0F7F803B0BDE8F08F0020014698
:10C7D000F9E72DE9F04D81EA030404F0004B21F064
:10C7E000004514464FF0000A23F0004150EA0502CC
:10C7F00020D054EA01021DD0C5F30A570246C5F302
:10C800001303C1F31300C1F30A5640F4801543F437
:10C810008013A7EB0608101BD64608F2FD3873EB11
:10C82000050002D308F1010801E092185B41B8F15C
:10C83000000F03DA00200146BDE8F08D00204FF420
:10C840008011064684460EE0171B73EB050705D3DF
:10C85000121B63EB050306434CEA010C49084FEA3F
:10C86000300092185B4150EA0107EDD152EA030013
:10C8700012D082EA040083EA0501084305D0101BA8
:10C88000AB4106D20122002306E000224FF0004314
:10C8900002E06FF0010253101AEB06004CEB085156
:10C8A00010EB0A0041EB0B01BDE8F04D00F073B84E
:10C8B000C1F30A52C1F3130140F2FF3341F4801176
:10C8C0009A4202DA00200146704740F233439A420E
:10C8D000A2F2334202DC524200F03BB800F02AB828
:10C8E00030B5041E71F1000404DB4FF000444042F7
:10C8F00064EB0101141E73F1000405DB1C464FF0CC
:10C900000043524263EB0403994208BF904230BD9A
:10C91000064C074D06E0E06840F0010394E807008C
:10C9200098471034AC42F6D3FFF76EFDB018020002
:10C93000D0180200202A04DB203A00FA02F100207D
:10C9400070479140C2F1200320FA03F3194390404D
:10C950007047202A04DB203A21FA02F000217047B8
:10C9600021FA02F3D040C2F1200291400843194657
:10C970007047202A06DBCB17203A41FA02F043EA3F
:10C98000E07306E041FA02F3D040C2F12002914088
:10C9900008431946704710B5141E73F1000408DAF5
:10C9A000401C41F1000192185B411A4301D120F073
:10C9B000010010BD2DE9F04D92469B4611B1B1FA30
:10C9C00081F202E0B0FA80F220329046FFF7B2FF27
:10C9D00004460F4640EA0A0041EA0B0153465A4614
:10C9E000084313D0114653EA010019D0C8F14002A0
:10C9F0005046FFF7AEFF05460E46504659464246A2
:10CA0000FFF798FF084305D0012004E0204639468F
:10CA1000BDE8F08D0020054346EAE0762C4337431D
:10CA20000A986305E40AA0EB08000022FD0A44EA24
:10CA300047540A3002D500200146E9E701051019E4
:10CA40006941DDE9084500196941BDE8F04DA2E7FB
:10CA50002DE9FC5F0025DFF83491A8464FF480767D
:10CA600001242F46304603F04FFD38B1D9F80403B6
:10CA7000204203D0304603F03DFD2543361D6400BF
:10CA80007F1CB6B2082FEDD34FF4BE74204603F0DE
:10CA90003BFD38B1204603F02DFD3D4845F00045F3
:10CAA000D0F800803B4E15F0FF0F14D00127002472
:10CAB0002F420CD009EB8401D1F81005D1F81015E4
:10CAC000C0F3042056F82420C1F3014190477F00B1
:10CAD000641C082CECD3002D56DA00200190401E77
:10CAE0004CE0701910F8501F90F9000021F0C004BC
:10CAF000401C38D0012000FA04FA1AEA090F32D09B
:10CB00004FEA911B204601F043FE56F820000090AA
:10CB100010B9BBF1030F26D15146BBF1030F02D16F
:10CB2000019808430190A00000F1A040D0F8000750
:10CB30001AEA080FC0F3014002D0022802D012E026
:10CB4000032810D1BBF1030F07D102281AD002210C
:10CB5000204603F0C0FC7F1CFFB2009818B1009A79
:10CB60005946204690476D1C042DBAD3002F0BD098
:10CB700007480068404507D0804601980027814655
:10CB80003D46AEE70321E3E7BDE8FC9F00600040BF
:10CB900010050050C427002000F01F020121914021
:10CBA0004009800000F1E020C0F88012704700F0DA
:10CBB0001F02012191404009800000F1E020C0F8EF
:10CBC0000011704700F01F020121914040098000D0
:10CBD00000F1E020C0F8001270474907090E002854
:10CBE00006DA00F00F0000F1E02080F8141D704715
:10CBF00000F1E02080F80014704700000748002191
:10CC0000C0F84011C0F84411C0F84811C0F84C11E8
:10CC1000C0F80011C0F8041104F094BB00100140EA
:10CC200004F02CBB074810B5406830B1804700289D
:10CC300007D0BDE8104000F047BEBDE8104002F04C
:10CC400047BF10BD781F002070B58D480023021D1E
:10CC50000178101D0124062907D115782D0704D16C
:10CC60000578C5F30315032D02D0062904D00FE083
:10CC7000854E844D75670EE015782D0708D105782F
:10CC8000C5F30315032D06D0042D04D0052D02D0C5
:10CC9000062909D010E04FF08055D5F844527B4E5C
:10CCA000C5F34235356002E015782D0704D10578CB
:10CCB000C5F30315032D02D0062906D011E0744DEB
:10CCC0002E6826F080762E600EE015782D0708D1AC
:10CCD0000578C5F30315032D06D0042D04D0052DCA
:10CCE00002D006290AD011E04FF08045C5F80C317A
:10CCF000C5F81031654D2D1F2B6002E015782D070A
:10CD000004D10578C5F30315032D02D0062905D0FB
:10CD10000CE05E4A0321643211600AE015782D07A9
:10CD200004D10578C5F30315032D02D006290DD0D3
:10CD30006AE0584A05211160564978310C6055491E
:10CD400008310B603F21121D116002E011780907C4
:10CD50005AD10078C0F30310052855D14E48006819
:10CD60004E4908604C48001D0068091D08604A488B
:10CD700008300068091D086047480C300068091D2C
:10CD80000860454810300068091D086042481430AA
:10CD90000068091D08604048183000683F4920318C
:10CDA00008603D481C300068091D08603A48203082
:10CDB0000068091D0860384824300068091D0860B3
:10CDC000354828300068091D086033482C30006859
:10CDD000091D086030483030006830494031086033
:10CDE0002D4834300068091D08602B483830006831
:10CDF000091D086028483C300068091D0860264865
:10CE000040300068091D086021487438016841F409
:10CE100070010160BFF34F8FBFF36F8F4FF0102190
:10CE2000D1F80002002803DBD1F80402002822DA3E
:10CE30001B4A14601B480468002CFCD01524C1F860
:10CE400000420568002DFCD0C1F8044201680029A9
:10CE5000FCD0136001680029FCD0BFF34F8F0C4851
:10CE6000F0380168104A01F4E06111430160BFF33A
:10CE70004F8F00BFFDE70E490C48086070BD0000F1
:10CE8000E00F00F00DF0ADBA00C007403C050040D7
:10CE9000FCED00E0105600400404001020C50040E6
:10CEA00004E5014000E401400400FA050090D003CD
:10CEB0008C1F00200348007F08B104F0D3BB04F0AE
:10CEC0004DBB00001C280020014B024A00F0C6B8F0
:10CED0000DF80100741F002002E008C8121F08C1ED
:10CEE000002AFAD170477047002001E001C1121FEB
:10CEF000002AFBD1704700002DE9FF5FDDE9022029
:10CF0000010DDDF838B0024318D044F61050A1F2FC
:10CF1000FF3141430D140F98012820D0A5EB0B00E1
:10CF2000401C5FEA000A4FF00004474EDFF81C91F6
:10CF3000A046504616D5CAF1000728E00F980124F4
:10CF400043A2012808D0002100980F9BC0E90021CE
:10CF5000C0E90243BDE8FF9F6FEA0B01F4E7CBF1A4
:10CF60000000DEE7074612E0F80707D02246334606
:10CF700040464946FFF7BBFB80468946224633467A
:10CF800010461946FFF7B3FB04460E467F10002FEC
:10CF9000EAD1DDE90201BAF1000F42464B4602DA5E
:10CFA000FFF7A5FB01E0FFF714FC04460E46002244
:10CFB000284BFFF795FC03D84FF0FF30014607E000
:10CFC0000022254B20463146FFF7EAFAFFF770FCB6
:10CFD000102409E0002C0ADB0A220023FFF7AFFA35
:10CFE000019B30321A55641E50EA0102F2D1641CD2
:10CFF000019AC4F1110314440F9A012A03D00122AB
:10D0000008430DD10AE0084304D000204FF0110B73
:10D010000F9080E7A3EB0B056D1E0DE05B4504DD73
:10D020004FF0000205F1010504E003DA4FF00002C1
:10D03000A5F10105002AECD000980F99C0E9023152
:10D04000C0E9004586E70000000024400000F03FF2
:10D05000300000000000F0430000E03F2DE9FF4FEA
:10D0600095B09B468946064600250FE2252877D1D4
:10D0700000242746F84A0121059400E0044316F8ED
:10D08000013F203B01FA03F01042F7D130782A2803
:10D0900011D06FF02F033078A0F13002092A16D892
:10D0A000059A44F0020402EB820203EB42021044B0
:10D0B000761C0590EFE759F8042B0592002A03DA55
:10D0C000504244F40054059044F00204761C307839
:10D0D0002E2816D116F8010F44F004042A280DD08A
:10D0E0006FF02F023078A0F13003092B09D807EB3D
:10D0F000870302EB4303C718761CF3E759F8047B58
:10D10000761C30786C280FD006DC4C2817D06828A5
:10D110000DD06A2814D104E0742810D07A280FD1D9
:10D120000DE044F400140AE044F4801401E044F4F7
:10D1300040147278824202D104F58014761C761C69
:10D14000307866280BD013DC582877D009DC00280B
:10D1500075D04528F6D04628F4D047281AD19DE14D
:10D1600018E0632835D0642879D0652812D195E17C
:10D17000702873D008DC6728F1D069286FD06E283A
:10D180000DD06F2806D1B5E073282CD0752875D046
:10D19000782874D05A46179990476D1C75E1C4F3EE
:10D1A0000250022809D003280DD0D9F80010042815
:10D1B0000DD00D6009F1040967E1D9F80010EA17F4
:10D1C000C1E90052F6E7D9F800100D80F2E70D70C2
:10D1D000F0E719F8041B8DF8001000208DF801000D
:10D1E000EA46012003E059F804AB4FF0FF30610735
:10D1F0004FF0000102D40DE008F101018846B94268
:10D200000FDA8045F8DB1AF808100029F4D108E09D
:10D2100008F1010188468142FADB1AF8081000295A
:10D22000F6D105985B46A0EB080721463846179AC9
:10D2300000F094FA284400EB080507E04DE029E1EE
:10D240000DE01AF8010B5A4617999047B8F10108FA
:10D25000F7D25B4621463846179A13E142E00A228C
:10D260000092C4F302524FF0000A022A08D059F883
:10D2700004CB032A4FEAEC710AD00DE029E02AE042
:10D2800009F1070121F00702F2E802C1914609E025
:10D290000FFA8CFC4FEAEC71042A03D14FFA8CFC94
:10D2A0004FEAEC71002907DA0A460021DCF1000C94
:10D2B00061EB02012D2202E0220504D52B228DF81C
:10D2C0000420012203E0E20701D02022F7E7904684
:10D2D00059E00A2102E010220DE010214FF0000A6F
:10D2E00000910BE010224FF0000A44F004040827DC
:10D2F000009203E008224FF0000A0092C4F30252A9
:10D30000022A05D059F804CB0021032A08D009E0ED
:10D3100009F1070121F00702F2E802C1914605E098
:10D320001FFA8CFC042A01D10CF0FF0C4FF000080E
:10D33000220728D5702806D0009B83F0100353EAFB
:10D340000A0305D00EE040228DF80420012208E0F7
:10D350005CEA010206D030228DF804208DF8050029
:10D3600002229046009B83F0080353EA0A030AD185
:10D370005CEA010201D1620705D530228DF8042054
:10D380004FF001087F1E582804D034A003900EA847
:10D3900002900DE036A0F9E753466046009AFFF789
:10D3A000CEF884460398825C0298401E0290027078
:10D3B0005CEA0100F0D1029806A9081A00F1200ADF
:10D3C000600702D524F4803400E00127574502DDD0
:10D3D000A7EB0A0000E0002000EB0A01009005988E
:10D3E0004144401A0590E00306D45B462146179A53
:10D3F000059800F0B3F90544002706E001A85A4655
:10D40000C05D179990476D1C7F1C4745F6DBE00314
:10D410000CD55B462146179A059800F09FF9054404
:10D4200004E030205A46179990476D1C0099481E19
:10D4300000900029F5DC08E0029802995A4600782D
:10D44000491C0291179990476D1CBAF10001AAF18D
:10D45000010AF1DC65E100000928010030313233B6
:10D460003435363738396162636465660000000020
:10D47000303132333435363738394142434445460A
:10D480000000000000F058F90544761C30780028B0
:10D490007FF4ECAD19B02846BDE8F08F620700D4E8
:10D4A000062709F1070222F0070CFCE80223E146F7
:10D4B00003F000485FEA080C02D00FF2702C0DE078
:10D4C0005FEA045C02D50FF2682C07E05FEAC47CD7
:10D4D00002D00FF2602C01E0AFF2700C4FF0FF3879
:10D4E00023F00043CDF850C065280CD006DC452859
:10D4F00009D046281DD047283DD13DE0662818D0E8
:10D5000067287ED138E00021112F01DB112000E0D7
:10D51000781CCDE9000106A90EA8FFF7EDFCDDE9B6
:10D520000F010E9A03910021009207F1010A049164
:10D530004DE04FF000400097CDE9011006A90EA87C
:10D54000FFF7DAFCDDE90F0203920E9B119900222E
:10D55000DDF80CA00093049211B9791C00EB010ACC
:10D56000B7EB0A0004D4C0F1FF3007F1010A0490C0
:10D57000AAEB0700019044E0012F00DA0127002107
:10D58000112F01DD112000E03846CDE9000106A988
:10D590000EA8FFF7B1FCDDE90F010E9A03910021FF
:10D5A00004910092BA4621070CD40399514500DA40
:10D5B0008A46BAF1010F05DD009AAAF10101515C1A
:10D5C000302908D0B84202DA10F1040F06DA01213E
:10D5D000CDE9011015E0AAF10101E9E7002805DC19
:10D5E000049901440491AAEB000102E0411C514559
:10D5F00000DD8A460499401A401C01904FF000401B
:10D600000290200704D40198504501DBCDF8048036
:10D6100000208DF84F0002980DF14F07B0F1004F38
:10D6200025D02B200E9002984FF0020800280CDA2B
:10D63000404202902D200E9007E00A210298FEF74A
:10D6400068FF3031029007F8011DB8F10001A8F120
:10D650000108F2DC02980028EFD1791E0E980870BC
:10D66000307800F0200040F0450007F8020D12A8C5
:10D67000C01B00F107081498007800B1012000EBEE
:10D680000A01019801EBE07105984144401A401EDF
:10D690000590E00306D45B462146179A059800F0F2
:10D6A0005DF805441498007818B15A4617999047C8
:10D6B0006D1CE00324D55B462146179A059800F0BF
:10D6C0004DF805441CE00498002807DBDDE9030160
:10D6D000884203DD0098405C179901E017993020DB
:10D6E0005A469047049805F10105401C04900198A2
:10D6F000401E019004D12E205A46179990476D1C68
:10D70000BAF10001AAF1010ADDDC05E017F8010B0E
:10D710005A46179990476D1CB8F10001A8F101080D
:10D72000F4DC5B462146179A0598ABE62D00000015
:10D730002B000000200000002DE9F04104460025E8
:10D740001E461746880404D405E039462020B04719
:10D750006D1C641EF9D52846BDE8F0812DE9F04125
:10D76000044600251E469046C80301D5302700E038
:10D770002027880404D505E041463846B0476D1C93
:10D78000641EF9D52846BDE8F08170B500238D8868
:10D790000C680DE0E618E15C7678864206D1E01868
:10D7A000801C491E10609180002070BD0B445B1CE2
:10D7B0009D42EFD8052070BD10B501220221002046
:10D7C00000F000FE08B1072810D107220221012035
:10D7D00000F0F8FD08B1072808D100210A22084608
:10D7E00000F0F0FD08B1072800D1002010BD0000B6
:10D7F000064800684FF40021044A8143121D11605D
:10D80000111D00F40020086070470000040500505E
:10D8100070B50024064D06E06868012110F8340058
:10D8200002F072FB641C28788442F5D3002070BD9E
:10D83000381F0020F8B515460C460646052A01D2C9
:10D840000720F8BD02F042FC18B902F015FC0028D0
:10D85000F7D1104900204E600C70C1E902500E4D06
:10D8600008610DE006EBC4006968009181788DF8CD
:10D8700001100078094A694602F098FB0028E0D1BF
:10D88000641EE4B2EED2BDE8F840054A0021024829
:10D8900000F07CB8381F00209C1802005DF90100E0
:10D8A00009EC0100BFF34F8F05480168054A01F4F8
:10D8B000E06111430160BFF34F8F00BFFDE700003F
:10D8C0000CED00E00400FA050EB500210091CDE951
:10D8D00001106A4644F20100FFF7E4FF0EBD0000AC
:10D8E000014B1B68184700008027002010B5826894
:10D8F000C368934203D001F01BFF002010BD052038
:10D9000010BD29B112B1531E134203D00920704734
:10D910000E2070470160838000218160C16008464D
:10D92000704710B58268C3689A1A83889A4203D8F0
:10D9300001F008FF002010BD042010BD38B50C46D2
:10D94000074BA268097802EB420253F82250054ABD
:10D95000126A0092024604F108002369A84738BD04
:10D9600008290020141F0020074910B50A7802EB8F
:10D97000820201EB8201091DFFF7E0FFBDE81040C4
:10D98000042003F0FFBA00003C280020074B9B68EE
:10D9900023B12AB120B10068037C1BB10820704775
:10D9A0000720704741744261002070474C1F0020DF
:10D9B0002DE9F0478046994614460F4690074FF0F0
:10D9C000000634D11C4D8CB303F0E8F90320C5F8F0
:10D9D0001490287004F11800002107EB4703AC6095
:10D9E00004EBC102491C167056709770506000EB32
:10D9F000C3000329F4DBEE606E70AE701420FFF7F5
:10DA0000CBF806211420FFF7E8F81420FFF7CFF831
:10DA10000A49C1F8008006211120FFF7DEF8074807
:10DA2000001F006828610020BDE8F08701E00720A2
:10DA3000FAE7AE60FBE700004C1F0020081501402C
:10DA40002DE9F843DFF870900D461746D9F8081015
:10DA5000044651B34CB3052D02D20720BDE8F8832C
:10DA6000606910B3607C012821D0002603F070FEAD
:10DA7000D9F80810804601EBC800694603F087FE1C
:10DA8000B8B1012100F8041B0C4910C0096880E8F6
:10DA9000E200D9F8081001EBC8009DF800104170B1
:10DAA0001420FFF78FF80020D8E70820D6E72E468D
:10DAB000DCE70420D2E700004C1F002004150140E1
:10DAC000F8B5124E0446B168E1B1DCB16069C8B185
:10DAD0000027277403F03CFE0546B068694600EB5A
:10DAE000C50003F054FE78B1022101704460B068B3
:10DAF0009DF8001000EBC50041701420FFF762F89C
:10DB00003846F8BD0820F8BD0420F8BD4C1F0020A1
:10DB100070B50446234888B01E460D00426035D0DB
:10DB2000A888296882B22048FFF7EBFE00282ED192
:10DB3000A889A96882B21C481030FFF7E2FE0028CD
:10DB400025D1202219496846FEF7B2FCA06806904C
:10DB5000207900B101208DF814008DF81C606079E7
:10DB600000B10E208DF81500E0780290A0780390A7
:10DB700020780190607800900D49684602F0B0FA74
:10DB8000002804D19DF81D0018B104E0072008B05A
:10DB900070BD02F035FB03480121401C02F0EAFA97
:10DBA000F5E700000C1F0020A42700203418020015
:10DBB000B514020010B501460948FFF7B2FE040093
:10DBC0000CD102F04BFC48B906490548FFF78EFE20
:10DBD00020B90121034802F0B9FB0446204610BDDC
:10DBE000B42700200C1F00202DE9F04104460078E6
:10DBF000184F012606FA00F03860206802F061FC38
:10DC00000021606802F054FC1348144D007FA069A5
:10DC1000C5F82405607D217D0843C5F86C05D4E96D
:10DC20000001C5F80C05C5F81415207D01280FD199
:10DC30000021A06802F03CFC207B86403E60E0684A
:10DC400002F03FFCD4E90201C5F80815C5F810053B
:10DC5000BDE8F081080500501C280020002000408D
:10DC600010B50446087800280ED1204600F03AF896
:10DC700008B1FFF729FE204600F008F8002803D07D
:10DC8000BDE81040FFF720BE10BD000070B518B30E
:10DC90000288A2F57F41FF391CD0104C4388104DFB
:10DCA000206800EB8001401C00F00700206005EBBD
:10DCB000810102204B81C881081D086100248C81EC
:10DCC0000120087208714C710A80887003F07CFB97
:10DCD000204670BD082070BD0E2070BDDC1E0020E7
:10DCE0005023002010B5D8B10188A1F57F42FF3A3A
:10DCF00014D00C4B0C4C1A6802EB8201521C02F03F
:10DD0000070204EB81011A6082888A8000880880FB
:10DD10000020887003F058FB002010BD082010BDC3
:10DD20000E2010BDDC1E00205023002030B10180E9
:10DD300012B11168C0F80210002070470E20704721
:10DD400008B598B191B101228DF8022041F60F0279
:10DD5000ADF800204FF6FF720280002242808280E0
:10DD600009688160684600F08FF808BD0E2008BD84
:10DD70001CB5002820D000291ED00A88112A39D0CD
:10DD8000362A1FD0382A18D0392A15D103888A8814
:10DD9000934211D18B898488A3420DD10B8A012B28
:10DDA0000AD1ADF8022001228DF80020897C8DF87F
:10DDB00004108268694690471CBD008889888842A3
:10DDC000FAD113E003888A889342F5D131F80C3FE9
:10DDD0008488A3420AD1ADF8022002228DF80020E7
:10DDE00089798DF80410826869469047BDE81C4027
:10DDF00003F0EABA028889888A42DDD14FF6FF71C2
:10DE000001800021418081801CBD00007CB50A7822
:10DE1000002A38D18A88A2F5C0530F3B33D18A79C2
:10DE2000012A30D100228DF800204A88ADF8022066
:10DE3000002242F619240B7A14E000BF02EB4205DF
:10DE400001EB8505ED89A5420AD102EB420201EB07
:10DE500082010A8BADF80420C98AADF8061003E0F0
:10DE6000521CD2B29342E9D80188A1F57F42FF3A11
:10DE700006D0418821B9818811B90199C0F80210F2
:10DE80008268694690477CBD70B540B10C4D2978D9
:10DE900039B1044602F066FF28B1002070BD0E20A3
:10DEA00070BD082070BDE868062807D205492268C1
:10DEB00001EB8001401C0A60E860EEE7042070BDC1
:10DEC000E41E0020F023002040B105490022012378
:10DED000CA600B70C1E90102104670470E207047FE
:10DEE000E41E002000281FD000291DD00F4A127800
:10DEF000002A19D00A88112A0ED0302A06D0322AD8
:10DF000007D0332A10D1091D02F014BC091D02F0FC
:10DF100075BC091D02F088BB8988B0F8AA2191421E
:10DF200002D1002180F8A71170470000E41E0020F4
:10DF300010B50B46040009D01148017841B1C16801
:10DF400031B194F8A71129B1112010BD0E2010BDD8
:10DF5000082010BDA4F8AA310021816084F8A8111E
:10DF6000084884F8A611224600682060012118465E
:10DF700090DF0028EDD1012084F8A701002010BD1A
:10DF8000E41E0020F023002010B5044600F0C8FF76
:10DF900021460A48FFF7A6FF2146094800F05AF833
:10DFA000074821460C30FFF7E3FE204600F02AF92F
:10DFB0002046BDE8104002F0BFBA0000102100204A
:10DFC000BC22002030B1018012B11168C0F80210EB
:10DFD000002070470E20704770B5E8B10F4C0288E2
:10DFE000438820680E4D00EB8001401C00F00700C4
:10DFF000206005EB810102204B81C881081D08616A
:10E0000000248C810120087208714C710A8088708C
:10E0100003F0FEF9204670BD0E2070BDF41E0020F6
:10E02000E825002008B598B191B101228DF80220B1
:10E0300041F60D02ADF80020096881604FF6FF71CE
:10E0400001800021418081806846FFF71DFF08BDE7
:10E050000E2008BD1CB5002821D000291FD00A8839
:10E06000112A27D0382A1DD0392A18D102888B8846
:10E070009A4214D18A8983889A4210D102228DF85B
:10E0800000200288ADF802208A7CD30701F101024A
:10E0900006D0518AADF804108268694690471CBDCD
:10E0A000C97CF7E7008889888842F8D1BDE81C4020
:10E0B00003F0AEB9028889888A42F0D14FF6FF7129
:10E0C00001800021418081801CBD7CB50A78002A36
:10E0D00035D18A88A2F5C0530D3B30D18A79012A07
:10E0E0002DD18DF800204A88ADF80220002242F69A
:10E0F00037240B7A12E002EB420501EB8505ED892E
:10E10000A5420AD102EB420201EB82010A8BADF873
:10E110000420C98AADF8061002E0521C9342EAD8E6
:10E120000188A1F57F42FF3A06D0418821B9818854
:10E1300011B90199C0F802108268694690477CBD08
:10E1400000B5184887B0002300680590482216499A
:10E1500005A802F05FFF08B1FFF7B6FB6A46002191
:10E16000012002F041FF08B1FFF7AEFB0F4802F0BB
:10E17000BDFE08B1FFF7A8FB684602F02BFF08B10F
:10E18000FFF7A2FB0A4802F01BFF08B1FFF79CFB58
:10E19000084802F059FF002801D0FFF795FB07B0AF
:10E1A00000BD0000B8170200901F0020E01C0020F6
:10E1B00089DF01003D1202007CB5114E0C004FF0CA
:10E1C0000005306015D06946002000F0B1F8002845
:10E1D00015D101A9012000F0ABF800280FD19DF85E
:10E1E000041009B1022003E09DF8001001B10B20DA
:10E1F0002070706810B9FFF7DFFA054628467CBD2D
:10E20000D41E002010B51A4C0188606810290ED069
:10E2100011292BD1401E606028D1FFF7CDFA0028CC
:10E2200024D02168002921D0BDE810400847D0B98A
:10E2300000210122084600F0C5F808B107280FD1D7
:10E2400007220221012000F0BDF808B1072807D1FC
:10E2500004220221002000F0B5F820B1072802D0E6
:10E26000216801B188476068401C606010BD0000F3
:10E27000D41E002010B5032000F036FA08B106289D
:10E2800000D1002010BD00002DE9F0470746002412
:10E29000244802E0641C042C41D250F82420BA42E5
:10E2A000F8D1042C3BD21F48DFF87C901F4E0C386D
:10E2B000A9F1140841B301290FD002292FD104EB91
:10E2C000440030444578002D29D0D8F8101000299A
:10E2D00025D02846BDE8F047084704EB4401755CAB
:10E2E0000E44717861B1D8F804100F4A01EB810136
:10E2F0004900133A8068FFF7A3FB08B988F801705A
:10E30000B17809F80410DEE78068FFF7D9FB04EB69
:10E310004401314419F804008D78A842D3D0BDE8F7
:10E32000F0870000D0170200D01E00202423002018
:10E3300004280CD2074A1268074B13F8203001203A
:10E340009840904300D001200870002070470020C2
:10E35000FAE7000010050050D017020070B5184C05
:10E36000042810D0072819D00A2825D1002000F051
:10E370004BF808B1FFF7A8FAFFF77CFF08B1FFF7E9
:10E38000A3FA3CDF04E01321E08876DF082813D0ED
:10E39000002811D0BDE87040FFF796BA60780125DB
:10E3A000012808D1A07830B9A5708BDF28B10828E2
:10E3B00001D0FFF789FAA57070BD02F041FDFAE7C0
:10E3C000B01E002070B50023042810D20D4D00EBC4
:10E3D0004004012A02D101290CD00022094E00EB91
:10E3E0004000304461B1012906D0022906D007233C
:10E3F000184670BD0D30C2B22A55F9E74270F7E7F2
:10E400008270F5E724230020044A01460020127A96
:10E41000D20702D0084600F055B87047BC1E002055
:10E4200070B50E462149054600200A61C1E9016523
:10E43000A9071BD50024012211462046FFF7C2FF81
:10E44000641C042C02D20028F5D00FE070B97208C9
:10E4500004211748FFF7EEF940B9FFF7D9F928B9B9
:10E460001348144A00211438FFF790FAE9070AD03C
:10E47000114A4FF4F01111600F4B00221B1D1A605E
:10E480000D4A1032116000280FD109480B4A0021B3
:10E490001C38FFF77BFA002807D1BDE8704004481C
:10E4A0000121074A1838FFF771BA70BDBC1E002061
:10E4B000E017020025E7010008050050DDFB010020
:10E4C000F1D701002DE9F84F854EDFF810A24FF487
:10E4D000E01CF16807462CEA010C009100207168ED
:10E4E0000AF10404251D7F4B4FF400324FF4802BBA
:10E4F00001EB810E8146182F16D2DFE807F00C17CA
:10E50000173A4E607083868F868FEAA0A0A0A0A0E5
:10E51000CAD1D8E1EAEA009A4FF4F01191432160A0
:10E52000C5F8009086F80090BDE8F88FC4F800C0E8
:10E530004846C5F80090DAF800C08CF4F01C5FEA99
:10E540008C3C09D522602860022F02D14FF4E16093
:10E5500008E04FF47A6005E02A602060022F3CD08A
:10E560004FF4C8706422B0FBF2F0414337700022D0
:10E570005EE0C4F800C04846C5F80090DAF800C074
:10E580008CF4F01C5FEA8C3C04D5226028604FF4C8
:10E590004870E7E72A6020601FE0C4F800C04846E2
:10E5A000C5F80090DAF800C08CF4F01C5FEA8C3CEF
:10E5B00002D522602860CCE72A602060D0E7C4F84A
:10E5C00000C04846C5F80090DAF800C08CF4F01C92
:10E5D0005FEA8C3CDED522602860C820C2E7C4F820
:10E5E00000C04846C5F80090DAF800C08CF4F01C72
:10E5F0005FEA8C3C02D52260286001E02A6020603E
:10E60000377014E0C4F800C04DE0DAF800002BEADF
:10E610000002226000F48020286008E0DAF80000A0
:10E620002BEA0001216000F480202860714600225E
:10E630001868BDE8F84FFFF703BA21602EE098464E
:10E640005868FFF73DFAD7F1110100D040B1F168E9
:10E6500001F4F0112160C5F80090C6F80C9063E752
:10E660004FF40022F26001290CD9C82011FB00F1FF
:10E670006420B1FBF0F1706800224143D8F8040037
:10E68000FFF7DEF9F16801F4F0112960C4F8009099
:10E690004AE74FF4F0112160C5F80090377043E766
:10E6A0004FF4E01121604946C5F8009006E04FF4B0
:10E6B000D01121604946C5F800905A462A60BCE74F
:10E6C0004FF4C01121604946C5F800904FF4C022B4
:10E6D000F4E74FF4F01129604946AEE70405005015
:10E6E000BC1E0020C417020070B500210C4D01248F
:10E6F00055F82120920002F1A042D2F8006704FAF6
:10E7000001F3034000D0032326F4403646EA0343D6
:10E71000C2F80037491C0429EAD3002070BD00006C
:10E72000D017020000780221FFF7AEBD05494FF077
:10E73000FF32082841F8202002D3084480F84820FE
:10E7400070470000C4270020F0B54FF0FF3512B12C
:10E750000023082601E008230C260C4C05E000BF2E
:10E7600054F823707F1C04D05B1CB342F8D32846B6
:10E77000F0BD26185DB286F8305044F82310002A08
:10E78000F5D1E11881F84800F1E70000C427002026
:10E790000249084490F9300070470000C427002067
:10E7A00008B5024690F8A6010B46C0EBC00000EB8E
:10E7B000800002EB400092F8A52142B1521ED2B275
:10E7C00002EB420100EB8102518A491C00E0C18842
:10E7D000ADF800100089ADF802006946184692DFD6
:10E7E00008BD00002DE9F0413B48017801EB8101B3
:10E7F00000EB8104D4E9030600EB40013648241DF8
:10E80000CC3000EB8100B0F808804589476802F001
:10E8100032F9B6FBF0F100FB116088B35FF0000045
:10E8200008FB05776188A288DFF8B08011448D1954
:10E830000022C8F8102040B102F01DF9618888421A
:10E8400021D0BD4201D1A088E8B1A06802281AD029
:10E8500002F011F9A18844463144B1FBF0F200FB0B
:10E8600012108008C8F80C0002F005F9B5FBF0F1B1
:10E8700000FB115078B10020BD4228D068B126E0DD
:10E88000FFE70120CCE702F0F6F8B6FBF0F1032039
:10E89000C8F814101CE00120EEE7ADB2BEB202F0E1
:10E8A000EAF8B6FBF0F702F0E6F8B5FBF0F08742C5
:10E8B00001D1701B09E002F0DEF8064602F0DBF839
:10E8C000B5FBF0F100FB1150301A800820610220E6
:10E8D000BDE8F04102F056BB3C280020141F002088
:10E8E0000648017801EB810100EB810000790428E2
:10E8F00001D000F059B8012002F044BB3C280020B0
:10E900000A480B4A017801EB810100EB8100C188C4
:10E9100011620079012805D0032801D0042804D110
:10E92000FFF760BF012002F02DBB70473C2800209C
:10E93000141F002000EB80020548002100EB82003C
:10E9400001220171C180C0E9032141610181704749
:10E950003C2800202DE9F041114D069E6C780A2CD0
:10E960001BD02F783C440A2C00D30A3C04EB8404CF
:10E9700005EB840420716261D1E90001C4E903015F
:10E98000E38026816878401C68700648007808B9E2
:10E99000FFF7B6FF0020BDE8F0810420FBE7000090
:10E9A0003C280020141F002010B50E4C207800EBEE
:10E9B000800004EB80010020091DFEF7BFFF2078D6
:10E9C000FFF7B8FF6078401E60702078401CC0B22E
:10E9D00020700A2801D100202070BDE810400020DE
:10E9E00002F0D0BA3C2800202DE9F05F2648C1682B
:10E9F000F1B3DFF898B00E688146DBF80040076994
:10EA0000C078E11B21F07F45ED1CB0B9DFF88080B4
:10EA10004FF48030C8F84403C8F804031120FEF70F
:10EA2000BBF81120FEF7C3F84FF0010AC8F800A0A8
:10EA30002F20FDF7EFFC89F803A0B54200D2354640
:10EA4000124BE8193C3320F07F401860DBF80010CF
:10EA50005A46091B21F07F41001B20F07F40C91C52
:10EA600081420FD9106818602F20FDF7D3FC00E019
:10EA700004E0BDE8F05F1120FEF7A4B8BDE8F05F48
:10EA800002F08CB9BDE8F09F4C1F00200415014036
:10EA90000010014070B5094B044608209E7A0025FD
:10EAA0000E4208D0A4F57F40FF3802D01889A0425A
:10EAB00002D10020156070BD052070BD74270020B4
:10EAC00000EB40020748012100EB820081724FF603
:10EAD000FF710181FF21C17200210160818081717C
:10EAE000704700007427002010B5134C20790007F0
:10EAF0001ED46069401C6061E06808B104200AE02F
:10EB000001F044F808B1022005E0206960B16068B6
:10EB1000C10704D00320BDE8104002F085BB40F0DF
:10EB2000010060600020F6E7BDE81040FFF7D8BEA6
:10EB3000BDE8104002F06EBB141F00200649486873
:10EB4000020707D4820702D540F001004860022086
:10EB500002F06ABB02F05EBB141F002010B5044631
:10EB600001460548FFF7B1FA21460348BDE81040C9
:10EB70000C30FFF74BB90000BC2200202DE9F84310
:10EB8000054690F8A60195F8A541C0EBC00000EB42
:10EB9000800005EB40060F4604EB4400914606EB6F
:10EBA00080013279601C0A31904226D16B460022E6
:10EBB000284600F0C5FF18B310E0401EA04201D166
:10EBC000002004E004EB440006EB80001630804691
:10EBD00002466B46284600F0B3FF30B10020387083
:10EBE0006946484693DFBDE8F88395F8A50141469C
:10EBF000401C641C85F8A501E4B23079A042DCD841
:10EC0000012038700020EEE72DE9F04100260125B3
:10EC1000144C22E06068226900EBC607387805FAD8
:10EC200000F1114217D08A43226101F01BFA02461B
:10EC30003878E36805FA00F1194002FA00F39942C6
:10EC400009D17978012901D0012100E0002151404A
:10EC50007A6802B19047761CF6B220788642D9D302
:10EC6000BDE8F081381F00202DE9FC410E46044626
:10EC700081786A46254801F07FFE002829D1607816
:10EC8000234F00EB400007EB8000807A400622D43F
:10EC9000022E20D0012E20D01E4D1D49A078D03943
:10ECA00000EB400001EBC001002318226846A84792
:10ECB000A8B1022E0DD02078154900EB40000C3190
:10ECC00001EB80001449807A51F8202021466846E3
:10ECD0009047BDE8FC81114DDFE7114DDDE7022EC5
:10ECE000F7D06078182300EB400007EB8000817AB2
:10ECF00021F040018172064960782839C0EBC000DC
:10ED000001EB80011C226846A847D4E7041F0020BD
:10ED1000742700209D11020004180200E50C020077
:10ED20001D0C020070B5064608780D46152843D024
:10ED300007DC274C11280BD0122824D0132845D1EA
:10ED400035E021283ED022283CD023283ED139E08E
:10ED50000720FFF759FB08B1FEF7B6FD6868008889
:10ED6000E0803068A0601A48083000F0F1FB08B17C
:10ED7000FEF7AAFD2078401C10F0FF00207025D17E
:10ED800002F05EF822E04FF4D6711248FDF7A9FBBD
:10ED90000020FFF739FB08B1FEF796FD2078012827
:10EDA00001D102F04DF82078401E20700EE0084896
:10EDB000083000F0CDFB06E0486801880548FFF701
:10EDC000B7F800E0104608B1FEF77EFD002070BDE8
:10EDD000B01E0020102100201FB58DF80C0001F09E
:10EDE0004FFE08B1FEF770FD03A800F06BFA08B102
:10EDF000FEF76AFD0020CDF80500114800900220C2
:10EE00008DF804009DF80500694620F07C0040F074
:10EE10000300303020F080008DF8050007208DF8C9
:10EE2000060010208DF8070003208DF80900054822
:10EE300000F066FB002801D0FEF746FD1FBD000074
:10EE400025ED0100B41E00202DE9F047894690F819
:10EE5000A6119046C1EBC10101EB810100EB410716
:10EE6000384601F07FFF060039D01E4CA068062806
:10EE700035D21D4D00EB800005EB00104622A0F8B6
:10EE800002803946001DFDF713FB0027B9F1000F82
:10EE900006D0A06800EB800005EB0010077006E0CC
:10EEA000A168022001EB810105EB01110870A06847
:10EEB00000EB800105EB0111401CCE64A060E1680D
:10EEC00088420CD1002606E006EB860005EB001018
:10EED000C16C8847761CE0688642F5D3A760BDE820
:10EEE000F0870000E41E00200824002030B50D4605
:10EEF00090F8A61193B0C1EBC10101EB810114465A
:10EF000000EB410001F02EFF030007D0ADF80240F6
:10EF100001208DF8000068460195984713B030BD78
:10EF20002DE9F04F0646DE48002795B0007800280E
:10EF300069D0DC4D2868002865D005A800F0B6F936
:10EF400008B1FEF7C1FC301D4FF0000803904FF0F0
:10EF5000FF0B2C208DF816B0ADF810008DF8148042
:10EF6000CDF81C80CF4C30880C3CC14610280FD007
:10EF7000B08807AA0221FFF78DFD48B9079800EB7A
:10EF8000400104EB8101C97A8DF816108DF8150047
:10EF90003188DFF810A31929AAF1DC0A70D035DC1A
:10EFA000102940D011296CD013292CD1CDF83090E4
:10EFB00007990AF1A802C1EBC10302EB830201EB3E
:10EFC000410104EB8101CDF82490CDF82890CDF8D3
:10EFD0002C900D92C97ACDF8409001EB41020AEBDA
:10EFE000C201CDE90E190022B08809AB11467FDFBE
:10EFF000002808D1079800EB400004EB8000817ADC
:10F0000041F00401817215B0BDE8F08FA6481A29BD
:10F0100073D01E2972D05229F5D1A97A50F8211047
:10F0200005A88847EFE707AA01214FF6FF70FFF711
:10F0300031FD0028E7D10798022200EB400104EBE4
:10F0400081018A7211228DF808208DF81500B08890
:10F05000088156F8080F0860B0888880B079B346F8
:10F060008871002606EB46010AEBC10007225946CB
:10F070001030FDF741FA28B1761C072EF2D3D6E006
:10F0800059E028E0079811AA00EB400004EB80004B
:10F09000C672817A41F00801817281488DF816604C
:10F0A000B1B2083001F068FC002813D1079818238A
:10F0B000C0EBC0017B481C22343800EB810011A951
:10F0C00001F004FD7849A87A103951F8202005A9EB
:10F0D00011A89047ABE0079800EB400004EB8001DB
:10F0E000887A20F002008872010708D500060ED544
:10F0F000002105A8FFF7B8FD09E060E0A1E09DF858
:10F100001600FF2803D001F0EFFB8DF816B007982A
:10F1100000EB400004EB8000817A490704D5697A4E
:10F12000012721F001016972102181725FF0120044
:10F130008DF808007BE0687A20F00100687207987B
:10F1400000EB400204EB8200817A21F00403837219
:10F1500014218DF80810317A012709B1884666E03C
:10F16000717A490763D59DF81610FF295FD043F0E7
:10F1700008038372737B9B0707D501EB41060AEBFB
:10F18000C603DE7D26F00106DE75C37AFF2B4ED066
:10F1900014F82220022A0DD001EB41020AEBC20131
:10F1A00002680A6182888A8280798875C87D20F029
:10F1B0000200C875012105A8FFF756FD37E0317A36
:10F1C0000122B2EB111F1FD101F00F0101291BD148
:10F1D000079901EB410104EB8102937A1E0713D5D5
:10F1E0003048183800EB81011620C1F80490A1F8CE
:10F1F00008908DF8080043F060009072687A01274B
:10F2000040F00200687212E0079901EB410104EB43
:10F2100081018A7A42F080028A7215218DF80810E5
:10F22000A97A50F8211005A888474FF000084246F7
:10F2300002A905A8FEF754FB9DF80800122802D089
:10F240000BE0132074E7079800EB400104EB810109
:10F25000897A012901D0FFF733FC002F3FF4E2AE99
:10F26000687A80077FF5DEAE06AA20214FF6FF7090
:10F27000FFF710FC20B1687A20F002006872C2E645
:10F280008DF8049006988DF8050000EB400004EB23
:10F290008000C07A8DF8060001A800F0E7FBB2E616
:10F2A000FC1E0020802700202418020030B1FF211E
:10F2B000017041708170C1700020704748F20E00EB
:10F2C000704700002DE9FF41050033D02748002496
:10F2D0000460447284722046FFF7F2FB23487838BA
:10F2E0000026046644668466304601F0FDFA761C0A
:10F2F000072EF9D35C20ADF804000720ADF8060016
:10F300001B4800901B49684601F02EFC00280ED1D6
:10F31000184E0120083E3070287870B1BDF8040006
:10F32000BDF80610484381B2124801F04BFB04B00F
:10F33000BDE8F08148F20E00F9E70C4F0025DC3FF4
:10F34000A9B202AA0B4801F017FB48B905EB45002A
:10F3500007EBC0000023182202A901F0B7FB08B197
:10F360003470E4E76D1C072DEAD3E0E78027002026
:10F3700079F30100041F00202DE9F04F80465D481D
:10F3800091B01E4600681A9F93468A46002872D0A4
:10F390005C2F70D86846FFF789FF08B1FEF794FA32
:10F3A00000248DF800408DF80440CDE9057625460F
:10F3B000A9B20FAA504801F0DFFA28B908220FA914
:10F3C0004046FDF799F8E8B16D1C072DF0D300BF5A
:10F3D0009DF80200FF284ED04FF020094FF0400C5E
:10F3E00004ADBAF1030F10D0424B1822DC3BF11AE6
:10F3F000B1FBF2F1012207291AD20295BBF1000FED
:10F400000BD010E08DF80250E2E75C2F02D08DF8AF
:10F4100004C066E08DF8049063E037498240083903
:10F4200049680A425AD002F089F98DF8049045E003
:10F4300030494FF01C083439771AB7FBF8F7DFB1C1
:10F4400001F11C03F11A0C27B1FBF7F703F10C01D2
:10F450003FB32A4A8DF804C0964242D0A1F1EC0293
:10F4600052F82020B24239D10295C97A884225D17A
:10F470008DF8014022E031E01E4A8DF8049002959B
:10F480008DF801400C320B91CDE907429DF8021036
:10F4900001EB410103EBC1010C9107A9CDE90591F5
:10F4A0000CE030208DF801408DF804008DF8032029
:10F4B000887A800702D41C605C609C609DF8040020
:10F4C000BAF1020F12D040F0020000BF8DF8040024
:10F4D0005A4601A968460295FEF702FA11B0BDE846
:10F4E000F08F9DF8040040F00300EFE740F00100CA
:10F4F000ECE7000080270020041F00200018020015
:10F50000114A10B512785AB148F20E0258B151B1F1
:10F510000B6843B10D4A14683CB148F2040010BDB9
:10F5200048F2080010BD104610BD1360074BD1F81B
:10F530000540783BDC674C7A83F88040097991720A
:10F5400000210170084610BDFC1E0020802700200D
:10F55000F8B53E4948F208020978002974D018B17C
:10F560000178002970D102E048F20E00F8BD384C55
:10F570002168002968D0417861B9A4F10C03997A17
:10F58000012907D089075FD519468278C97AFF2AF1
:10F5900005D102E048F21000F8BDFF2907D02C4A3F
:10F5A0008170343A02F11201188985DF4BE0284D51
:10F5B00000216E4648F24302B5F1DC0501EB41073C
:10F5C00005EBC707FF7DFF2F03D0491C0729F5D3A3
:10F5D0003AE01A78022A01EB410205EBC20208D098
:10F5E000FD25D5751F6817619F8897829D79957550
:10F5F00001E0FE25D575317045789DF8001005EBCA
:10F60000450503EB85050022E9728170017801EB65
:10F61000410104EB8101497AC90712D0417801EB1D
:10F62000410103EB81018B7A43F020038B72007858
:10F6300000EB400004EB8000417A41F0020141728E
:10F6400002E000F013FA02461046F8BDFC1E00204E
:10F6500080270020F0B5244A137848F2080233B31B
:10F66000931D38B131B10C6824B18C6814B10078A5
:10F67000E8B901E01846F0BD1C480068B8B10023A5
:10F680001A4C1A460C3C1846A4F1D005E67A86427C
:10F6900002D1A67AB6071FD40E7B96420DD900EB95
:10F6A000400605EBC606F77DFF0702D005E01046D1
:10F6B000F0BD8F6847F82260521C0E799E420BD92C
:10F6C00000EB400605EBC606F77DBF0704D40F68C4
:10F6D000103647F823605B1C401C0728D6D30B71FB
:10F6E0000A730020F0BD0000FC1E002080270020CF
:10F6F0000E4910B54A788C780023A24212D0521CD1
:10F70000D2B24A70022A00D14B70084A4B781832A4
:10F7100052F8232002600869104420F07F400861FD
:10F72000012010BD0360002010BD00004C1F002010
:10F73000826883881A4003689A5C0A708168491C51
:10F7400081607047C26883881A4003689954C16811
:10F75000491CC16070470000002808D0112801D062
:10F76000FEF702B90248416841F008014160704764
:10F77000141F002010B51F4C204621784068012935
:10F7800010D002292DD0032932D1000725D4606979
:10F79000401C606100F0FAF9D8B12078BDE8104053
:10F7A00001F0F0BB000718D41348A28B017801EBDD
:10F7B000810100EB8100C188891A0904090CC1800C
:10F7C00003D0BDE8104001F0EBBCBDE81040FFF7EE
:10F7D000EBB8BDE81040FFF783B8BDE8104000F07B
:10F7E00067BB0648617850F82100BDE8104000472B
:10F7F00010BD0000141F00203C28002088180200C3
:10F8000028DFFFF7A9BF29DFFFF7A6BF10B5044621
:10F81000C0B2FEF7CFF9204610BD0020704700208F
:10F8200070470020704700002DE9F04140780F4CF0
:10F8300000EB4003002154F8235004F10C000A4669
:10F8400000EB830045B1867A370605D5760603D4EA
:10F8500004EB8301AAB2091D00890323A9DF002854
:10F8600001D048F24100BDE8F08100006827002087
:10F8700070B50D46014668780A4C00EB400004EB79
:10F88000800034230C2201F021F9002808D1697886
:10F8900001EB410154F82120521C01D144F82120F0
:10F8A00070BD000068270020FEB507460620ADF8B1
:10F8B00008004878234E00EB400006EB80000D4620
:10F8C0000089032302AA6946AADF08BB6878A6F16B
:10F8D0000C0400EB400004EB8000BDF808206946F2
:10F8E000001DFCF709FE0028687800EB400004D0FA
:10F8F00054F8201069B1144E0CE006EB8001897AAF
:10F9000089071DD404EB8000002101604160816003
:10F9100016E00E4EBDF8082044F8202068786946AD
:10F9200000EB400004EB8000001DFCF7C1FD68788F
:10F93000342300EB400004EB80010C223846B04732
:10F940000020FEBD74270020E50C02001D0C020003
:10F95000FFF76ABFFFF78CBFFFF7A6BF2DE9F041A5
:10F96000124E07460125BD403068FEF7A9F8002871
:10F970000DD10F4C2069284207D1384600F072FBA8
:10F980000028E06805D0284304E0A8432061BDE8D2
:10F99000F081A843E060206928432061A1683068B5
:10F9A000BDE8F0410022FEF74BB800009C180200B1
:10F9B000381F002070B51B4C207900072DD41A4841
:10F9C000017801EB810100EB81052E6901F053F80C
:10F9D000E9882A89761E11443144B1FBF0F021698F
:10F9E000002549B16169814206D1E560606840F057
:10F9F00001006060002008E000F0C8F810B10220AB
:10FA0000E56002E0206920B10320BDE8704001F00C
:10FA10000BBCBDE87040FEF763BFBDE8704001F06D
:10FA2000F9BB0000141F00203C28002010B50A7804
:10FA3000012A07D0022A0DD18988BDE8104006A00E
:10FA400000F0C0B9FEF7C8FA002803D0BDE81040A6
:10FA5000FDF73ABF10BD0000486561727420526125
:10FA60007465203D2025640D0A00000070B5044631
:10FA70000078164E00EB400006EB80016078A6F19E
:10FA80000C0500EB400005EB8000091D00897EDFBE
:10FA9000002819D1217801EB410106EB81014A7A56
:10FAA00042F001024A72617801EB410105EB8102EB
:10FAB000917A41F004019172627821F0200102EB09
:10FAC000420205EB8202917270BD00008027002087
:10FAD000F8B51A4C207800282ED0206928B10026CD
:10FAE000E06820B1002526B110E00126F8E70125E5
:10FAF000F9E7684652DF052803D020B1FDF7E4FEA0
:10FB000004E0012602E021690098884785B96088F1
:10FB1000ADF800006946A06861DF052803D020B178
:10FB2000FDF7D2FE04E0012502E0D4E90201884796
:10FB3000002EDED0002DD6D0F8BD0000781F0020AA
:10FB400009892AB1D088491C814218D10020704708
:10FB500090F8A621C2EBC20202EB820200EB420245
:10FB600012899142F2D0491C198090F8A611C1EB7C
:10FB7000C10101EB810100EB4100008902E0198025
:10FB8000D088401E588001207047000070B50E4894
:10FB9000017801EB810100EB8104256900F06BFF26
:10FBA000E18822896D1E11442944B1FBF0F1074818
:10FBB00042698A4205D301D1006910B14FF00000BB
:10FBC00070BD4FF0010070BD3C280020141F0020C4
:10FBD000800701D000207047012070470348017A58
:10FBE000C90702D00078FEF76DBC7047BC1E00202C
:10FBF0002DE9F047DFF8ACA0DAF80C009AF80040E5
:10FC000080469AF80460DAF80890DAF810703AE062
:10FC100009EBC4052A7833E002EB42016B68521C01
:10FC200003EBC101AB78D2B2934200D100220B7832
:10FC3000022B02D0032B23D11FE0D1F804C00346CE
:10FC4000014603E0614503D00B46C969C1B1F9E73C
:10FC5000B1B18B4205D1C06918B9134F0126BE60FE
:10FC60000027D1F800C0C969D96149B10B68634464
:10FC70000B6005E00174C06900E000210028F9D1A3
:10FC800069789142C8D1641EE4B2C1D2CAE90307BF
:10FC90008AF80460404502D00120BDE8F0870020CA
:10FCA000FBE700004C1F0020001001402DE9F04749
:10FCB00005462F48002680460778D0F80C904BE088
:10FCC000D8F8080000EBC70440E002D02846ED69F0
:10FCD0001EE02078616800EB4002401CC0B201EBDE
:10FCE000C2012070A278904200D126700A7848683C
:10FCF000012A2DD1027C5ABB8A684260CA688260A0
:10FD00000A69C2604969816198F8041001B14660CE
:10FD10004268D8F81030DFF85CC0D11A21F07F417A
:10FD2000614502D28268114406E0991A826821F086
:10FD30007F418A4202D9511A016000E006604660A4
:10FD4000012186600174C66101F0DEFA002DBCD18C
:10FD5000207861788842BCD17F1EFFB2B0D2D8F83B
:10FD60000C10494502D00120BDE8F0870020FBE7D8
:10FD70004C1F0020FFFF7F0030B50E4C87B020786D
:10FD800010B1002007B030BD0B4A04AB012507CAF3
:10FD900083E8070007480623401CCDE90005074813
:10FDA000029068020390064A694604A8FDF7B0FE77
:10FDB0002570E7E76C1F0020A418020034290020FA
:10FDC000A11402000FB410B503A90298FDF77CF846
:10FDD00010BC5DF814FB000008B50023264A03217F
:10FDE0001846FDF7E5FD08B1FDF76EFD234A40F624
:10FDF000CD410320FEF714FB08B1FDF765FD694610
:10FE00000020FEF7D9F908B1FDF75EFD9DF800006E
:10FE100002282FD05FF00004FFF7AEFF08B1FDF716
:10FE200053FD17A0FFF7CEFFFEF78AF92046FEF735
:10FE3000D3FF1B48FEF748F808B1FDF745FD194808
:10FE4000009069461848FEF7EDF808B1FDF73CFD53
:10FE500016480090144869460C30FDF771FF08B150
:10FE6000FDF732FD00F0ECFF48DF0028FCD0FDF785
:10FE70002BFDF9E70124CFE7D81F00205DE3010047
:10FE80004865617274207261746520636F6C6C6583
:10FE900063746F72206578616D706C650D0A000087
:10FEA0005DEB01002DFA0100BC22002061DC0100A5
:10FEB0000348416821F008014160007801F062B810
:10FEC000141F00200020704700207047002070475A
:10FED0004907090E002806DA00F00F0202F1E022BD
:10FEE00082F8141D03E000F1E02282F8001400F013
:10FEF0001F02012191404009800000F1E020C0F87C
:10FF00008012C0F8001170472DE9F04788468146FD
:10FF100000F008FD0124224E0028484618D0FEF7C4
:10FF200037FC304490F848008009032802D00128AB
:10FF300006D007E01B48006804FA09F4204201D10A
:10FF4000022100E003214846BDE8F04700F0C3BAB3
:10FF500000F0F4FC002820D04846FEF719FC0546C6
:10FF6000114F4FF4807007EB850100EB8500D1F84D
:10FF7000102580B242F00102C1F8102500F0BAFA53
:10FF8000B8F1000F09D04846FEF702FC56F82000F1
:10FF9000002802D0AC40C7F80443BDE8F087000059
:10FFA000C427002010050050006000402DE9FC41EE
:10FFB000DFF8A480044608EB0400002790F9300025
:10FFC0001346C0170E46401C01D0082740E0F278C7
:10FFD00019462046FEF7B8FB0546401C37D0B078DE
:10FFE00048B1A00000F1A040D0F8001721F00201B4
:10FFF000C0F8001707E000217378204600910A46F8
:020000040002F8
:10000000019100F033FAF078C0B11448317800EB78
:100010008500D0F81025124B1A40C0F810254FF477
:10002000F8524FF4403302EA042203EA01410A4342
:10003000D0F810150A43C0F8102509E008EB0500B8
:10004000327810F8481F41EA8211017000E004275D
:100050003846BDE8FC810000C42700200060004055
:10006000FFE0FCFF03490968C14011F0010000D026
:10007000012070471005005070B5124D95F85400DE
:1000800008B1082070BD0020411E2A18401CC0B2D3
:1000900082F830102028F8D300242046FEF746FBD3
:1000A000641CE4B20C2CF8D306210846FFF710FFBD
:1000B00005494FF00040C1F80403012085F85400C1
:1000C000002070BDC427002000600040034890F865
:1000D0005400002800D0012070470000C4270020F1
:1000E0002DE9F0411E4C07460D46E07E10B1082078
:1000F000BDE8F08107B91B4F787F20773846FDF7C0
:1001000073FD6560386920602800174E4FF00005C8
:1001100016D0397F207F48B1C6F81051C6F820515B
:10012000C6F82451C6F84451104804E0C6F81C51E2
:10013000C6F844510E48C6F804030220FFF7C8FE73
:10014000207F08B1082000E00420C6F80005E5750E
:100150002576A5750120E076A5760020C8E7000089
:100160001C28002054180200002000401003020048
:10017000800002002DE9F0411F4B1C7F3CB14FF481
:100180000052B2EB104F02D01020BDE8F081D3F83E
:1001900004C00022194D4FF404764FF40177BCF1EE
:1001A000000F05D014B1C5F8086301E0C5F8087365
:1001B00093F817E0BEF1000F10D01A7E52B1BCF1D7
:1001C000000F05D014B1C5F8046301E0C5F804734D
:1001D0001120DAE718610122197604E0D9750025AB
:1001E000D8605D761D761CB1BDE8F04100F066B8C0
:1001F000BDE8F04100F014B81C28002000200040A9
:1002000010B5064C207F002806D1A07E002803D11F
:1002100000F00AFE0120A07610BD00001C2800207E
:100220002DE9F05F234DA87E104301D100F0FCFDC5
:10023000214C686830B14FF40170C4F80403002009
:10024000BDE8F09F4FF000094FF4A27AC4F8449142
:100250004FF4927BA8465946204600F05DF90546CA
:100260004FF48471204600F057F907465146204666
:1002700000F052F9064647EA06012943EBD055EA59
:10028000060007D100F0A8FD98F8171098F819009B
:100290008142E0D888F817900DB10320D0E70EB165
:1002A0000F20CDE798F81A10012009B12060C6E7A9
:1002B0006060C4E71C280020002000402DE9F05FAA
:1002C000204C00264FF48873C4F810614FF4A275D7
:1002D000C4F84461C4F83405C4F838158AB1D4F8B8
:1002E000000240F02000C4F80002DFF85C80D8F87B
:1002F000040048B14FF40470C4F804030020BDE8C2
:10030000F09F01202060F0E79A46A9464FF4927BC7
:100310005146204600F00BF905464946204600F0BC
:1003200006F907465946204600F001F93D430543CA
:10033000EED088F8176008B10320E0E7002FDDD089
:100340000F20DCE7002000401C2800202DE9F047AA
:10035000204D0246287F38B14FF40050B0EB124FC9
:1003600002D01020BDE8F08700F078F808B1112025
:10037000F8E7A9750023AA60AB82287F28B3164C42
:1003800000264FF490709846C4F820314FF4AC73B7
:10039000C4F85881C4F84425C4F848150121A16067
:1003A000696881B9824699465146204600F0BFF8F7
:1003B00007464946204600F0BAF80743F4D000B19A
:1003C0000F2685F816803046CCE7BDE8F04700F0F0
:1003D00005B800001C280020002000402DE9F05F37
:1003E0001C4F00254FF48E7A2E46C7F81C514FF053
:1003F0000108C7F8088001F02FF8174CB81561689C
:1004000079B123E05F465146484600F085F810B9BF
:10041000A08AB842F7D1A08AB84204D001F01CF8F3
:1004200001E08346B946A08AA17D8842EAD3A08A2A
:10043000584501D10F2508E04F465146384600F097
:100440006BF80028F9D0C7F80C80A6752846BDE8DF
:10045000F09F0000002000401C2800200248807D02
:10046000002800D0012070471C28002030B541EA48
:100470004201DDE9034541EA8301800041EA0421AC
:1004800000F1A04041EA0541C0F8001730BD30B589
:1004900041EA4201DDE9034541EA8301800041EA86
:1004A000042100F1A04041EA0541C0F8001730BD29
:1004B0001CB500220B46009211460192FFF7E7FFA0
:1004C0001CBD1CB5002100910B4601220191114673
:1004D000FFF7DDFF1CBD800000F5E06000F1A040EB
:1004E000026822F440320260026842EA014101607F
:1004F00070470000034908B5084400210160006806
:10050000009008BD0060004002494058012800D01A
:1005100000207047006000404058002800D00120B3
:100520007047D0F80403084000D0012070474058BD
:10053000002800D0012070472DE9FF41041D0088EC
:10054000102855D01B284CD01D2805D01F2841D17C
:100550002088211D75DF5AE004F10D000290207BF8
:100560006A46C008ADF80C0002A90220FDF70DF99B
:1005700030B16A4602A90320FDF707F9002829D106
:10058000002001254FF6FF7641F60D07BDF8042047
:1005900023E000BF009905EB4003C95C06EA012394
:1005A000009911F810101943B94215D18BDF0020C2
:1005B000FDF72AFF08B1FDF787F918480025184A0A
:1005C000017821F00201017001464560201D8CDF99
:1005D00014488570BDE8FF81401CB0EB520FD9D3A1
:1005E000F8E720790228F5D1BDE8FF4100F028BCEA
:1005F0000A48218800221838FDF7E4FC08B1FDF70D
:1006000063F90648218800220C38FDF78FFB00288B
:10061000E0D004B0BDE8F041FDF756B9D422002087
:10062000BC170200B01E00202DE9F84F05460C460D
:100630000888B5F8AA11884254D195F8A601DFF8C8
:10064000F0A0C0EBC00000EB800005EB400160882B
:100650004FF003094FF00008F0BB2689087904F138
:100660000802F3B250FA86F6052E01D8034400E0E2
:1006700005230B71002315E000EB400603EB830715
:1006800002EB470701EB8606D7F802C0C6F80AC09E
:10069000D7F806C0C6F80EC07F897782401CA6F83E
:1006A00014805B1C0E798642E6D895F8A62100EBF3
:1006B0004000C2EBC20202EB820201EB800005EBBC
:1006C0004202C088128990420ED2F0B205280BD0A7
:1006D00085F8A501218800E006E02846FEF760F8CD
:1006E00001000AD1BDE8F88F85F8A5812288694606
:1006F0002846FEF743FA01000BD085F8A78122882F
:100700002846FEF7F3FB8AF800902188AAF8021029
:10071000E8E79DF800000028E4D02288012128465F
:10072000FEF792FB2188284600F0A0F8DAE70000E7
:1007300008240020F8B505460C460888B5F8AA112B
:1007400088424AD195F8A60104F10801C0EBC00027
:1007500000EB800005EB400295F8A50100EB40009E
:1007600002EB800360880A33B0B9002042F602171A
:100770000E880FE000EB400C01EB4C0CBCF804C001
:10078000BC4506D100EB400001EB40004088588199
:1007900002E0401C8642EDD800268DF8006095F8F6
:1007A000A5011179401C884203D101208DF8000079
:1007B00018E085F8A501228869462846FEF7DEF98B
:1007C00001000BD085F8A76122882846FEF78EFB32
:1007D00009480321017021884180F8BD9DF800007F
:1007E0000028FAD0228801212846FEF72DFB218817
:1007F000284600F03BF8F8BD0824002070B50546F7
:1008000090F8A6010C46C0EBC00000EB800005EBA1
:1008100040012288B5F8AA01824224D1608848B1FB
:1008200000212846FEF710FB21882846BDE87040CD
:1008300000F01CB8D4F80A200A60D4F80E00C1F801
:10084000060021882846FDF7ABFF01000BD00020F1
:1008500085F8A70122882846FEF748FB02480321B5
:1008600001702188418070BD082400202DE9F041ED
:10087000044690F8A8010E46401C1949C0B284F8FD
:10088000A801C9680327174D4FF0000E884224D2F3
:1008900084F8A5E194F8A601401CC0B2C0EBC001E9
:1008A00001EB810104EB410284F8A601A5F11801D6
:1008B00001EB800001210068106082F804E03046FE
:1008C00090DF010007D084F8A7E132462046FEF70A
:1008D0000DFB2F706E80BDE8F08184F8A7E1F8E78A
:1008E000E41E00200824002070B5054600EB4501F9
:1008F0000B48002400EBC101FF20C1F81140A1F812
:1009000015400C604C608C60CC600874C87528463B
:1009100000F014FF02481C3840F8254070BD00006C
:10092000A42600200449084490F93000082801DB7F
:100930000120704700207047C42700200449084464
:1009400090F93000082801D201207047002070473C
:10095000C427002006490979490701D408207047B7
:1009600020B1044949780160002070470E2070478B
:10097000141F00203C28002030B5104B1B795B076A
:1009800001D4082030BD18B112B104687CB901E06F
:100990000E2030BD0A4B1D684DB140681D8901FB1A
:1009A000050059685B8903FB0511814201D80720C6
:1009B00030BDC2E90040002030BD0000141F0020FF
:1009C00008290020F8B5054621480E460079400761
:1009D00001D40820F8BD15B1286870BB01E00E20D5
:1009E000F8BD1C4C0027206838B3618922896068F3
:1009F00001FB0201686881421FD9FFF7E9F870B175
:100A0000D5E9000200EB400004EB80004368018957
:100A1000D41AB4FBF1FC01FB1C4474B901E01020B2
:100A2000F8BDB6FBF1F401FB146434B92EB1408972
:100A3000324400FB0130824201D90720F8BD334621
:100A40000022294603200097FDF784FFF8BD00002F
:100A5000141F00200829002010B54FF01020446911
:100A6000601C04D000F007F8B4FBF0F010BD4FF0AC
:100A70008050406910BD4FF08050006980B27047CF
:100A800070B5104800242546047044702846FDF7D0
:100A900051FF6D1C0A2DF9D30B4D6C80FFF7DCFF65
:100AA000861EFFF7E8FF46430648AE60CC306C6117
:100AB0000460048144812C70AC610420EC616860A6
:100AC000002070BD3C280020141F00202DE9F843B1
:100AD000804623481F46164600790D46400702D43B
:100AE0000820BDE8F8832DB1B8F1000F02D02868C6
:100AF00098B901E00E20F4E71A4C206868B16289C9
:100B00002089616802FB00116A68914205D926B10B
:100B1000B04202D3F119814201D90720E1E74046F2
:100B2000FFF756F8D0B13846FFF752F8B0B1686811
:100B3000FFF74EF890B168683246C1194046FBF79E
:100B4000B7FC00962868002200EB4000434654F8AA
:100B5000204002212846A0470020C2E71020C0E71D
:100B6000141F0020082900202DE9F041294D0446DA
:100B70000E462879400702D40820BDE8F081ECB188
:100B8000E6B12068D0B1FFF776FF0146A088814228
:100B900012D3102810D3E08870B1FFF75DFF471E15
:100BA000FFF769FF4743E288A188A86802FB0102BA
:100BB000974201D3890703D00720DEE70E20DCE748
:100BC0006988012924D0C6E90010134A01EB4103CA
:100BD00002EB83014860206842F82300A088088166
:100BE000E0884881FFF747FFA188E288401E01FBAB
:100BF0000204FFF740FF94FBF0F4FFF73CFFA96805
:100C000004FB0010A8606888401C68800020B4E7DE
:100C10000420B2E7141F002008290020F8B504467C
:100C20001C481E46154600790F46400701D408208F
:100C3000F8BD1FB114B1206898B901E00E20F8BDCD
:100C40001548016869B142894168008902FB0011B9
:100C50006268914205D925B1A84202D3A9198142FF
:100C600001D90720F8BD3846FEF7B2FF78B130460B
:100C7000FEF7AEFF58B16068FEF7AAFF38B12B4609
:100C80003A46214601200096FDF764FEF8BD10208B
:100C9000F8BD0000141F002008290020104902465A
:100CA000087800281AD0042818D0022A14D0032A61
:100CB00014D10A7912070FD48A69521C8A61B2F5DD
:100CC0007A7F06D0022801D000F05CB9487800F0A5
:100CD000ABBA0D20FCF748BEFEF74CBD70470000D4
:100CE000141F0020F8B504461C481E46154600791E
:100CF0000F46400701D40820F8BD1FB114B1206889
:100D000098B901E00E20F8BD1548016869B1428923
:100D10004168008902FB00116268914205D925B142
:100D2000A84202D3A919814201D90720F8BD38464B
:100D3000FEF74EFF78B13046FEF74AFF58B16068C3
:100D4000FEF746FF38B12B463A462146042000966E
:100D5000FDF700FEF8BD1020F8BD0000141F0020B4
:100D60000829002070B50C4B00210A4ADC680DE010
:100D700002EB81058678AD78B54206D132F8215074
:100D80000688B54201D1586870BD491CA142EFD315
:100D9000002070BDF0230020E41E002070B5012665
:100DA00070044FF0E0210025C1F88001084C40108C
:100DB000C4F84803C4F8080366602F20FBF72AFB39
:100DC000A660044C2F202561FBF724FBE57070BD65
:100DD000001001404C1F002009480A490022C37D31
:100DE000C1F8082143B1D1F81815437EC268D15427
:100DF000417E491C41767047D1F8180570470000C4
:100E00001C280020002000401FB501228DF808009A
:100E100004488DF800200191D0E9001268469047FF
:100E20001FBD00001C28002004480021C0F8241128
:100E3000C0F8081101210160704700000020004047
:100E400030B595B004A8FFF785FD08B1FCF73CFD6F
:100E5000244D049818B10120E87015B030BD082069
:100E60008DF8040005A800900DA802901D480024EC
:100E70008DF80C406946001DFEF7ECFB08B1FCF74D
:100E800023FD9DF804301848A021502213B99DF885
:100E90000C3023B16B78012B01D1AB7843B10378CF
:100EA00023F00303037001814281446084810BE0DD
:100EB000037823F0010343F00203037001814281B0
:100EC000C0F804D01E21818107488ADF08B1FCF7F1
:100ED000FBFC0120FDF798FA0028BED0FCF7F4FCDB
:100EE000BBE70000B01E0020D422002008B5024954
:100EF0000020009108BD0000B01E002010B50121A7
:100F0000202803DA1D4A8140114004E0402803DA1A
:100F1000A0F12002914041B1002809DA00F00F0150
:100F200001F1E02191F8141D06E042F2010010BD2C
:100F300000F1E02191F800144909082914D299B16F
:100F4000012911D004290FD005290DD00C4A94682D
:100F500000F01F0301219940400944B152F82030AC
:100F60000B4342F8203007E042F2020010BD80003F
:100F700000F1E020C0F80011002010BDFC06FFBC0D
:100F8000402B00200C49087040B101280FD00228E6
:100F90000FD003280FD14869FEF732BC00208861CA
:100FA000C86106484078002805D0FDF7A9BC00F0CC
:100FB000F7B800F053B87047141F00203C280020F9
:100FC00018B10349C860002070470E207047000028
:100FD000781F00201CB5034901910091694660DF2C
:100FE0001CBD0000B01E002070B50E46054614461C
:100FF00014211046FBF775FA0120208000212161A1
:1010000021732672657205B1A072002070BDFCF7D5
:1010100049BC000030B409B18C0702D0072030BCB5
:101020007047074C0125A16062800649636010DFAC
:101030000028F4D1257030BC1620FFF75FBF0000F8
:10104000781F00200F10020018B10349086100202A
:1010500070470E2070470000781F00202DE9F041F6
:10106000164C606820F0010060601548017801EBC3
:10107000810100EB81063569FFF7FDFCB5FBF0F758
:101080006761FFF7F8FCF1886D1E2944B1FBF0F0B1
:101090008742606802D140F0020001E020F00200C7
:1010A00060602079E16800F00200084304D000206D
:1010B000BDE8F04100F0B8B80220F9E7141F0020A5
:1010C0003C28002001484069FEF79ABB141F00200D
:1010D00010B5FFF7C1FC441EFFF7CDFC4443FFF7FA
:1010E000CAFC05494A69521E5043CA682146BDE8F8
:1010F0001040FEF788BB0000141F00202DE9F041CE
:101100001048017801EB810100EB81042569FFF7AC
:10111000B2FCE188228911442944B1FBF0F200FBC2
:101120001216FFF799FC471EFFF7A5FC07FB0061AD
:10113000E08822891044044A28441269BDE8F0413D
:10114000FEF761BB3C280020141F002010B5FFF7FC
:1011500083FC441EFFF78FFC4443FFF78CFCB4FB79
:10116000F0F0BDE81040FEF74BBB000070B5FFF794
:1011700082FC8608FFF77FFC0749496900FB01F400
:10118000FFF76AFC451EFFF776FC684332462146AE
:10119000BDE87040FEF737BB141F002000207047E9
:1011A00070B51448017801EB810100EB8104241D26
:1011B000FFF761FC6188104E884211D2FFF75BFC9B
:1011C00061880D1AFFF757FC8208A188E06808447F
:1011D000216928442944FEF716FBFFF74CFC07E081
:1011E000A288E06810448A082169FEF70CFB608839
:1011F000F06170BD3C280020141F002004480079D5
:10120000000702D4012000F00FB800F003B800007E
:10121000141F00200348416821F008014160407814
:1012200000F002B8141F002002494870024951F82A
:1012300020000047141F00207418020010B5044657
:10124000FFF72CFD022C01D0032C09D10548C178F1
:10125000002905D00021C170BDE81040FFF7F0BDA6
:1012600010BD0000B01E002003480079000701D423
:10127000FDF736BBFFF7CEBF141F00202DE9F84F56
:10128000204C00256846D4E903B6FEF731FA8046C3
:10129000FEF7AEFC0746A946B8F1000F25D00023A3
:1012A000009ACC46E06819E007680146974202D9E7
:1012B000BA1A026014E0C1F800C0D1F80C80D21B49
:1012C000C8693B448A46B8F1000F07D0F71827F0E9
:1012D0007F47C1E90178CAF81C500D460028E3D1C8
:1012E000E0602846FEF7E2FC04E02846FEF7DEFC5C
:1012F00000B917B15846FDF777FB84F80490BDE8B4
:10130000F88F00004C1F00200D4B10B5D96831B18B
:1013100002680C68A24204D8A21A0A60C161D860AF
:1013200010BD0B4603E00B46C969121B21B10C68C6
:101330009442F8D3A41A0C600260C161D86110BD58
:101340004C1F00202DE9F0411D4DEC68002C35D0DC
:101350001C48002700682969B846401A20F07F46DB
:101360002068B04215D82246361A0744E469107C3A
:1013700068B182F810806B6933B1D2E905019847F2
:1013800028B1FCF7A1FA02E0D2E905108847002C49
:10139000E6D16978A878814206D1401CC0B2A87015
:1013A000022801D185F802800548A978183040F854
:1013B0002170BDE8F0411420FBF704BCBDE8F081CA
:1013C0004C1F00200415014010B50F4CD4E900104B
:1013D000884211D000EB80020C4800EB82018B7830
:1013E0005BB130F82200083198DF002804D1207961
:1013F000401C00F00700606010BD30F822008988B2
:10140000002296DFF1E70000DC1E002050230020C0
:1014100010B50F4CD4E90010884211D000EB8002C7
:101420000C4800EB82018B785BB130F82200083168
:1014300098DF002804D12079401C00F0070060608C
:1014400010BD30F822008988002296DFF1E7000005
:10145000F41E0020E8250020064A0020C2F81C01E6
:101460000548838A8168C95C838A5B1C8382C2F8D1
:101470001C157047002000401C2800201FB50021CB
:101480008DF8080005488DF800108268019281757A
:10149000D0E90012684690471FBD00001C280020BC
:1014A0000178022901D0012902D14068FCF70CBA69
:1014B000704700007CB50178264D012909D002292A
:1014C0002CD0002929D129462348FCF70FFA80B3F4
:1014D00034E04068017820481038FCF722FA1E4CAE
:1014E000103C20B101218DF80010019007E0A068A8
:1014F000E168081A012805D100208DF8000069680C
:1015000068468847A068E168081AA188884204D81C
:1015100010480121401CFEF72DFE7CBD02218DF8F4
:101520000010C06801900B480121401CFEF722FE0C
:101530000CE0FFE701210748FEF708FF0648816835
:10154000C0688842E9D103208DF8000069686846C8
:1015500088477CBD0C1F0020B42700202DE9FF41E7
:101560003E4D4FF400712846FEF7DBFF01273C4C4F
:101570004FF40178002600B34FF492712846FEF72D
:10158000CBFFD0B1C5F82461C5F80883A07E00B9AF
:101590006F6002208DF80000D5F88004C5F8800443
:1015A0000390E07D8DF80800E0680190E6752676EE
:1015B000D4E900126846904724E004212846FEF74B
:1015C000B0FFF8B14FF484712846FEF7A5FFC8B10B
:1015D000FFF702FCE07D617E884213D1227E3AB1A2
:1015E000607EE168E2752269E2602676667607E051
:1015F000A07E00B96F60C5F80883E675607EE1687B
:10160000FFF702FC4FF48E712846FEF785FF58B1B4
:10161000A18AA07D814202D2FFF71EFF04E0C5F837
:101620001C6108B1FFF72AFF4FF4A2712846FEF7AC
:1016300073FF00280FD0C5F84461A07E00B12F6071
:10164000E07D002807D0E675607EE16804B0BDE863
:10165000F041FFF7D9BBBDE8FF810000002000404A
:101660001C2800207FB5334C4FF492712046FEF7C2
:101670005EFF314D0026B0B1C4F8246102208DF820
:101680000000D4F88004C4F880040390D4F83C052A
:101690008DF80800E8680190EE752E76D5E9001205
:1016A000684690471FE04FF488712046FEF73FFFE1
:1016B000C8B1C4F81061D4F83C05E97DC0B28142DC
:1016C00011D12A7E5AB1E968D4F8003223F0200300
:1016D000C4F80032EA752A69EA602E7601E0EE75F8
:1016E000E968FFF791FB4FF4A2712046FEF71FFF58
:1016F00050B1C4F84461E87D30B1EE75D4F83C05D2
:10170000E968C0B2FFF780FB4FF490712046FEF706
:101710000EFF00280CD0C4F82061A87D002807D057
:10172000D4F84C0504B0C0B2BDE87040FFF7A6BEC7
:101730007FBD0000002000401C28002001218140C6
:10174000024842688A43426070470000FC1E002045
:10175000EFF30580C005C00D13D0103840B200284B
:1017600006DA00F00F0000F1E02090F8140D03E01D
:1017700000F1E02090F800044009022803D0062878
:1017800003D0022070470020704701207047427844
:101790008378521CD2B2934200D100220378934244
:1017A00001D1002070470A704168407800EB40008A
:1017B00001EBC000704700000100000706001800A0
:1017C00000009001E42200200423002030230020A8
:1017D0000D0000000E0000000F00000010000000CF
:1017E0000D00030089E201000E00030089E2010000
:1017F0000F00030089E201001000030089E20100EC
:10180000FFFFFFFFCDFE0100A9F8010023F8010052
:1018100059F90100C9FE010071F801001FF801002B
:1018200055F90100C5FE010029F801001BF801006F
:1018300051F9010006000000080000000700000048
:101840000500000000000000000000000000D601BC
:10185000060000000600000008000000070000006D
:101860000500000000000000000000000000D6019C
:10187000060000004D1102006D110200C5100200AB
:10188000FD100200D1100200FD1102003DEB01002D
:10189000E9EA010069120200B5F9010014290020EB
:1018A00003000000080605070100000000E0D70162
:1018B000D0180200B01E0020E0000000D8CE0100C9
:1018C000B0190200901F0020C02B0000E8CE0100DC
:1018D0000002000000000000000000000000000006
:1018E00000000000000000000000000000000000F8
:1018F00000000000000000000000000000000000E8
:1019000000000000000000000000000000000000D7
:1019100000000000000000000000000000000000C7
:1019200000000000000000000000000000000000B7
:1019300000000000000000000000000000000000A7
:101940000000000000000000000000000000000097
:101950000000000000000000000000000000000087
:101960000000000000000000000000000000000077
:101970000000000000000000000000000000000067
:101980000000000000000000000000000000000057
:101990000000000000000000000000000000000047
:1019A0000000000000000000000000000090D003D4
:040000050001C40131
:00000001FF
