:020000040000FA
:10000000D83E0020150100002F0100003101000042
:1000100000000000000000000000000000000000E0
:10002000000000000000000000000000330100009C
:100030000000000000000000350100003701000052
:100040003901000039010000C50700003901000036
:100050003901000000000000990200003901000091
:1000600039010000390100003901000039010000A8
:100070003901000039010000390100003901000098
:10008000390100003104000039010000390100008D
:10009000FD060000390100000507000039010000DD
:1000A00039010000390100000000000000000000DC
:1000B0000000000000000000000000000000000040
:1000C0000348854600F0B8F800480047697A000008
:1000D000D83E0020401E00BF00BF00BF00BF00BFD1
:1000E00000BF00BF00BF00BF00BF00BF00BFF1D115
:1000F00070470000401E00BF00BF00BF00BF00BF30
:1001000000BF00BF00BF00BF00BF00BF00BFF1D1F4
:10011000704700000321094802680A43026008484A
:1001200002680A4302600748804707480047FEE725
:10013000FEE7FEE7FEE7FEE7FEE7000024050040DD
:100140005405004025070000C100000030B50B46F3
:10015000014600202022012409E00D46D5409D42A1
:1001600005D31D469540491B254695404019154627
:10017000521E002DF1DC30BD70B50024254600284C
:1001800001DA01244042002901DA01254942FFF742
:10019000DDFFAC4200D04042002C00D0494270BD8F
:1001A00003460B439B0703D009E008C9121F08C090
:1001B000042AFAD203E00B780370401C491C521E3B
:1001C000F9D27047D2B201E00270401C491EFBD246
:1001D00070470022F6E710B513460A460446194652
:1001E000FFF7F0FF204610BD421C0178401C00299B
:1001F000FBD1801A704730B504460020034600E06A
:100200005B1C934203D2E05CCD5C401BF8D030BD58
:1002100003460A780270401C491C002AF9D118468E
:1002200070470321001D401E037812021A43491E25
:10023000F9D5104670470000064C0125064E05E032
:10024000E36807CC2B430C3C98471034B442F7D3F7
:10025000FFF73AFF54A6000074A6000030B58C18D2
:100260000278401C13071B0F01D10378401C1209B0
:1002700006D10278401C03E005780D70401C491C33
:100280005B1EF9D101E00B70491C521EFBD1A1424B
:10029000E6D3002030BD0000F0B50025FF248BB070
:1002A000013401262F460195204607F0A5FF0028BE
:1002B00008D047484068304204D046480021201802
:1002C00035430160241D76007F1CA4B2042FEBD3BC
:1002D000FF207D3007F090FF002807D03E48002126
:1002E0000160400705433D48006901903C4C2807E8
:1002F00012D0012700262F420AD03A48B200111826
:1003000008690969C004C00E8903A258890F904783
:100310007F00761C042EEED3002D57DA00200590C6
:10032000401E4DE0A119403108788506AD0E42B25D
:10033000521C39D00121A940089A0091114233D0B2
:1003400080090390284606F0A1F880002058049008
:10035000002802D10398032826D103980099032886
:1003600002D10598084305901F4AA800801800682C
:10037000019A8003800F114202D0022802D013E0BC
:10038000032811D10399032907D102281CD0022187
:10039000284607F021FF7F1CFFB20498002803D0F5
:1003A000049A284603999047761C042EBAD3002F4E
:1003B0000CD00A4800690199884207D0019005983D
:1003C00000273E460890ADE70321E1E70BB0F0BD02
:1003D00000630040006000407C6100400005005068
:1003E000C827002000650040000700508307FF2257
:1003F000DB0E9A408907090E994000280BDA0007A6
:10040000000F0838830808489B001818C3699343F5
:100410000B43C3617047830804489B001B1818688E
:10042000904308431860704700ED00E000E400E0EE
:1004300010B506490020086048608860C86003491C
:1004400040390860486009F06DFD10BD4011014061
:10045000FFB5114F0446387881B01D461646002876
:1004600001D100F0B3F97869A04211D918200A49E6
:1004700060434118002C06D00298CE640D65886454
:100480000020886548650A98C865002005B0F0BD61
:100490000020C043FAE70000E0300020FFB5114F14
:1004A0000446387881B01D461646002801D100F078
:1004B0008DF93869A04211D918200A4960434118C2
:1004C000002C06D00298CE610D62886100208862FF
:1004D00048620A98C862002005B0F0BD0020C04301
:1004E000FAE70000E030002070B5074B06461878A8
:1004F00014460D46002801D100F068F9224629462D
:10050000304600F003F870BDE030002070B50E46B4
:1005100018214843134914464518E86A183500283D
:1005200004D001280FD0022805D113E0284600F09E
:1005300083F9A04201D2002411E022463146284628
:1005400000F0A5FA0BE0284600F076F9A042F4D2BC
:100550000446F2E73146284600F069FA0446204690
:1005600070BD0000E0300020F7B598B007A80290F9
:10057000402000250495039018980C460595069098
:100580002178641C002977D0252907D002A800F023
:100590002FFA05980028F3DA1BB0F0BD01220021E4
:1005A000022713460826207823281BD02B2816D094
:1005B0002D2802D0302806D101E0194300E039434C
:1005C000641C002AEFD1002220780346303B0A2B1E
:1005D0000AD20A235A431218303A641CF4E7042062
:1005E0000143EDE73143EBE70023C7B22E2F0AD1D9
:1005F000641C20780746303F0A2F04D20A277B4329
:100600001B18303BF4E76C280DD068280BD07028FD
:1006100052D00BDC25285AD058282ED063280CD075
:10062000642858D110E02078641CECE7732832D09D
:10063000752817D078284ED11FE01A981A9A0068AA
:10064000011D1160017843E01A981A9F0068061D89
:100650003E6000680191009201460A2202A800F063
:10066000F6F838E01A981A9F0068061D3E60006888
:10067000009201910A2209E02FE01A981A9F00685F
:10068000061D3E600068009201911022014602A8FA
:1006900000F042F91FE01A981A9A0068011D1160D3
:1006A00006683178761C002915D002A800F0A0F960
:1006B00005980028F5DA0EE01A981A9A00680823BF
:1006C000011D11600168102200960195DFE72521C8
:1006D00002A800F08DF9641C5BE70598002800DC97
:1006E0005AE70498002804D0024607A91898FFF793
:1006F000FBFE04990598401805904DE710B509F0E8
:10070000A7FB10BD10B506484068002805D08047FB
:10071000002801D000F0FEFB10BD06F0B1FF10BDB7
:100720001C22002010B506F0F7FF002805D01F4955
:100730001D484860C8131E4988611E48018CC9B213
:1007400001290BD1828C120708D1028D1206120FDB
:10075000042A03D1828D1206120F0AD0012921D159
:10076000818C09071ED1018D0906090F0A2904D0C1
:1007700007E0114A01219160F5E7828D1206120F00
:1007800005D00D290ED1808D0006000F0AD10B482F
:100790000168012904D00A49016001680129FCD1DE
:1007A000C021416110BD0000DFFF07C0000500400F
:1007B000006C0040C00F00F00006004000EC064056
:1007C0007593000010B509F07DFC10BD10B5124CFA
:1007D00002202061606111A0A0611348E061012046
:1007E000800220620020A06260620CA1A164214608
:1007F000E0621039E16410212165A0656065E06563
:100800000AA1E01DFFF704FD09A12046FFF700FD46
:100810002020A07110BD0000E03000205465726DF2
:10082000696E616C00000000D02C0020525454000E
:1008300053454747455200000269C1688A4203D8C0
:100840008068401A801800E0501A401E7047FFB5BB
:1008500083B00E4670420D9F0C9C0090002900DB77
:100860000846012502E0FFF787FC6D1C05998842C8
:10087000F9DA0698A84200D90546002C04D0002ECB
:1008800001DB780700D5641EB80702D5069800285A
:1008900010D0F8070ED1002C0CD0A5420AD220218E
:1008A000641E039800F0A4F80398C0680028F2DAE8
:1008B00007B0F0BD0398C0680028F9DB002E02DA0B
:1008C0002D21009E02E0780707D52B21039800F028
:1008D0008FF80398C0680028EADBB807800F022869
:1008E00010D1069800280DD1002C0BD0A54209D2BA
:1008F0003021641E039800F07BF80398C06800283C
:10090000F2DAD5E7019700943146069B059A0398E1
:1009100000F002F8CCE70000FFB581B001261F46C9
:1009200034460A9D029802E0FFF710FC641C03990C
:100930008842F9D2A74200D93C460B98C00718D18B
:10094000002D16D00B98800701D5002F02D0202053
:1009500000900CE03020FBE76D1E0099019800F03C
:1009600047F80198C06800283DDB002D01D0AC425B
:10097000F2D30198C068002835DB012F01D97F1E12
:1009800006E031460298FFF7E1FB0399884202D363
:1009900003984643F1E7154F31460298FFF7D6FB1F
:1009A0000146029A7143511A0291395C019800F094
:1009B0001FF80198C068002805DB30460399FFF74F
:1009C000C5FB0600E8D10B98C0070CD0002D0AD05B
:1009D000AC4208D220216D1E019800F009F8019860
:1009E000C0680028F2DA05B0F0BD000020A60000C3
:1009F00010B5044680686368421C934205D323689F
:100A00001954A260E068401CE060A26860688242FD
:100A100009D121682069FFF767FDA168884203D0EA
:100A20000020C043E06010BD0020A06010BDF7B5FD
:100A3000064682B000200090F46817463069A04254
:100A400001D9051B02E0B168201A0D1AB0686D1EAD
:100A5000001BA84200D80546BD4200D33D46706841
:100A60002A4600190399FFF79BFB00987F1B40194A
:100A700000900398641940190390B068A04200D117
:100A80000024F460002FD9D1009805B0F0BDF7B56F
:100A9000C668174604468068851B6068BD4206D953
:100AA00080190199FFF77CFBF019E060FEBD2A4632
:100AB00080190199FFF774FB01987E1B411932469A
:100AC0006068FFF76DFBE660FEBD30B47446641EDF
:100AD0002578641CAB4200D21D46635D5B00E318C1
:100AE00030BC184702E008C8121F08C1002AFAD11A
:100AF00070477047002001E001C1121F002AFBD19E
:100B00007047F7B584B00027158806461780406BFC
:100B10001446002813D003780598032D51D30221E1
:100B2000017021881122491C89B2218042542188F8
:100B3000491C89B2218043542088401C2080306B9E
:100B400000281DD007462088059902461232AA4285
:100B500037D811220A5420881022401C80B22080ED
:100B60000A542088401C20800F203A5C2388401EB5
:100B7000CA54228840B2521C22800028F5DA00278D
:100B8000304620300290807B002806D02B4622463B
:100B9000059906F0EBFD070014D10298407B002870
:100BA00006D02A462146059801F06EF8070009D1C3
:100BB000B078002825D0059800902088001DA84214
:100BC00002D90C2007B0F0BD01A807F0DDFF002816
:100BD000F8D1228800990320885420881921401CCC
:100BE00080B22080009A11542088401C80B220805E
:100BF000009941186846808809F007FB2188401851
:100C00002080F078002817D0218803230A46F35665
:100C1000C91C0598A942D4D80221815421880122F7
:100C2000491C89B2218042542188491C89B2218003
:100C300043542088401C20807068002817D02188E9
:100C40000023C3560A46C91C0598A942B9D80221F7
:100C5000815421880A22491C89B22180425421886A
:100C6000491C89B2218043542088401C208030894F
:100C700000280AD00094304601950622022108304F
:100C8000059B09F0F3FB07009CD1308A00280AD0AD
:100C9000009430460195072203211030059B09F08E
:100CA000E5FB07008ED1308B00280AD00094304637
:100CB0000195152214211830059B09F0D7FB070078
:100CC00080D1306A002806D02B462246059905F0CF
:100CD000CFFC0700D8D1706A002806D02B462246E8
:100CE000059906F063FF0700CED10298007B00282B
:100CF00007D02B4622463046059908F0BDFE070076
:100D0000C2D13078002807D02B46224630460599BC
:100D100006F080FF0700B7D1384653E710B501222F
:100D20000221002005F078F9002801D0072812D10F
:100D300007220221012005F06FF9002801D00728C1
:100D400009D100210A22084605F066F9002801D0E1
:100D5000072800D1002010BD044842680121C905C0
:100D60000B46934383600A40C26070470005005001
:100D700070B5044604200B4B002224255543ED1882
:100D8000AD78002D03D0521C022AF6D370BD104658
:100D9000242670430125C618B5701C5200200A6035
:100DA00070BD000058310020034610B50520084AE8
:100DB000002124244C43145B9C4205D124230020B1
:100DC00059438918887010BD491C0229F1D310BD00
:100DD0005831002070B505460520094C0022242317
:100DE0005343E65AAE4203D11B199B78012B03D023
:100DF000521C022AF3D370BD00200A6070BD0000AF
:100E000058310020034610B50520084A00210C2463
:100E10004C43145B9C4205D10C2300205943891894
:100E2000887010BD491C0829F1D310BDA0310020E5
:100E300070B505460520094C00220C235343E65AA1
:100E4000AE4203D11B199B78012B03D0521C082AF8
:100E5000F3D370BD00200A6070BD0000A0310020F7
:100E600070B50024064D06E06968E000085C0121C9
:100E700006F064FF641C28788442F5D3002070BD1E
:100E800074210020F8B515460C460646052A01D205
:100E90000720F8BD07F028F8002803D106F0FAFF74
:100EA0000028F6D1104900204E600C70C8608D609B
:100EB00008610E4D0DE0E0006968801900918178AD
:100EC0006A46517000780A4A694606F087FF002892
:100ED000DFD12046641EE4B20028ECD1054A00218F
:100EE000024800F0A7F8F8BD7421002018A6000001
:100EF00019760000D5670000BFF34F8F04490348FF
:100F0000C860BFF34F8F00BFFDE700000400FA0583
:100F100000ED00E00EB50021029000916A460191BB
:100F20000148FFF7E9FF0EBD01400000014B1B68BF
:100F300018470000A4270020426800211170426871
:100F40005170426891704068C1700846704708B59A
:100F50006A4600F006F808BD10B5028900F027F8CF
:100F600010BDF7B582B00689817A07680091002527
:100F70004468284600F078F9A078002815D0207839
:100F8000361D7043C6192046009905F017FC3088BD
:100F9000311D82B2049802800398FFF701F9002006
:100FA00000F066F9284605B0F0BD0425F7E7F7B56F
:100FB00082B001680091857A07894468002000F0BA
:100FC00053F9A078A8420AD1E078002805D0294634
:100FD000204605F0F3FB042602E0042615E0002677
:100FE00061783F1D0846009A78438018A278491C12
:100FF000521CC9B2A270A94200D1002161700499AB
:1010000002C0049A0399FFF7CBF8002000F030F9F2
:10101000304605B0F0BD0000F8B50468044E240168
:101020003459154600930B46069A2946A047F8BD49
:101030002C280020094B9B68002B07D0002A07D0E2
:10104000002805D00068037C002B03D008207047DF
:1010500007207047417442610020704788210020BA
:10106000FFB59007002581B014460E46002832D106
:101070001B4F002C31D007F06FFC049878610320DF
:10108000387033461821224600204B43BC60183488
:10109000C10089180D704D708E704C601C19401C79
:1010A0000328F5DBFD607D7001240E48BD7024052A
:1010B000046003211420FFF799F90B4804600B4CDE
:1010C0000198A06003211120FFF790F96068386152
:1010D000002005B0F0BD0720FBE7BD60FBE7000086
:1010E0008821002080E200E000E100E000150140DE
:1010F000FEB50D461B4917468968044600292AD0CB
:10110000002C28D0052D01D20720FEBD60690028E3
:1011100021D0607C012820D0002609F059F9C000B8
:101120001049019089684018694609F07BF9002848
:1011300015D0012101700C49446049680830E2C0B3
:10114000084901988968411868460078487008F095
:10115000C1FE0020FEBD0820FEBD2E46DDE70420B6
:10116000FEBD00008821002000150140F8B5134D98
:101170000446A96800291CD0002C1AD060690028F8
:1011800017D00026267409F023F9C700A86869461D
:10119000381809F047F900280DD002210170446089
:1011A000A868391868460078487008F093FE304601
:1011B000F8BD0820F8BD0420F8BD000088210020FB
:1011C00070B588B0154604461E4620221A49684666
:1011D000FEF7E6FFA06806902079002801D00121E3
:1011E00000E000216846017506776079002800D08C
:1011F0000E2069464875E0780290A0780390207828
:101200000190607800900D48002145608170207940
:1012100002280ED00A49684606F06EFE002806D164
:1012200006F0F4FE05480121401C06F0C9FE08B096
:1012300070BD0620FBE70000D8A500005C2100205F
:101240006DA0000010B5074908700121054806F09F
:1012500037FF112803D0002800D0032010BD042040
:1012600010BD00005C21002000B500F005F800BDB5
:1012700000B500F009F800BD72B602480168491CCB
:1012800001607047A821002003490868401E0860DB
:1012900000D162B670470000A8210020F0B50546D5
:1012A000007D002493B00E4600280DD00120014699
:1012B0006846103103940173717B4173817BF9207F
:1012C00001406846891C81731C2104A8FEF781FF38
:1012D0006946087C02210843694608742A7DEF218B
:1012E000002A02D01022104300E008406A46107421
:1012F000059407940894287D002800D003A809903D
:1013000001270A9410469771314A82800094B27B7B
:101310000270F27B42708078F9221040F722801C24
:101320001040EF2108404108490068468170317B38
:10133000017214210BA8FEF74CFF01A80B90684620
:101340000C908786C486078702A80F90A888AB1DDB
:101350000BAA04A907F088FD002836D1B068002840
:1013600031D0684687711B4981800094317C0170BF
:1013700000200146684641708078F9210840F72135
:10138000801C0840EF2108404108490068468170F0
:1013900011A8B16804F09CFA064614210BA8FEF7C8
:1013A00018FF01A80B9068460C908686C4860687B5
:1013B00011A80F902A46E8880E320BA907F080FD8D
:1013C000002802D100E0EC81002013B0F0BD000045
:1013D000192A00000829000010B50B490B4807F036
:1013E000D9FFC1B20848743800F05EFA002809D06D
:1013F000082807D00649884204D00649884201D00F
:10140000FFF788FD10BD0000D824002090200020A8
:101410000430000001340000F0B50C4693B01F21E9
:101420006A461180072600279180002809D0C178DC
:1014300049070DD502A9FFF764FB002809D102ADC9
:1014400001E000251780002C0ED0E078002802D0A3
:10145000304613B0F0BD01AA0AA92046FFF751FBA0
:101460000028F6D10AAA02E0684600228780684672
:101470008088C3B268460088C1B2284607F022FBC4
:10148000E7E7000070B50D4604991646040042D007
:10149000002E40D0424800224271C36001612422E4
:1014A00031464048FEF77CFE00F0D4F83D49343127
:1014B0000846103801602031816038215C38FEF721
:1014C00088FE3848217838380170A1788170E17839
:1014D000C170617841706269216942610161E268AD
:1014E000A168C26081600146E369A269CB618A613B
:1014F000616A002919D00146AC310246B832416216
:101500008A60636A1B880B80616A436A8988998054
:101510000021436A06E00E2070BD666AB668765CFC
:101520005654491C9E888E42F7D8A16A00291CD0C7
:101530001C4AAC3211460C398A608162A36A9B88CE
:101540008B80A16A836A098819800021836A04E07C
:10155000A66AB668765C5654491C9E888E42F7D8B7
:101560002C210A5D0F4918390A73216A002909D014
:101570000B4914310162226A52884A80216A026A48
:10158000098811806168002904D00549891D4160DE
:1015900061684160034829463838FFF73DFF70BD58
:1015A000C42000208C25002010B502881C4C102A75
:1015B00017D00021112A1AD01B2A11D1007A002835
:1015C0000ED1607901281ED0022822D0032822D013
:1015D000042805D12171E2680846002A00D090470E
:1015E00010BD817D0129FBD18088208110BD6170F3
:1015F000808821898842F9D1012005E021690029EC
:10160000F4D0884710BD022000F058F80028F5D12A
:1016100010BD0320F8E7032020710420F4E7000048
:10162000C420002010B5022801D003280ED1084C98
:10163000207800280AD000202070607900F03EF861
:10164000002803D02169002900D0884710BD000080
:10165000C420002010B507210148FEF7BAFD10BDD7
:10166000DC20002010B513480078012820D1124C4E
:10167000607800281CD16079002803D007F068FA50
:10168000002816D101200B49607006203839C87037
:10169000084800213838FFF7BFFE002809D16079DB
:1016A00000F00CF8002803D02169002900D08847F9
:1016B000002010BD8C250020C4200020F0B5784CFF
:1016C00087B06071002606A8069606F005FF012780
:1016D000082802D0002808D104E006A805F05AFD29
:1016E000002804D10698002801D02770D5E0FFF724
:1016F000B1FF6C4D6878002802D06079012807D0CE
:10170000A87800280CD06079012801D0022824D1C3
:10171000E168002903D0E7700820884700E0E67000
:101720006079012808D16878002809D05C48193010
:1017300006F0ABFD002803D06079022802D00CE04F
:1017400002206071A878002805D05548193006F0AD
:101750009CFD002801D103206071287B002804D162
:101760006079032801D104206071287E002804D10B
:101770006079042801D166712671E16800290AD0D8
:101780006079032801D0042805D12878002802D0E8
:101790006078002817D0A67018216846FEF719FD5A
:1017A00068460670019606720396607901280ED08D
:1017B000022815D03B4E243637465C3F03281BD009
:1017C00004285DD13AE0A77007208847E4E7344851
:1017D000183001906846077046820682277152E0F1
:1017E0002F48183001906846077029894182A988DE
:1017F00001820220207146E0A88A69464882288A30
:1018000008822848243008F0A2FE002805D0287855
:10181000002802D06078002801D003202FE00220A9
:101820006946087204200396F8701E480021383873
:10183000FFF7F2FD002831D1052020E0A88B694692
:101840000882288C48821748243008F080FE00283F
:1018500005D02878002802D06078002801D0042024
:101860000DE002206946087204200396F8700D48C6
:1018700000213838FFF7D0FD00280FD10620207155
:101880006079002804D0684607F044F9002805D1A3
:10189000E168002901D020798847002007B0F0BD19
:1018A000C42000208C25002073B586B0040031D000
:1018B0006A46217C127F0020914229D00025012612
:1018C000684600950680458007A80190E188608AF7
:1018D0006A4607F005FC00281AD16846007F20748C
:1018E000608A0E49884217D0207D002814D00295C6
:1018F000039504950595E1886846018186724188C3
:101900008181049001980590608A02A907F0FEFA8F
:1019100008B070BD0E20FBE70820F9E7FFFF0000CC
:1019200038B50D4604001BD0002D19D02868206062
:101930000020C043608228792075FF202074012197
:101940006846817007490180221D6946012007F021
:1019500005FB002803D129462046FFF79FFC38BD30
:101960000E2038BD0F18000038B5002824D00029FB
:1019700022D00A88102A1AD0112A1AD0502A1BD134
:10198000027D002A18D0CA884389891D9A4213D142
:101990004A89022A10D10268002A0DD04B7B0C7BA9
:1019A00019022143C907C90F07D0002106E0898821
:1019B00001E00021C943418238BD01216B46197005
:1019C0006946904738BD000038B504460868206075
:1019D0000020C043E08248890D46208301216846EB
:1019E00081700A490180221D6946012007F0B6FA7C
:1019F000002809D12946204604F0ECF8002803D13C
:101A00002946204604F09CF838BD0000101800005C
:101A10003EB50C46002102236A4601919380D18095
:101A200002924189C08A01AA07F034FB002804D140
:101A3000694609888907C90F21703EBD30B5044643
:101A4000C08A134A8BB0904220D006AA204604F0E8
:101A50001BF969460546088000200190029003901A
:101A60000490E2888A8002228A71088106A8039184
:101A70000490E08A01A907F049FA002804D16946D8
:101A80000988A94200D00C200BB030BD0820FBE72C
:101A9000FFFF000038B50A88102A10D0112A10D094
:101AA000502A12D0532A09D1C988C288914205D13F
:101AB00002216A46117002686946904738BD8988DC
:101AC00001E00021C943C18238BDCA884389891D0C
:101AD0009A42F9D14A89022AF6D10268002AF3D043
:101AE0004B7B0C7B190221438907C90F01D00021D0
:101AF00000E001216B4619706946DEE7F8B51D4626
:101B000017460E0011D0002D0FD000280DD004462E
:101B100008F0A6FB002807D1054800902B463A465E
:101B20003146606804F08BFDF8BD0E20F8BD000062
:101B3000731B0000F8B51D4617460E0017D0002D88
:101B400015D0002813D0044608F0DFFB00280DD183
:101B50002B463A463146601C08F0D7FB002805D1D9
:101B60002B463A463146A01C08F0CFFBF8BD0E20AC
:101B7000F8BDF8B51D4617460E000FD0002D0DD04C
:101B800000280BD00446FFF7D5FF002805D12B46CF
:101B90003A463146E01CFFF7CDFFF8BD0E20F8BDF8
:101BA00070B5054601461C220F48FEF7F9FA0F4CA6
:101BB000002626702968002907D00822201DFEF77C
:101BC000EFFA201D07F0C8F803E00848001D07F0F1
:101BD000A1F8002807D1401E60806670044A0021E9
:101BE0000448FFF727FA70BD78260020E420002083
:101BF00069A30000A4A50000F8B5214C02880027C5
:101C00001E4DE689102A15D01E49112A21D0122A0C
:101C10002DD0502A1CD1C288801DB24218D14289D1
:101C2000022A15D1427B037B10021843C007C00F64
:101C30000CD112E0818869800146104808221831D1
:101C40000C30FEF7ADFA6F70002E01D104F058FD94
:101C5000F8BD0020C04368806F700868FFF786FAFF
:101C60000028F5D0A1690029F2D08847F8BD0822E4
:101C7000811802480C30FEF793FAE7E7E4200020D1
:101C800078260020A4A500007CB5054608880C46EF
:101C90000930904201D90C207CBD684606F0F0FE68
:101CA0000028F9D121880820685420881B21401C75
:101CB00080B220802954208800A9401C80B2208056
:101CC000401906220131FEF76BFA20886946801D13
:101CD00080B220800978002900D001212954208871
:101CE000401C208000207CBD7FB504460121684651
:101CF00081714B4981804B4A01A9012007F02EF9DF
:101D000000287DD1228825463C35002A09D0454847
:101D10002B46801C00904448616804F0BFFB0028FB
:101D20007BD12289002A0AD03E482B460A300090F7
:101D30003D48E168401F04F0B1FB00286DD1228AC4
:101D4000002A0AD037482B46123000903648616985
:101D5000001F04F0A3FB00285FD1228B002A0AD0C9
:101D600030482B461A3000902F48E169801E04F05D
:101D700095FB002851D1228C002A0AD029482B46F5
:101D8000223000902848616AC01E04F087FB0028BA
:101D900043D1228D002A0AD022482B462A300090B7
:101DA0002148E16A401E04F079FB002835D1216BFF
:101DB00000290ED002A808F023F81A482B4632302A
:101DC00000901948082202A9801F04F067FB002830
:101DD00023D1606B00280BD012492B463A31009179
:101DE000027901681048401C04F058FB002814D107
:101DF000A16B002910D002A806F042FB094800E0C0
:101E00000BE04230009008482B46072202A92730F9
:101E100004F044FB002800D1002004B070BD000095
:101E20000A180000F8200020292A0000F8B51D46F5
:101E300017460E0019D0002D17D0002815D00446E3
:101E4000FFF75CFE00280FD120462B463A4631466C
:101E5000083000F057FD002806D120462B463A46B0
:101E600031460C3002F0EFFEF8BD0E20F8BD000048
:101E70001CB5144600220192002906D0002C04D083
:101E80002268022A03D209201CBD0E201CBD60223C
:101E90000A7001220192054A009201AB226804F007
:101EA000CEFB0028F2D1019921601CBD2D1E00003F
:101EB00010B51346602207F0D1FA10BDF8B51C46E4
:101EC0001546002810D0002C0ED002290AD34278E3
:101ED000037816021E43801C891E002D08D022683C
:101EE000042A03D20920F8BD0E20F8BD121F22607B
:101EF0000027202E6FD013DC3300FEF7E6FD2031E3
:101F0000353A3F3131313131313131313131315D7A
:101F1000624E77724487498C7C58676DF4815331E7
:101F2000392E72D00ADC3246303A1300FEF7CDFD6E
:101F3000098FAD7D8AB28294A8A31800532E6FD06A
:101F400008DC3A2E6DD0502E6CD0512E6BD0522E14
:101F500006D1B8E0542E67D0552E70D0702E6FD0B9
:101F60000520002D6DD1CEE023462A4600F014F95D
:101F7000C2E023462A4600F09BF9BDE023462A46EC
:101F800000F03EF9B8E023462A4601F08FF8B3E0AE
:101F900023462A4600F0BCFDAEE023462A4600F068
:101FA00085FEA9E023462A4600F0C8FEA4E02346A9
:101FB0002A4600F00BFF9FE023462A4600F04DFF23
:101FC0009AE023462A4600F0B3FF95E023462A46CE
:101FD00001F02AFA90E08BE023462A4601F0AAF8A5
:101FE0008AE023462A4601F017F985E023462A466F
:101FF00001F077F980E023462A4600F0BDFD7BE042
:1020000023462A4601F0A8F976E02AE023462A462C
:1020100000F0C1FF70E023462A4600F0F1FF6BE0BC
:102020004CE023E03BE053E043E023462A4601F046
:1020300049FF61E023462A4602F015F85CE033E0F0
:102040004CE05DE023462A4602F01DF954E02346A9
:102050002A4602F0F2F94FE023462A4602F068FAD7
:102060004AE023462A4602F082F945E023462A4602
:1020700002F02DFB40E023462A4602F05BFB3BE0EA
:1020800023462A4602F0A1F836E023462A4602F00B
:10209000B5FA31E023462A4601F07EFE2CE02346C5
:1020A0002A4602F087FF27E023462A4602F050FF27
:1020B00022E023462A4602F0F1FE1DE023462A468E
:1020C00002F0DAFD18E023462A4602F00FFF13E083
:1020D00023462A4602F03EFE0EE004E023462A464E
:1020E00003F059FB08E023462A4600F0AAFC03E06F
:1020F00023462A4601F051F8002D04D0002806D0CE
:102100002F80002169802168091D2160F8BD2E8083
:10211000218889B2F6E7000070B5044601461C48E4
:10212000FFF7B8FC1A4821461838FFF71DFC204677
:10213000FFF762FD204604F08BFC204603F098FE7A
:102140002088144D102804D011280CD055281BD1FC
:102150000FE0072003F084FF002801D0FEF7DAFE2D
:10216000A088A88010E00020C043A880002028702C
:102170000AE0A079002807D11321A88806F0AAFD5B
:10218000002801D0FEF7C6FE2046FFF70DFA70BD0D
:102190007C24002080200020FFB581B0002000902A
:1021A00001981D4614460F4600280CD0002D0AD079
:1021B000032F1FD30326002C07D02868032806D23C
:1021C0000C2005B0F0BD0E20FBE71E6015E00120DD
:1021D000208003206080231D6A46019808F006F8DD
:1021E000234608336A463946019808F076F8009885
:1021F000B84201D00920E4E72E600020E1E70000AA
:10220000FFB583B003981E46144600282ED0002E3A
:102210002CD0002010270090002C2AD003202080F2
:102220001020608025460835231D6A4604990398CE
:1022300008F004F800281AD12B466A46049903983E
:1022400008F056F8002812D12B4608336A46049944
:10225000039807F0F3FF002809D103990098095C5F
:10226000401C0090012907D0002011E00E2007B08B
:10227000F0BD00201F60FAE7A08801A9FEF7D8FD95
:102280000028F4D101980C214843084940184068BF
:102290006860A088FEF7B6FD0028E8D1009A04998E
:1022A0008A4201D00920E2E73760E0E7A031002050
:1022B000FFB581B01D461446070022D0002D20D066
:1022C000002005260090002C1DD002202080052033
:1022D0006080231D6A463846029907F0AFFF002848
:1022E0000DD1234608336A463846029908F000F8B3
:1022F000002804D1009A02998A4207D0092005B02B
:10230000F0BD0E20FBE700201E60F8E72E60F6E728
:10231000F8B516460F460546002407E0A0003958D8
:10232000284604F015FF641CA4B22D1DB442F5D359
:102330000020F8BD014610B501200007006980B2F9
:10234000484304F0EFFE002010BD10B514460246CD
:1023500018462368C91A072901D2092010BDD15C8B
:1023600001702168401C491C216089180622FDF774
:1023700017FF2068801D2060002010BD10B51C468E
:102380000B4601462068121A072A01D2092010BD07
:102390000A781A5420680622401C2060C018491C84
:1023A000FDF7FEFE2068801D2060002010BD002982
:1023B00006D0002A04D01368022B03D209207047EC
:1023C0000E20704771230B70002800D00120487048
:1023D0000220106000207047FEB51F46144606001C
:1023E0000D4627D0002F25D000200A4601907123EA
:1023F00001A90097304607F044F8002819D1386841
:10240000002801D0019811E0019AD01DA8420FD8F0
:10241000002C0FD0B05C2070521CB1180192062223
:10242000601CFDF7BDFE0198801D0190A84203D0FD
:102430000920FEBD0E20FEBD0020FEBD38B50029DE
:1024400011D0002B0FD000788507C407ED0F40078F
:10245000E40F6D00C00F2C438000044368460470F5
:1024600007F053FF38BD0E2038BDFFB583B00C9D7B
:102470000D9C1F46002D25D0002C23D0002001905C
:1024800072206946087201AB294602A8226807F04B
:102490003CFF002814D101AE00962A462368049917
:1024A000039805F0C9F900280AD100962A46394652
:1024B0002368059805F0C0F9002801D10199216031
:1024C00007B0F0BD0E20FBE710B51346722206F0F0
:1024D000C5FF10BDFEB50446002015460E4601900E
:1024E000002907D0002D05D02F680221022F03D22A
:1024F0000920FEBD0E20FEBD732232700122019222
:10250000002C00D000E0002272700191002C3FD01E
:1025100001AB3A463146204607F0F7FE0028EAD1E3
:102520001D48009001AB3A463146606804F087F8D8
:102530000028E0D1204601AB3A463146083007F08A
:10254000E4FE0028D7D11548009001AB3A46314649
:10255000E06804F074F80028CDD1204601AB3A467B
:102560003146103007F07CFE0028C4D1204601AB74
:102570003A463146123007F073FE0028BBD12046A0
:1025800001AB3A4631461430FFF758FF0028B2D16C
:1025900001992960FEBD00007D2300009D3C0000E4
:1025A00010B51346732206F059FF10BD1CB50C463A
:1025B000002811D0002C0FD074216A46117100211F
:1025C0002268009101466B4601A807F09EFE002894
:1025D00001D1009921601CBD0E201CBD10B5134611
:1025E000742206F03BFF10BD002906D0002A04D05B
:1025F0001368022B03D2092070470E2070477923FD
:102600000B70002800D001204870022010600020CC
:102610007047FEB51D46174606000C4613D0002D28
:1026200011D000200A460190792301A90095304677
:1026300006F027FF002807D12868002805D0019858
:10264000A0420DD10EE00E20FEBD0198801CA042DC
:1026500006D83B4601AA2146304607F0C7FDEEE703
:102660000920FEBD0020FEBD002906D0002A04D0AE
:102670001368032B03D2092070470E20704778237C
:102680000B704870000A88700320106000207047AB
:1026900010B51346782206F0E1FE10BDF8B51F46CE
:1026A00015000E460ED0002F0CD03968042915D322
:1026B00075212970691C07F0B2FD401C002E03D063
:1026C000012102E00E20F8BD0021441C2954002EF7
:1026D0001AD0204639680930814201D20920F8BD5C
:1026E0002919308807F09BFD04192919708807F013
:1026F00096FD04192919B08807F091FD04192919CC
:10270000F08807F08CFD041900203C60F8BD10B57E
:102710001346752206F0A2FE10BDF8B507461068F4
:102720000E46801C15461C46B0421AD8384607F0A3
:102730005DFD2868801CB04213D8A31C2A46314690
:10274000384607F053FD2868801CB04209D8231D85
:102750002A463146384607F049FD2868801CB042B9
:1027600001D90920F8BDA31D2A463146384607F095
:102770003DFD0020F8BD38B5047820072409000F7E
:10278000240104436846047007F0BFFD38BD30B52E
:10279000002A0AD0002B08D01C68022C18D37D24F4
:1027A0001470002903D0012402E00E2030BD002463
:1027B00054700224002907D01C68042C08D30C880C
:1027C0009470240AD47004241D68611C8D4201D2C7
:1027D000092030BD002800D001201055641C0020C5
:1027E0001C6030BDFFB583B00C9D1E460C46070033
:1027F00025D0002D23D000200A4601907D2301A979
:102800000095384606F03DFE002806D128680028CD
:1028100005D00198A04210D1002007B0F0BD002ED5
:102820000DD005AB01AA21463846009604F0D4FF2E
:102830000028F2D10199A142EFD00920EDE70E2046
:10284000EBE770B5049D002B0AD0002D08D02C6852
:10285000022C2CD37C241C70002803D0012402E01D
:102860000E2070BD00245C700224002805D02C6866
:10287000032C1CD30078987003241F2A01D9072049
:1028800070BD2E68E01C864211D31819160A02701A
:10289000A41C4670002901D0012000E0002018553A
:1028A000641C002909D02868A618864201D909208D
:1028B00070BD1819FDF774FC344600202C6070BD03
:1028C00010B513467C2206F0C9FD10BD10B5002AD4
:1028D00006D0002B04D01C68042C03D2092010BDA4
:1028E0000E2010BD762414705070000A9070D170C4
:1028F00004201860002010BD10B51346762206F0A3
:10290000ADFD10BDF8B51D4617460E0015D0002DC3
:1029100013D0044607F0F9FC00280DD12B463A46A7
:102920003146601C07F0F1FC002805D12B463A46E1
:102930003146A01C07F0E9FCF8BD0E20F8BDF8B543
:10294000064610680F46091A14461D46102909D379
:10295000811910221846FDF723FC216810312160EF
:10296000B94201D10920F8BD287C715C4008C90733
:102970004000C90F08432874FD2108402168715C9C
:102980008907C90F49000843287421688007715CD2
:10299000800F89088900084328742068401C206043
:1029A0000020F8BDF8B5054618680E460027111A34
:1029B0001C46112901D20920F8BD80191022294690
:1029C000FDF7EEFB2168103121602A7C9307D007C8
:1029D000DB0FC00F5B009208184392001043705445
:1029E0002068401C20603846F8BDF8B515460F46F3
:1029F00006000ED0002D0CD01C46FFF7A0FF0028CB
:102A000006D1234612332A463946304600F0B6FD39
:102A1000F8BD0E20F8BDF8B51D4617460E000ED0C5
:102A2000002D0CD00446FFF7BDFF002806D120463C
:102A30002B463A463146123000F0BCFDF8BD0E2060
:102A4000F8BDFFB583B00020019003981D461446E1
:102A50000F4600280CD0002D0AD00B2F54D32C2663
:102A6000002C07D028682C2807D20C2007B0F0BD16
:102A70000E20FBE700201E60F8E71D2020802C20A0
:102A80006080231D01AA039807F0D8FB0028EDD130
:102A90002346083301AA39460398FFF756FC00285D
:102AA000E4D123460F3301AA3946039807F020FCEE
:102AB0000028DBD102AB01AA3946039807F018FCC5
:102AC0000028D3D16946207C097A4008CA07400013
:102AD000D20F1043F92210404A07920F52001043C0
:102AE0004007C908400FC90008432074C0082346A6
:102AF0000090113301AA3946039807F013FC00280F
:102B0000B4D10199B94201D00920AFE72E60ADE7F9
:102B1000FFB581B00020009001981D4614460F4675
:102B200000280CD0002D0AD0032F1FD30326002C21
:102B300007D02868032806D20C2005B0F0BD0E206F
:102B4000FBE71E6015E01720208003206080231D16
:102B50006A46019807F04AFB234608336A4639461D
:102B6000019807F0BAFB0098B84201D00920E4E7C9
:102B70002E600020E1E70000FFB583B00020009048
:102B800003981D4614460F4600283BD0002D39D02F
:102B9000082F34D32C26002C36D0192020802C204E
:102BA0006080231D6A46039807F048FB002827D160
:102BB000234608336A463946039800F02DF800286A
:102BC0001ED1617A49071BD5A08801A9FEF702F939
:102BD000002815D10198242148430E496A4643181C
:102BE00039461B1D039800F0C7FE002808D1A088B5
:102BF000FEF7DAF8002803D10099B94207D009207E
:102C000007B0F0BD0E20FBE700201E60F8E72E6045
:102C1000F6E7000058310020F8B507461068154661
:102C2000081A0E461C46062801D20920F8BD002CC1
:102C30003AD0384607F05CFB0028F7D16B462A46AD
:102C40003146384607F054FB0028EFD16946097831
:102C500060788A0780088000920F1043FB224907A2
:102C60001040C90F890008436070A31C2A463146F2
:102C7000384600F0ADFE0028D8D1E31C2A46314684
:102C8000384600F0A5FE0028D0D1231D2A46314643
:102C9000384600F0ABFD0028C8D1631D2A463146F6
:102CA000384600F0A3FDF8BD0E20F8BDFFB581B099
:102CB0000020009001981D4614460F4600280CD0B5
:102CC000002D0AD0042F34D30C26002C07D02868FE
:102CD0000C2806D20C2005B0F0BD0E20FBE71E60CC
:102CE0002AE0122020800C206080231D6A46019873
:102CF00007F07CFA234608336A463946019807F004
:102D000075FA23460A336A463946019807F06EFA87
:102D100023460C336A463946019807F067FA234682
:102D20000E336A463946019807F060FA0098B842B7
:102D300001D00920CFE72E600020CCE7FFB581B09D
:102D40000020009001981D4614460F4600280CD024
:102D5000002D0AD0042F34D30C26002C07D028686D
:102D60000C2806D20C2005B0F0BD0E20FBE71E603B
:102D70002AE01F2020800C206080231D6A460198D5
:102D800007F034FA234608336A463946019807F0BB
:102D90002DFA23460A336A463946019807F026FA87
:102DA00023460C336A463946019807F01FFA23463A
:102DB0000E336A463946019807F018FA0098B8426F
:102DC00001D00920CFE72E600020CCE7FFB50646F2
:102DD000002081B01D4614460090002E0DD0002D1D
:102DE0000BD00298042833D30627002C07D028687C
:102DF000062806D20C2005B0F0BD0E20FBE71F60B0
:102E000029E01A20208006206080231D6A46304673
:102E1000029907F0EBF9207A23460109009809018D
:102E2000325C09331207120F11432172325C090719
:102E30001209090F120111432172401C00906A46C9
:102E40003046029907F049FA00990298814201D070
:102E50000920D0E72F600020CDE7FFB5074600200E
:102E600081B01D4614460090002F0AD0002D08D0D6
:102E70001A26002C07D028681A2807D20C2005B083
:102E8000F0BD0E20FBE700201E60F8E71A206080EE
:102E9000231D6A463846029907F0D0F90028EED182
:102EA000234608336A463846029900F00AF800289B
:102EB000E5D1009A02998A4201D00920DFE72E600D
:102EC000DDE7F8B50E46074600206946087015464E
:102ED0001C4631463846FFF738FA002827D1E31D53
:102EE0002A4631463846FFF730FA00281FD12346DC
:102EF0000E332A463146384607F0FAF9002816D133
:102F00006B462A463146384607F0F2F900280ED1C2
:102F1000694609782346C8074908C00F4900084395
:102F2000E07310332A4631463846FFF7F6FBF8BD0A
:102F3000FFB581B00020009001981D4614460F4651
:102F400000280CD0002D0AD0032F1FD30326002CFD
:102F500007D02868032806D20C2005B0F0BD0E204B
:102F6000FBE71E6015E01120208003206080231DF8
:102F70006A46019807F03AF9234608336A4639460B
:102F8000019807F0AAF90098B84201D00920E4E7B7
:102F90002E600020E1E7FFB50746002081B01D4606
:102FA00014460090002F0AD0002D08D00526002CD2
:102FB00007D02868052807D20C2005B0F0BD0E20E8
:102FC000FBE700201E60F8E705206080231D6A46AD
:102FD0003846029907F032F90028EED1234608332B
:102FE0006A463846029907F083F90028E5D1009A2D
:102FF00002998A4201D00920DFE72E60DDE7000058
:10300000FFB585B00020019005981D4614460F4677
:1030100000280CD0002D0AD0042F3ED30626002C09
:1030200007D02868062807D20C2009B0F0BD0E2072
:10303000FBE700201E60F8E706206080231D01AA40
:10304000059807F0FBF80028EFD1A08802A9FDF74A
:10305000C1FE0028E9D102982421484311492346A2
:103060004018006AA06010480090083301AA394651
:10307000059803F0B5FA0028D7D103AB01AA394669
:10308000059807F035F90028CFD16946097BC907B3
:10309000C90F21730199B94201D00920C5E72E60FB
:1030A000C3E700005831002031350000FFB5074666
:1030B000002083B01D4614460090002F0AD0002D3A
:1030C00008D00B26002C07D028680B2806D20C202D
:1030D00007B0F0BD0E20FBE71E6029E01520208020
:1030E0000B206080231D6A463846049907F0A6F835
:1030F0000028EDD100980622391820460830FDF747
:103100004FF8009801AB801D00906A46384604993C
:1031100007F0EEF80028DBD168460079C007C00F41
:10312000A07300990498814201D00920D0E72E6055
:103130000020CDE7FFB581B00020009001981D462A
:1031400014460F4600280CD0002D0AD0032F1FD3A1
:103150000326002C07D02868032806D20C2005B0CF
:10316000F0BD0E20FBE71E6015E01C202080032030
:103170006080231D6A46019807F038F8234608331B
:103180006A463946019804F06FFA0098B84201D0B7
:103190000920E4E72E600020E1E7FFB507460020A4
:1031A00081B01D4614460090002F0AD0002D08D093
:1031B0000C26002C07D028680C2807D20C2005B05C
:1031C000F0BD0E20FBE700201E60F8E720202080E5
:1031D0000C206080231D6A463846029907F02EF8BD
:1031E0000028ECD1234609336A4638460299FFF796
:1031F000ACF80028E3D1234608336A4638460299E2
:1032000007F076F80028DAD1009A02998A4201D0B4
:103210000920D4E72E60D2E7FFB581B000200090EE
:1032200001981D4614460F4600280CD0002D0AD0E8
:10323000042F21D31826002C07D02868182806D27E
:103240000C2005B0F0BD0E20FBE71E6017E0142037
:10325000208018206080231D6A46019806F0C6FF72
:10326000234608336A463946019800F00AF80028D8
:10327000E7D10098B84201D00920E2E72E60002093
:10328000DFE7F8B515460E4607461C46FFF75DF822
:10329000002825D1234608332A463146384600F017
:1032A0006DF900281CD16B462A463146384607F096
:1032B0001FF8002814D16A46A17C12784908D30768
:1032C0004900DB0F1943FD2319409307DB0F5B0017
:1032D00019435207FB23D20F194092001143A174E6
:1032E000F8BDFFB581B00020009001981D4614463E
:1032F0000F4600280CD0002D0AD0072F24D3072614
:10330000002C07D02868072807D20C2005B0F0BD94
:103310000E20FBE700201E60F8E713202080072026
:103320006080231D6A46019806F088FF0028EDD1D1
:10333000234608336A463946019800F009F8002808
:10334000E4D10099B94201D00920DFE72E60DDE722
:1033500010B500F0DDFB10BDFFB581B0002000907E
:1033600001981D4614460F4600280CD0002D0AD0A7
:10337000032F1FD30326002C07D02868032806D26A
:103380000C2005B0F0BD0E20FBE71E6015E0032009
:103390006080231D6A46019806F028FF2346083303
:1033A0006A463946019800F00AF80028E9D10098E9
:1033B000B84201D00920E4E72E600020E1E730B5F3
:1033C000002807D0002A05D0156800248D4203D1BB
:1033D000092030BD0E2030BD1978455D4908ED0744
:1033E0004900ED0F29431970FD2529401568455DF9
:1033F000AD07ED0F6D0029431970FB2529401568B5
:10340000455D6D07ED0FAD0029431970F725294083
:103410001568405D0007C00FC000014319701068B7
:10342000401C1060204630BDF8B5074600201D4600
:1034300014460090002F04D0002D02D0032920D183
:1034400001E00E20F8BD0326002C04D028680328D4
:1034500003D20C20F8BD1E6016E01B202080032044
:1034600060800146231D6A46384606F0BFFE2346AB
:1034700008336A460321384606F02FFF00980328D8
:1034800001D00920F8BD2E600020F8BDF8B5154622
:103490000F4606000ED0002D0CD01C4600F022F87E
:1034A000002806D1234610332A4639463046FEF717
:1034B0004CFFF8BD0E20F8BDF8B51D4617460E00AE
:1034C0000ED0002D0CD0044600F01FF8002806D1C5
:1034D00020462B463A4631461030FEF74FFFF8BDE6
:1034E0000E20F8BD10B51446024618462368C91AC6
:1034F000102901D2092010BD99181022FCF750FEA6
:10350000206810302060002010BD10B51C460B460E
:1035100001462068121A102A01D2092010BDC018D5
:103520001022FCF73DFE206810302060002010BD06
:1035300010B5144602462068091A402901D2092014
:1035400010BD811840221846FCF72AFE2068403042
:103550002060002010BD10B51C461B68D21A402AFE
:1035600001D2092010BD5B18014640221846FCF725
:1035700017FE206840302060002010BDFFB581B0EC
:1035800015460F461C46019806F058FE060004D169
:103590002868391A082902D2092005B0F0BD01991E
:1035A00008224118A01CFCF7FBFD286808302860A1
:1035B0003046F2E7FFB581B01D4616460446029933
:1035C00006F04EFE07462868311A082902D2092063
:1035D00005B0F0BD029908224018A11CFCF7E0FDDF
:1035E0002868083028603846F2E7002906D0002A0B
:1035F00004D01368022B03D2092070470E207047B5
:103600007B230B70002800D001204870022010603E
:1036100000207047FFB583B0144600201F460D46BA
:10362000009301900A467B2301A9039805F029FF26
:10363000060003D13868002802D0002007B0F0BD92
:10364000002C20D001980830A8421AD8234601AA9D
:103650002946039806F0CAFDA31C01AA294603982F
:1036600006F0C4FD231D01AA2946039806F0BEFDFD
:10367000A31D01AA2946039806F0B8FD0198A842A7
:1036800003D00920DAE70E20D8E73046D6E7F8B5B0
:1036900016460C0005460AD0002E08D030680228D5
:1036A0000FD37A202070002D03D0012002E00E20DD
:1036B000F8BD002060700220002D18D030680A2864
:1036C00001D20920F8BDA11C288806F0ADFD871C99
:1036D000E119688806F0A8FDC719E119A88806F065
:1036E000A3FDC719E119E88806F09EFDC0193060F6
:1036F0000020F8BD10B513467A2205F0AFFE10BDCC
:10370000FFB583B00C9C0D9F0E46002C20D0002FDF
:103710001ED08620694608723D680020019001ABEA
:103720002A46214602A806F0F0FD002811D101AB7F
:103730002A46214603A806F093FD002809D10198E6
:103740000146401CA8423BD8002E04D0012203E0D1
:103750000E2007B0F0BD002262540190002E13D05D
:1037600001461131A9422BD8201810223146FCF70E
:1037700017FD317C01988A078908D20F49000A4356
:1037800010302254401C01901448009001AB2A468E
:103790002146059802F053FF0600DAD10198014650
:1037A000401CA8420CD8069A002A00D0012262547C
:1037B0000190069900290DD001461031A94201D986
:1037C0000920C6E7201810220699FCF7E9FC0198A9
:1037D0001030019038603046BBE700000B35000028
:1037E00010B51346862205F039FE10BD30B500280D
:1037F00007D0002A05D0156800248D4203D1092086
:1038000030BD0E2030BD1978455D4908ED074900EF
:10381000ED0F29431970FD2529401568455DAD0759
:10382000ED0F6D0029431970FB2529401568455D92
:103830006D07ED0FAD0029431970F7252940156874
:10384000405D0007C00FC000014319701068401CA4
:103850001060204630BD70B5002907D0002B05D080
:103860001D680024954203D1092070BD0E2070BD53
:103870000278D207D20F4A5506781D68B607F60FB0
:10388000760032434A5506781D687607F60FB60073
:1038900032434A5500781D680007C00FC00002433C
:1038A0004A551868401C1860204670BDF8B5074698
:1038B0001448009015460E461C46384602F090FE0D
:1038C00000281DD110480090231D2A463146384655
:1038D00002F086FE002813D10C48234600900833DE
:1038E0002A463146384602F07BFE002808D10848B7
:1038F000234600900C332A463146384602F070FECB
:10390000F8BD0000EB2900008D340000513C0000A0
:1039100031350000F8B50446134800901D461646A0
:103920000F46206802F08BFE00281BD10F48009044
:103930002B4632463946606802F081FE002811D1DC
:103940000B4800902B4632463946A06802F077FEBD
:10395000002807D1074800902B4632463946E068D8
:1039600002F06DFEF8BD0000172A0000B934000017
:10397000773C000057350000F8B515460F460600A5
:103980000ED0002D0CD01C46FFF790FF002806D16A
:10399000234610332A4639463046FFF787FFF8BDE5
:1039A0000E20F8BDF8B51D4617460E000ED0002DAE
:1039B0000CD00446FFF7AEFF002806D120462B4668
:1039C0003A4631461030FFF7A5FFF8BD0E20F8BD8E
:1039D00038B51C4613688B4201D1092038BD6B46AF
:1039E00006F086FC0028F9D1207800994008CA0723
:1039F0004000D20F1043FD2210408A07D20F520020
:103A00001043FB2210404A07D20F920010430907CF
:103A1000F722C90F1040C90008432070002038BDAC
:103A2000FFB583B00C9E0D9C1746002E37D0002C9E
:103A300035D07F206946087225680020019001ABCF
:103A40002A46314602A806F060FC002825D101ABC9
:103A50002A46314603A806F003FC00281DD101AB1D
:103A60002A46314604A806F050FC002815D10D481E
:103A7000009001AB2A463146384602F0E0FD0028AE
:103A80000BD10948009001AB2A463146069802F056
:103A9000D6FD002801D10199216007B0F0BD0E20AC
:103AA000FBE70000CD3B0000A53900007FB582B0E8
:103AB0001C460D46060027D0002C25D000200A46C3
:103AC00001907F2301A90094304605F0DAFC00281C
:103AD00006D12068002805D00198A84212D1002004
:103AE00006B070BD049800280ED00848009004ABC2
:103AF00001AA2946304602F073FD0028F0D1019951
:103B0000A942EDD00920EBE70E20E9E77939000062
:103B1000F8B51C4615460E4607466B4606F0E8FB10
:103B2000002852D16946207809784008C90740002A
:103B3000C90F08432070FD21084069460978631CBD
:103B40008907C90F490008432070FB2108406946D6
:103B500009782A464907C90F890008432070F721D0
:103B60000840694609780907C90FC9000843207051
:103B70008F210840694609784906490F0901084321
:103B80002070694609784006C909400EC9010843FA
:103B900020703146384606F0ABFB002815D1A31C37
:103BA0002A463146384606F0A3FB00280DD1E31C17
:103BB0002A4631463846FFF719FE002805D1231D55
:103BC0002A4631463846FFF711FEF8BDF8B50446DF
:103BD000007816460F468207C107D20FC90F520060
:103BE00011434207D20F920011430207D20FD200B5
:103BF00011434206520F12011143C009C001014393
:103C0000684601701D463246394606F07EFB0028A4
:103C10001DD12B4632463946601C06F076FB002843
:103C200015D12B4632463946A01C06F06EFB002803
:103C30000DD12B4632463946E01CFFF70CFE00281A
:103C400005D12B4632463946201DFFF704FEF8BD4C
:103C500010B5144602462068091A102901D209201D
:103C600010BD811810221846FCF79AFA206810300F
:103C70002060002010BD10B51C461B68D21A102A07
:103C800001D2092010BD5B18014610221846FCF72E
:103C900087FA206810302060002010BDFFB581B089
:103CA000029900290DD0049900290AD00446007910
:103CB0000025082802D8207B082804D9072005B051
:103CC000F0BD0E20FBE70B46201D039A029906F07B
:103CD0001CFB0026009602AF0ECF206802F0AFFC5E
:103CE000144F08E000972068A900405802A90EC9A7
:103CF00002F0A5FC6D1C2079A842F3D802AD0ECDD0
:103D000020460C3006F001FB009602AD0ECDA068F7
:103D100002F095FC0025084E08E00096A068A90076
:103D2000405802AF0ECF02F08AFC6D1C217BA942E5
:103D3000F3D8C4E77D2300000B350000F8B5154625
:103D40000F4606000FD0002D0DD0002B0BD01C46C7
:103D500006F074FA002805D1A31C2A4639463046DD
:103D600001F0FCFDF8BD0E20F8BDF8B515460F4674
:103D700006000FD0002D0DD0002B0BD01C4606F0F6
:103D80005DFA002805D1A31C2A463946304601F0C9
:103D900066FEF8BD0E20F8BDFFB50746002085B0D1
:103DA0001E4614460090002F2DD0002E2BD002ABC3
:103DB0006A463846069906F041FA002821D103AB3D
:103DC0006A463846069906F039FA002819D104AB3C
:103DD0006A463846069906F031FA002811D1009853
:103DE0000190002301AA3846069900F029F800281E
:103DF00007D1019D0835002C1FD03068A84204D29D
:103E00000C2009B0F0BD0E20FBE768460089A080B9
:103E100068468089E0806846008A208123460C330A
:103E20006A463846069900F00BF80028E9D1009A56
:103E300006998A4201D00920E3E73560E1E70000F6
:103E4000FFB581B00198164600281BD0002E19D06E
:103E50001C466B46029906F0F1F9002813D1002C9C
:103E600024D0684600882080A31C3246029901981D
:103E700006F03EFA002806D1A178012905D00F4F9F
:103E800000250FE00E2005B0F0BD0D4FF8E7122021
:103E90006843031932461B1D02990198B847002850
:103EA000F1D16D1C2188A942F1D8ECE76946098857
:103EB00012225143091D3160E5E700003D3D00003D
:103EC0006B3D0000FFB58BB0002002900B981546AB
:103ED00000282BD00E98002828D00C9808287DD3D5
:103EE000014607AB02AA0B9806F080F908AB02AABC
:103EF0000C990B9806F07AF909AB02AA0C990B9869
:103F000006F074F901AB02AA0C990B9806F06EF951
:103F1000684686880A2046430E36002D7DD00E98CE
:103F20000068B04204D20C200FB0F0BD0E20FBE7B9
:103F3000322028806E806846808BA8806846008C7E
:103F4000E8806846808C288168468088A881C10006
:103F50004018029941180C9881427ED8002774E0DD
:103F60000A207843441923460E3302AA0C990B9871
:103F700006F03CF92346103302AA0C990B9806F080
:103F8000ACF904AB02AA0C990B9806F0A6F96946A5
:103F9000A07C097C4008C9074000C90F0843A074F1
:103FA000FD2108406946097C8907C90F490008437B
:103FB000A074FB2108406946097C4907C90F8900A4
:103FC0000843A074F72108406946097C0907C90F16
:103FD000C9000843A074EF21084000E03DE06946B5
:103FE000097C06ABC906C90F09010843A074DF218B
:103FF00008406946097C02AA8906C90F490108439D
:10400000A074BF2108406946097C4906C90F89018F
:104010000843A0740C990B9800E020E006F05DF9CD
:104020006946087E2346C007C00FE074143302AA15
:104030000C990B9806F0DAF82346163302AA0C996D
:104040000B9806F0D3F87F1CBFB268468088874281
:1040500086D302990C98814201D0092064E70E981A
:104060000660002060E7FFB587B007981D4614463C
:104070000E46002845D0002D43D000200190062E8A
:104080003CD308202F68286003AB01AA079806F0EC
:10409000ADF804AB01AA3146079806F0A7F805ABC6
:1040A00001AA3146079806F0A1F80020002C0FD095
:1040B0002868B84222D83520208068468089A080B0
:1040C0006846008AE0806846808A208120460C305D
:1040D00029680090791A029102AB01AA314607982B
:1040E00000F011F800280AD12968029A891829607D
:1040F000002C00D061800199B14200D009200BB0A2
:10410000F0BD0E20FBE7FFB585B0002003901168DD
:1041100006980E9C401A1E461546042838D36B4656
:104120000699059806F062F802AB2A4606990598AA
:1041300006F05CF8694608880989C2000F464743C3
:10414000121DD21933683260002C37D06180208074
:10415000306898421CD8684600880026C0000719BD
:104160003F1D26E0F0000019001D019047602968FE
:104170000698401A02280BD32A46019B06990598F7
:1041800006F034F8286806996288091A8A4202D92A
:10419000092009B0F0BD0599411801984068FBF766
:1041A000FFFF6188286840182860684600893F182A
:1041B000761C684600888642D4D304E0891C2A68AD
:1041C0004843101828600398E3E7F8B50546002037
:1041D00014460E460090002D0FD0002B0DD00A2E55
:1041E00030D3E879A97902020A430A32002C06D0BA
:1041F0001868904206D20C20F8BD0E20F8BD0020B1
:104200001A60F8BD1A6037202080231D6A463146A7
:10421000284605F0EBFFA31D6A463146284605F007
:10422000E5FF234608336A463146284605F0DEFF9F
:1042300023460C336A463146284600F005F80099BB
:10424000B142DED00920F8BDF8B507460020009045
:1042500010681546081A0E461C46022807D3384631
:1042600005F0C4FF28682288311A8A4201D9092042
:10427000F8BDC119A01CFBF793FF218828684018DE
:1042800028600098F8BDFFB587B00020009007981F
:104290001F461446002829D0002F27D00898082848
:1042A00060D3014603AB6A46079805F09FFF04AB55
:1042B0006A460899079805F099FF05AB6A46089980
:1042C000079805F093FF01AB6A460899079805F037
:1042D0008DFF68468588062045430E35002C43D067
:1042E0003868A84204D20C200BB0F0BD0E20FBE7CA
:1042F00033202080658068468089A0806846008AD7
:10430000E0806846808A208168468088A08181009C
:104310004018009941180898814223D8002619E0D6
:1043200006207043031902936A460E3308990798D2
:1043300005F05CFF029B6A4610330899079805F068
:1043400055FF029B6A4612330899079805F0C5FF8E
:10435000761CB6B2684680888642E1D300990898F8
:10436000814201D00920BFE700203D60BCE7FFB5D6
:1043700081B00020009001981F461446002813D0F9
:10438000002F11D002980B2852D30198817A407ADD
:104390000E02064335460E35002C07D03868A84279
:1043A00006D20C2005B0F0BD0E20FBE71D6042E0F8
:1043B000392020806580231D6A460299019805F006
:1043C00015FFA31D6A460299019805F00FFF2346C9
:1043D00008336A460299019805F008FF23460C331A
:1043E0006A460299019805F001FF23460E336A469A
:1043F0000299019805F071FF234610336A4602992D
:10440000019805F0F3FE0098029982198A420FD8AC
:10441000002E09D001993246091820461230FBF7C8
:10442000BFFE00988019009001460298814201D099
:104430000920B7E73D600020B4E7FFB585B0002054
:1044400000900598144600282AD00898002827D004
:104450000698082866D3014602AB6A46059805F01F
:10446000C5FE03AB6A460699059805F0BFFE04AB8E
:104470006A460699059805F0B9FE01AB6A460699A9
:10448000059805F0B3FE68468088C5000E35002CFF
:104490004AD008980068A84204D20C2009B0F0BDA8
:1044A0000E20FBE730202080658068460089A080D0
:1044B00068468089E0806846008A20816846808856
:1044C000A081C100081A009941180698814229D894
:1044D00000261FE0F00007193B460E336A46069996
:1044E000059805F083FE3B4610336A460699059809
:1044F00005F0F3FE3B4612336A460699059805F02F
:1045000075FE3B4614336A460699059805F06EFE23
:10451000761CB6B2684680888642DBD3009906983E
:10452000814201D00920B9E7089805600020B5E76D
:10453000FFB581B00020009001981F461446002866
:1045400013D0002F11D002980C2852D30198C17AB1
:10455000807A0E02064335460E35002C07D03868A7
:10456000A84206D20C2005B0F0BD0E20FBE71D606E
:1045700042E0362020806580231D6A46029901981A
:1045800005F034FEA31D6A460299019805F02EFE3F
:10459000234608336A460299019805F027FE234610
:1045A0000C336A460299019805F020FE23460E332B
:1045B0006A460299019805F019FE234610336A46AF
:1045C0000299019805F012FE0098029982198A4218
:1045D0000FD8002E09D00199324609182046123012
:1045E000FBF7DEFD00988019009001460298814299
:1045F00001D00920B7E73D600020B4E7F8B50646D2
:10460000002014460D460090002E11D0002B0FD034
:10461000082D39D3F079B17902020A430A204243C6
:104620000A32002C06D01868904206D20C20F8BD41
:104630000E20F8BD00201A60F8BD31202080231D17
:104640006A462946304605F0F9FD0028F4D1A31D3D
:104650006A462946304605F0F1FD0028ECD1234694
:1046600008336A462946304605F0E8FD0028E3D1C4
:1046700023460C336A462946304600F007F80028E6
:10468000DAD10099A942D7D00920F8BDFFB581B091
:104690001C4615460E466B46019805F0CFFD0028D6
:1046A00013D16946098821800027A41C09E023460C
:1046B0002A463146019800F0C2F8002805D10A3494
:1046C0007F1C694609888F42F1D305B0F0BDFFB564
:1046D00081B00020009001981D4614460F46002826
:1046E0000CD0002D0AD0032F1FD30D26002C07D08D
:1046F00028680D2806D20C2005B0F0BD0E20FBE77F
:104700001E6015E03A2020800D206080231D6A463F
:10471000019805F06BFD23460C336A463946019833
:1047200005F0DBFD0098B84201D00920E4E72E60D7
:104730000020E1E7FFB581B00020009001981F46FE
:104740001446002813D0002F11D002980D2859D3F9
:104750000198017BC07A0E02064335461035002CC5
:1047600007D03868A84206D20C2005B0F0BD0E2054
:10477000FBE71D6049E0382020806580231D6A46E4
:104780000299019805F032FDA31D6A46029901982D
:1047900005F02CFD234608336A460299019805F07E
:1047A00025FD23460C336A460299019805F01EFD4B
:1047B00023460E336A460299019805F08EFD234682
:1047C00010336A460299019805F010FD2346123312
:1047D0006A460299019805F009FD0098029982192C
:1047E0008A420FD8002E09D0019932460918204676
:1047F0001430FBF7D5FC0098801900900146029810
:10480000814201D00920B0E73D600020ADE7FFB54F
:1048100010680027081A81B015460E461C46042869
:1048200002D2092005B0F0BD019805F0DFFCA31C01
:104830002A463146019805F0D9FC3846F2E7F8B52A
:1048400015460E4607461C4605F0F8FC002805D123
:10485000A31C2A463146384600F001F8F8BDF8B5E9
:1048600015460E4607461C4601F0F9F8002805D10A
:10487000231D2A4631463846FFF7C9FFF8BD000020
:10488000F8B50446194800901D4616460F462068A4
:1048900001F0D5FE002821D1154800902B46324664
:1048A0003946606801F0CBFE002817D120462B4620
:1048B000324639460A3005F0D3FC00280ED1204696
:1048C0002B46324639460C3005F0CAFC002805D18B
:1048D000218901204002814201D90720F8BD0095BD
:1048E00033463A46206902F08FFFF8BD8B5A00002C
:1048F000F5480000F8B51D4616460F460446FDF77C
:104900003AFF00281DD12B4632463946601CFDF780
:1049100032FF002815D1A1784A07930F012B00D050
:104920000720CA07D20F5B001A430B07DB0FC9062B
:10493000DB00C90F1A4309010A432968B14201D1BA
:104940000920F8BD7A542968491C2960F8BDF8B5DA
:10495000074610681546081A0E461C46082801D25C
:104960000920F8BD384605F041FCA31C2A46314613
:10497000384605F03BFC231D2A463146384605F0F3
:1049800035FCA31D2A463146384605F02FFC002091
:10499000F8BD0000FFB50446007816468207C1073F
:1049A000D20FC90F520011434207D20F9200114398
:1049B0000207D20FD2001143C206D20F12011143D7
:1049C0008206D20F520140061143C00F800183B00E
:1049D0000143684601711D46324601A8049905F05D
:1049E00094FC00281FD160782B46C1078007C00FB8
:1049F000C90F4000014368460171324601A804997D
:104A000005F083FC00280ED120462B4632460830A4
:104A1000049905F025FC002805D161890120400298
:104A2000814202D9072007B0F0BD00953346606887
:104A3000049A02F0E9FE0028F5D1124800902B46B6
:104A40003246E068049901F0FAFD0028EBD10E4FE0
:104A500000972B4632462069049901F0F0FD0028AA
:104A6000E1D100972B4632466069049901F0E7FDD9
:104A70000028D8D100972B463246A069049901F04E
:104A8000DEFDD0E7C1940000F5480000FFB583B01B
:104A90000C9F0D9C002F38D0002C36D00025A22072
:104AA000694601950872266801AB3246394602A86C
:104AB00005F02BFC002826D101AB3246394603A86D
:104AC00005F0CEFB00281ED11148009001AB324604
:104AD0003946049801F0B3FD002814D10D48009028
:104AE00001AB32463946059801F0A9FD00280AD1EC
:104AF00001AB324639460095069801F0A0FD00282A
:104B000001D10199216007B0F0BD0E20FBE7000044
:104B10009549000081480000FEB51C461746060076
:104B20000D4614D0002C12D000200A460190A2237A
:104B300001A90094304604F0A4FC002806D12068A6
:104B4000002806D00198A84210D10020FEBD0E20FA
:104B5000FEBD074800903B4601AA2946304601F0B9
:104B60003FFD0028F4D10199A942F1D00920FEBDF2
:104B70004F490000FFB583B000200C9C1D4616462F
:104B80000F460190002B23D0002C21D02068002854
:104B90001BD0A32028700120019001AB294603A857
:104BA000226805F05DFB002810D10F48009001AB92
:104BB00029463846226801F042FD002806D10199B5
:104BC00023680A46491C8B4204D2092007B0F0BD75
:104BD0000E20FBE7002E01D0012300E00023AB54A0
:104BE00001912160F2E7000081480000FEB51D46FA
:104BF000164607000C4620D0002D1ED000200A4685
:104C00000190A32301A90095384604F03AFC00283E
:104C100014D12868002803D00198A0420FD110E0D9
:104C20000198801CA0420AD8002E06D0334601AA63
:104C30002146384605F0DAFAEEE70E20FEBD0920DF
:104C4000FEBD0020FEBDF8B50F46044600216846B3
:104C5000017020781D46C107C90F684601701646CD
:104C6000394605F052FB002805D12B46324639461D
:104C7000201D05F019FBF8BDFFB581B000200090A4
:104C800001981D4614460F4600280CD0002D0AD06E
:104C9000032F1ED30426002C07D02868042806D230
:104CA0000C2005B0F0BD0E20FBE71E6014E0532081
:104CB000208004206080231D6A46019805F096FA42
:104CC000A31D6A463946019805F090FA0098B8424B
:104CD00001D00920E5E72E600020E2E7FFB583B0B0
:104CE00003980C9C1D461746002823D0002F21D086
:104CF00008202E68286001AB0499039805F09EFAFD
:104D0000002815D16B463A460499039800F0A7FE97
:104D100000280DD102AB3A460499039805F08EFAAB
:104D2000002805D1002C03D02968B14204D90920FC
:104D300007B0F0BD0E20FBE76946898821806946EF
:104D40000988618069464988A18069460989E180AE
:104D5000EEE70000FFB585B01D46144606002FD0D3
:104D6000002D2DD00020019002202F68286003AB79
:104D700001AA3046069905F061FA002821D1002CDD
:104D800008D02868B8423BD85120208068468089E6
:104D9000A080A01D29680090791A029102AB01AA97
:104DA0003046069900F032F807000AD128680299C7
:104DB00040182860002C1FD0A079022803D01BE0E7
:104DC0000E2009B0F0BDA07B062815D1A08804A94B
:104DD000FCF72EF805280FD004980C2148430A4907
:104DE00001AA431818460830009030461B1D06994A
:104DF00002F0F2FC0700E4D101990698814201D04B
:104E00000920DEE73846DCE7A0310020FFB583B09B
:104E10000C9C1D461646070019D0002D17D0002EF9
:104E200015D001AB049905F063FA00280DD129686B
:104E30000220029128600020002C11D068460079E1
:104E400020702868884204D9092007B0F0BD0E20E0
:104E5000FBE768460079012801D0022806D1A01C92
:104E600069460979012903D0022909D00B20ECE712
:104E7000009002AB324638460499FFF72FFF06E058
:104E8000009002AB32463846049900F0EBF8002857
:104E9000DBD12968029A89182960D6E7F8B50E4651
:104EA00000211C46009100280BD0002C09D0022EB6
:104EB00017D30225002A06D02168022905D20C202A
:104EC000F8BD0E20F8BD1D600EE0542111800221B6
:104ED0005180131D6A46314605F088F90098B042AA
:104EE00001D00920F8BD25600020F8BDFFB581B0D4
:104EF0000020009001981D4614460F4600280CD053
:104F0000002D0AD0032F1ED30326002C07D02868BB
:104F1000032806D20C2005B0F0BD0E20FBE71E6072
:104F200014E05220208003206080231D6A460198EF
:104F300005F05CF9A31D6A463946019805F0CDF9E4
:104F40000098B84201D00920E5E72E600020E2E792
:104F5000FFB581B00020009001981D4614460F4611
:104F600000280CD0002D0AD0032F1ED30326002CBE
:104F700007D02868032806D20C2005B0F0BD0E200B
:104F8000FBE71E6014E05520208003206080231D75
:104F90006A46019805F02AF9A31D6A463946019828
:104FA00005F09BF90098B84201D00920E5E72E6092
:104FB0000020E2E7FFB585B01D46144606002DD05F
:104FC000002D2BD00020019002202F68286003AB19
:104FD00001AA3046069905F031F900281FD1002CAE
:104FE00006D02868B84236D868468089A080A01DBF
:104FF00029680090791A029102AB01AA30460699FD
:1050000000F030F807000AD128680299401828609B
:10501000002C1CD0207B062803D018E00E2009B0FD
:10502000F0BDA08804A9FBF703FF05280FD0049862
:105030000C2148430A4901AA431818460830009039
:1050400030461B1D069902F0C7FB0700E7D1019906
:105050000698814201D00920E1E73846DFE70000E9
:10506000A0310020FFB58BB00B98149F1C4615464D
:1050700000285ED0002D5CD0002C5AD0206809900A
:105080000C20206007AB0C990B9805F0D7F800288E
:105090004DD103AB2A460C990B9800F0E0FC002898
:1050A00045D106AB2A460C990B9805F021F900284A
:1050B0003DD105AB2A460C990B9805F019F900284B
:1050C00035D104AB2A460C990B9805F0B7F80028A7
:1050D0002DD102AB2A460C990B9805F0AFF80600CB
:1050E00025D169460989206841182160002F28D000
:1050F000099A3846914219D86946898B01806946D8
:10510000898941806946C98981806946097E8171A2
:105110006946097DC1716946098A018169460A8922
:10512000428129680C9B5B1A9A4204D909200FB06E
:10513000F0BD0E20FBE70B9B3846C9180C30FBF77F
:105140002FF8694609892868401828603046EEE73C
:10515000F8B51F4615000E4609D0002F07D0002EC7
:1051600007D0B168002904D1F168002901D00E20D0
:10517000F8BD3968052940D3A6212970691C05F0BE
:1051800058F8401C002E01D0012100E00021441CF1
:105190002954002E42D03968E01D81422DD32919AF
:1051A000308805F046F80419B0782855641C291990
:1051B000B08805F03EF80419B068002831D03A688C
:1051C000211D8A4219D3008801214902884201D950
:1051D0000720F8BD01202855B068641C29190088F3
:1051E00005F027F80419F068002815D0B068018888
:1051F000601C08183968884201D90920F8BD0120CF
:105200002855B068641C02882819F168FAF7C8FFAD
:10521000B0680088041901E02855641C00203C6037
:10522000F8BD00202855641CF6E70000FEB51F46B7
:10523000144606000D4614D0002C12D000200A4659
:105240000190A62301A90094304604F01AF9002821
:1052500006D12068002806D00198A8420ED0092067
:10526000FEBD0E20FEBD064800903B4601AA294621
:10527000304601F0B5F90028F4D1EDE70020FEBD7D
:105280003DA2000030B5039C002B0BD0002C09D0B0
:105290002568042D1BD3A0251D705870002903D04C
:1052A000012002E00E2030BD00209870032000296C
:1052B00009D0206806280AD30D88DD702D0A1D71DB
:1052C0008878587106202568411C8D4201D209203A
:1052D00030BD002A01D0012100E000211954401CFA
:1052E0002060002030BDFFB583B0174600201E4669
:1052F0000C46009301900A46A02301A9039804F0EC
:10530000C0F8050006D13068002805D00198A042F9
:1053100011D1002007B0F0BD002F0ED00198801CE5
:10532000A04208D83B4601AA2146039804F05EFF3C
:105330000198A04203D00920ECE70E20EAE72846B6
:10534000E8E73FB583B000200A9C0090A72069469B
:105350001D460871002B25D0002C23D00B46294672
:1053600001A8226804F0D1FF002819D16B46294614
:1053700003A8226804F074FF002811D16B46294667
:1053800004A8226804F06CFF002809D16B46294666
:1053900005A8226804F064FF002801D1009921606B
:1053A00007B030BD0E20FBE710B51346A72204F06E
:1053B00055F810BD3FB581B00D4600230899099CF2
:1053C000009300290FD0002C0DD02368082B21D387
:1053D000AA230B704870000A887003200090002AEE
:1053E00004D0012003E00E2005B030BD0020C870BD
:1053F00004200090002A08D020680623062809D33C
:1054000012880A71120A4A71009300982368421C9C
:10541000934201D20920E7E7002D01D0012300E0EB
:1054200000230B5400926B4604A8226804F03CFF52
:105430000028D9D1009820600020D5E7FFB583B0BF
:105440000C9F1C460D46060036D0002F34D000209D
:105450000A460190AA2301A90097304604F011F8EA
:10546000002827D13868002803D00198A84235D1F8
:1054700036E00198C01CA84230D802AB01AA2946E8
:10548000304604F0B3FE0199705C491C019101287B
:1054900005D0002CE9D0684600892080E5E7059812
:1054A000002809D0002C07D06A4620881289904233
:1054B00004D20C2007B0F0BD0E20FBE78818A842EC
:1054C0000CD871180598FAF76BFE684600892080A1
:1054D00068460089019908180190C6E70920E9E7A4
:1054E0000020E7E77FB582B00B4600210A9C0B9EA7
:1054F00015460091002C0FD0002E0DD031680829E0
:105500001DD3A92121706070000AA07003200090B3
:10551000002B04D0012003E00E2006B070BD002057
:10552000E07004200090002B18D0C001854201D902
:105530000720F2E7284631680A30884201D909205D
:10554000EBE72571290A617106200090A01D2A460B
:105550001946FAF725FE0098401900906B4621463F
:1055600005A8326804F0A0FE0028D6D1009830606B
:105570000020D2E710B51346A92203F06FFF10BD3B
:10558000FFB581B00A9F1C00154637D0002F35D0DB
:10559000002000903E68062E2DD3A520207001200B
:1055A00000906B463246214601A804F059FE0028BF
:1055B00022D16B463246214602A804F051FE002853
:1055C0001AD1002D26D0009801212154401C0090B2
:1055D0006B4632462146284604F042FE00280BD195
:1055E0006B4632462146A81C04F03AFE002803D13F
:1055F0000098864204D1092005B0F0BD0E20FBE7DB
:105600006968002900D001212154401C00903860B5
:105610000020F1E700210098F6E7FEB51C4616468B
:1056200007000D4616D0002C14D0002E12D00020FA
:105630000A460190A52301A90094384603F021FFF2
:10564000002806D12068002806D00198A8420CD076
:105650000920FEBD0E20FEBD334601AA294638466C
:1056600000F062F80028F6D1EFE70020FEBD000050
:105670007CB516460022069D1C460192002B06D0E2
:10568000002D04D02A68052A03D209207CBD0E20F3
:105690007CBDA42222706070000AA070E170090A2B
:1056A000052021710190002E06D030880121490289
:1056B000884201D907207CBD0648009001AB2146F5
:1056C00030462A6800F0BBFF0028F4D1019828601A
:1056D00000207CBD65570000FEB51C46174606003D
:1056E0000D4614D0002C12D000200A460190A423AD
:1056F00001A90094304603F0C4FE002806D12068BA
:10570000002806D00198A8420CD00920FEBD0E202A
:10571000FEBD3B4601AA2946304600F005F80028A8
:10572000F6D1EFE70020FEBDFFB583B015460E466B
:105730001C461F88039804F081FD002810D1A31C8B
:105740002A463146039804F079FD002808D12088C4
:105750000190231D2A4631460097039800F0F8FD7A
:1057600007B0F0BDF8B51D4616460F46044604F0D6
:1057700077FD00280ED12B4632463946A01C04F096
:105780006FFD002806D10095218833463A466068AF
:1057900000F013FEF8BDFFB585B01D4614460700A6
:1057A00030D0002C2ED0002D2CD0002001900220D3
:1057B0002E68286003AB01AA3846069904F03EFD26
:1057C00000281DD1231D01AA3846069904F036FD94
:1057D000002815D12868A41D301A029002AB01AA36
:1057E00000943846069900F00FF8002808D129687F
:1057F000029A89182960019A06998A4200D00920E4
:1058000009B0F0BD0E20FBE7FFB583B003980C9CF8
:105810001F46154600282ED0002D2CD0002F2AD050
:1058200038680290286801900020694608806B461D
:1058300001AA0499039804F001FD060019D16946F4
:1058400009886118081B001D3860002C1ED00299C1
:1058500088420DD823462A460499039800F018F888
:10586000060006D1286804992288091A8A4204D9B8
:10587000092007B0F0BD0E20FBE703994118201D59
:10588000FAF78EFC21882868401828603046F0E737
:10589000F8B515460F4606000FD0002D0DD0002B91
:1058A0000BD01C4604F0CAFC002805D1A31C2A46D4
:1058B0003946304604F0C2FCF8BD0E20F8BD70B584
:1058C00004460D460846FAF78FFC2080656070BDDF
:1058D0000A780270497841700220704700B51A4872
:1058E00087B04068059000234822184905A804F0B5
:1058F0004DFA002801D0FBF70DFB6A46012100207C
:1059000004F02CFA002801D0FBF704FB104803F048
:1059100033FC002801D0FBF7FDFA684604F09EF93D
:10592000002801D0FBF7F6FA0A4804F08DF90028A8
:1059300001D0FBF7EFFA084804F04EFA002801D036
:10594000FBF7E8FA07B000BD60A500001C240020AA
:10595000E81F002019210000F19D000070B51446D9
:105960000246184623680025C91A102901D20920C9
:1059700070BD99181022FAF713FC206810302060CF
:10598000284670BD70B5049D002B0AD0002D08D0AC
:105990002C68022C1AD365241C70002803D0012423
:1059A00002E00E2070BD00245C700224002809D0A3
:1059B0002C68052C0AD306889E70360ADE70807823
:1059C000187105242E68A01C864201D2092070BDE2
:1059D000002901D0012000E000201855641C002A95
:1059E00001D0012000E000201855641C00202C602C
:1059F00070BDFFB583B00746164600200C460C9DCF
:105A00000A460190652301A90095384603F039FD47
:105A1000002820D12868002803D00198A04219D17D
:105A20001BE001980146401CA04213D87D5C019008
:105A3000002EF2D0069900290AD04119A14209D8B6
:105A400039182A460698FAF7ABFB019840190190DD
:105A50003570E2E7092007B0F0BD0020FBE7F8B59C
:105A6000074610681546081A0E461C46032801D240
:105A70000920F8BD384604F0B9FBA31C2A4631467C
:105A8000384604F02AFC0020F8BDF8B51D4616463D
:105A90000F46044604F0E4FB002805D12B463246AD
:105AA0003946A01C04F031FCF8BD000010B58AB0E6
:105AB00069460F48FBF7ACFF002801D0FBF72AFA34
:105AC0000C4C68460078217888430CD001A800F07F
:105AD00053F901A90648FBF7B1FF002805D00828B3
